{
  "fileName": "DaoSmartContract.sol",
  "contractName": "DaoSmartContract",
  "source": "pragma solidity ^0.6.0;\nimport \"@openzeppelin/contracts-ethereum-package/contracts/Initializable.sol\";\nimport \"@openzeppelin/contracts-ethereum-package/contracts/access/Ownable.sol\";\nimport \"@openzeppelin/contracts-ethereum-package/contracts/utils/Pausable.sol\";\nimport \"@openzeppelin/contracts-ethereum-package/contracts/math/SafeMath.sol\";\nimport \"@openzeppelin/contracts-ethereum-package/contracts/token/ERC20/IERC20.sol\";\nimport \"./DaoStakeInterface.sol\";\n\ncontract DaoSmartContract is OwnableUpgradeSafe, PausableUpgradeSafe {\n    // Library for safely handling uint256\n    using SafeMath for uint256;\n\n    enum Status {PENDING, UPVOTE, VOTING, ACTIVE, COMPLETED, REJECTED}\n    // 0 -> pending\n    // 1 -> upvote\n    // 2 -> voting\n    // 3 -> active\n    // 4 -> completed\n    // 5 -> rejected\n    address public phnxContractAddress;\n    address public phnxStakingContractAddress;\n    mapping(string => Proposal) public proposalList;\n    mapping(address => mapping(string => bool)) public votes;\n    struct Proposal {\n        uint256 fundsRequested;\n        uint256 initiationTimestamp;\n        uint256 completionTimestamp;\n        uint256 colletralAmount;\n        uint256 totalMilestones;\n        uint256 completedMilestones;\n        uint256 status;\n        uint256 totalVotes;\n        address proposer;\n    }\n\n    event ProposalSubmitted(\n        uint256 fundsRequested,\n        uint256 initiationTimestamp,\n        uint256 completionTimestamp,\n        uint256 colletralAmount,\n        uint256 totalMilestones,\n        uint256 status,\n        uint256 totalVotes,\n        address proposer\n    );\n    event ProposalStatusUpdated(\n        string _proposalId,\n        uint256 _previousStatus,\n        uint256 _newStatus\n    );\n    event FundsReleased(\n        string _proposalId,\n        uint256 _amountReleased,\n        uint256 _milestoneNumber,\n        address _admin\n    );\n    event CollateralDeposited(\n        string _proposalId,\n        uint256 _collateralAmount,\n        address _proposer\n    );\n    event ColleteralWithdrawn(\n        string _proposalId,\n        uint256 _collateralAmount,\n        address _proposer\n    );\n    event Voted(\n        string _proposalId,\n        uint256 altQuantity,\n        uint256 _days,\n        uint256 rewardAmount\n    );\n    event CompletedMilestone(\n        string _proposalId,\n        uint256 _milestoneNumber,\n        uint256 _completedMilestones\n    );\n\n    function initialize() external initializer {\n        OwnableUpgradeSafe.__Ownable_init();\n        PausableUpgradeSafe.__Pausable_init();\n        phnxContractAddress = 0xfe1b6ABc39E46cEc54d275efB4b29B33be176c2A;\n        phnxStakingContractAddress = 0xe5242650Ed4a1C0bBa33204Efa1ca76772a5544C;\n    }\n\n    function submitProposal(\n        uint256 fundsRequested,\n        uint256 endTimestamp,\n        uint256 colletralAmount,\n        uint256 totalMilestones,\n        string calldata _proposalId\n    ) public whenNotPaused {\n        require(\n            proposalList[_proposalId].proposer == address(0),\n            \"Proposal already submitted\"\n        );\n        proposalList[_proposalId] = Proposal(\n            fundsRequested,\n            block.timestamp,\n            endTimestamp,\n            colletralAmount,\n            totalMilestones,\n            0,\n            0, //status\n            0,\n            msg.sender\n        );\n        emit ProposalSubmitted(\n            proposalList[_proposalId].fundsRequested,\n            proposalList[_proposalId].initiationTimestamp,\n            proposalList[_proposalId].completionTimestamp,\n            proposalList[_proposalId].colletralAmount,\n            proposalList[_proposalId].totalMilestones,\n            proposalList[_proposalId].status,\n            proposalList[_proposalId].totalVotes,\n            proposalList[_proposalId].proposer\n        );\n    }\n\n    function stake(\n        string calldata _proposalId,\n        uint256 _altQuantity,\n        uint256 _days\n    ) public whenNotPaused returns (uint256 rewardAmount) {\n        require(\n            votes[msg.sender][_proposalId] == false,\n            \"already staked once for this proposal\"\n        );\n        rewardAmount = DaoStakeContract(phnxStakingContractAddress).stakeALT(\n            _altQuantity,\n            _days\n        );\n        votes[msg.sender][_proposalId] = true;\n        proposalList[_proposalId].totalVotes = proposalList[_proposalId]\n            .totalVotes\n            .add(1);\n        emit Voted(_proposalId, _altQuantity, _days, rewardAmount);\n    }\n\n    function withdrawCollateral(string calldata _proposalId)\n        public\n        whenNotPaused\n    {\n        require(\n            proposalList[_proposalId].status == 4,\n            \"Project status not completed\"\n        );\n        IERC20(phnxContractAddress).transfer(\n            msg.sender,\n            proposalList[_proposalId].colletralAmount\n        );\n        emit ColleteralWithdrawn(\n            _proposalId,\n            proposalList[_proposalId].colletralAmount,\n            msg.sender\n        );\n    }\n\n    function updateProposalStatus(string calldata _proposalId, uint256 _status)\n        public\n        onlyOwner\n    {\n        require(\n            proposalList[_proposalId].proposer != address(0),\n            \"proposal not submitted before\"\n        );\n        uint256 oldStatus = proposalList[_proposalId].status;\n        if (\n            _status == uint256(Status.UPVOTE) &&\n            proposalList[_proposalId].status == uint256(Status.PENDING)\n        ) {\n            proposalList[_proposalId].status = uint256(Status.UPVOTE);\n        }\n\n        if (\n            _status == uint256(Status.VOTING) &&\n            proposalList[_proposalId].status == uint256(Status.UPVOTE)\n        ) {\n            proposalList[_proposalId].status = uint256(Status.VOTING);\n        }\n        if (\n            _status == uint256(Status.ACTIVE) &&\n            proposalList[_proposalId].status == uint256(Status.VOTING)\n        ) {\n            proposalList[_proposalId].status = uint256(Status.ACTIVE);\n        }\n        if (\n            _status == uint256(Status.REJECTED) &&\n            proposalList[_proposalId].status == uint256(Status.PENDING)\n        ) {\n            proposalList[_proposalId].status = uint256(Status.REJECTED);\n        }\n\n        require(proposalList[_proposalId].status == _status);\n        emit ProposalStatusUpdated(\n            _proposalId,\n            oldStatus,\n            proposalList[_proposalId].status\n        );\n    }\n\n    function issueFunds(\n        string calldata _proposalId,\n        uint256 _amount,\n        uint256 _milestoneNumber\n    ) public onlyOwner {\n        require(proposalList[_proposalId].status == 3, \"status not active\");\n\n        require(\n            proposalList[_proposalId].completedMilestones !=\n                proposalList[_proposalId].totalMilestones,\n            \"mileStones completed\"\n        );\n        if (proposalList[_proposalId].fundsRequested != 0) {\n            IERC20(phnxContractAddress).transfer(\n                proposalList[_proposalId].proposer,\n                _amount\n            );\n            proposalList[_proposalId]\n                .completedMilestones = proposalList[_proposalId]\n                .completedMilestones\n                .add(1);\n            proposalList[_proposalId].fundsRequested = proposalList[_proposalId]\n                .fundsRequested\n                .sub(_amount);\n        }\n        emit CompletedMilestone(\n            _proposalId,\n            _milestoneNumber,\n            proposalList[_proposalId].completedMilestones\n        );\n\n        if (proposalList[_proposalId].fundsRequested == 0) {\n            uint256 oldStatus = proposalList[_proposalId].status;\n            proposalList[_proposalId].status = 4;\n            emit ProposalStatusUpdated(\n                _proposalId,\n                oldStatus,\n                proposalList[_proposalId].status\n            );\n        }\n\n        emit FundsReleased(_proposalId, _amount, _milestoneNumber, msg.sender);\n    }\n\n    function getBaseInterest() public view returns (uint256) {\n        return (\n            DaoStakeContract(phnxStakingContractAddress).baseInterestRate()\n        );\n    }\n\n    function pause() public onlyOwner {\n        _pause();\n    }\n\n    function unPause() public onlyOwner {\n        _unpause();\n    }\n}\n",
  "sourcePath": "contracts/DaoSmartContract.sol",
  "abi": [
    {
      "anonymous": false,
      "inputs": [
        {
          "indexed": false,
          "internalType": "string",
          "name": "_proposalId",
          "type": "string"
        },
        {
          "indexed": false,
          "internalType": "uint256",
          "name": "_collateralAmount",
          "type": "uint256"
        },
        {
          "indexed": false,
          "internalType": "address",
          "name": "_proposer",
          "type": "address"
        }
      ],
      "name": "CollateralDeposited",
      "type": "event"
    },
    {
      "anonymous": false,
      "inputs": [
        {
          "indexed": false,
          "internalType": "string",
          "name": "_proposalId",
          "type": "string"
        },
        {
          "indexed": false,
          "internalType": "uint256",
          "name": "_collateralAmount",
          "type": "uint256"
        },
        {
          "indexed": false,
          "internalType": "address",
          "name": "_proposer",
          "type": "address"
        }
      ],
      "name": "ColleteralWithdrawn",
      "type": "event"
    },
    {
      "anonymous": false,
      "inputs": [
        {
          "indexed": false,
          "internalType": "string",
          "name": "_proposalId",
          "type": "string"
        },
        {
          "indexed": false,
          "internalType": "uint256",
          "name": "_milestoneNumber",
          "type": "uint256"
        },
        {
          "indexed": false,
          "internalType": "uint256",
          "name": "_completedMilestones",
          "type": "uint256"
        }
      ],
      "name": "CompletedMilestone",
      "type": "event"
    },
    {
      "anonymous": false,
      "inputs": [
        {
          "indexed": false,
          "internalType": "string",
          "name": "_proposalId",
          "type": "string"
        },
        {
          "indexed": false,
          "internalType": "uint256",
          "name": "_amountReleased",
          "type": "uint256"
        },
        {
          "indexed": false,
          "internalType": "uint256",
          "name": "_milestoneNumber",
          "type": "uint256"
        },
        {
          "indexed": false,
          "internalType": "address",
          "name": "_admin",
          "type": "address"
        }
      ],
      "name": "FundsReleased",
      "type": "event"
    },
    {
      "anonymous": false,
      "inputs": [
        {
          "indexed": true,
          "internalType": "address",
          "name": "previousOwner",
          "type": "address"
        },
        {
          "indexed": true,
          "internalType": "address",
          "name": "newOwner",
          "type": "address"
        }
      ],
      "name": "OwnershipTransferred",
      "type": "event"
    },
    {
      "anonymous": false,
      "inputs": [
        {
          "indexed": false,
          "internalType": "address",
          "name": "account",
          "type": "address"
        }
      ],
      "name": "Paused",
      "type": "event"
    },
    {
      "anonymous": false,
      "inputs": [
        {
          "indexed": false,
          "internalType": "string",
          "name": "_proposalId",
          "type": "string"
        },
        {
          "indexed": false,
          "internalType": "uint256",
          "name": "_previousStatus",
          "type": "uint256"
        },
        {
          "indexed": false,
          "internalType": "uint256",
          "name": "_newStatus",
          "type": "uint256"
        }
      ],
      "name": "ProposalStatusUpdated",
      "type": "event"
    },
    {
      "anonymous": false,
      "inputs": [
        {
          "indexed": false,
          "internalType": "uint256",
          "name": "fundsRequested",
          "type": "uint256"
        },
        {
          "indexed": false,
          "internalType": "uint256",
          "name": "initiationTimestamp",
          "type": "uint256"
        },
        {
          "indexed": false,
          "internalType": "uint256",
          "name": "completionTimestamp",
          "type": "uint256"
        },
        {
          "indexed": false,
          "internalType": "uint256",
          "name": "colletralAmount",
          "type": "uint256"
        },
        {
          "indexed": false,
          "internalType": "uint256",
          "name": "totalMilestones",
          "type": "uint256"
        },
        {
          "indexed": false,
          "internalType": "uint256",
          "name": "status",
          "type": "uint256"
        },
        {
          "indexed": false,
          "internalType": "uint256",
          "name": "totalVotes",
          "type": "uint256"
        },
        {
          "indexed": false,
          "internalType": "address",
          "name": "proposer",
          "type": "address"
        }
      ],
      "name": "ProposalSubmitted",
      "type": "event"
    },
    {
      "anonymous": false,
      "inputs": [
        {
          "indexed": false,
          "internalType": "address",
          "name": "account",
          "type": "address"
        }
      ],
      "name": "Unpaused",
      "type": "event"
    },
    {
      "anonymous": false,
      "inputs": [
        {
          "indexed": false,
          "internalType": "string",
          "name": "_proposalId",
          "type": "string"
        },
        {
          "indexed": false,
          "internalType": "uint256",
          "name": "altQuantity",
          "type": "uint256"
        },
        {
          "indexed": false,
          "internalType": "uint256",
          "name": "_days",
          "type": "uint256"
        },
        {
          "indexed": false,
          "internalType": "uint256",
          "name": "rewardAmount",
          "type": "uint256"
        }
      ],
      "name": "Voted",
      "type": "event"
    },
    {
      "inputs": [],
      "name": "getBaseInterest",
      "outputs": [
        {
          "internalType": "uint256",
          "name": "",
          "type": "uint256"
        }
      ],
      "stateMutability": "view",
      "type": "function"
    },
    {
      "inputs": [],
      "name": "initialize",
      "outputs": [],
      "stateMutability": "nonpayable",
      "type": "function"
    },
    {
      "inputs": [
        {
          "internalType": "string",
          "name": "_proposalId",
          "type": "string"
        },
        {
          "internalType": "uint256",
          "name": "_amount",
          "type": "uint256"
        },
        {
          "internalType": "uint256",
          "name": "_milestoneNumber",
          "type": "uint256"
        }
      ],
      "name": "issueFunds",
      "outputs": [],
      "stateMutability": "nonpayable",
      "type": "function"
    },
    {
      "inputs": [],
      "name": "owner",
      "outputs": [
        {
          "internalType": "address",
          "name": "",
          "type": "address"
        }
      ],
      "stateMutability": "view",
      "type": "function"
    },
    {
      "inputs": [],
      "name": "pause",
      "outputs": [],
      "stateMutability": "nonpayable",
      "type": "function"
    },
    {
      "inputs": [],
      "name": "paused",
      "outputs": [
        {
          "internalType": "bool",
          "name": "",
          "type": "bool"
        }
      ],
      "stateMutability": "view",
      "type": "function"
    },
    {
      "inputs": [],
      "name": "phnxContractAddress",
      "outputs": [
        {
          "internalType": "address",
          "name": "",
          "type": "address"
        }
      ],
      "stateMutability": "view",
      "type": "function"
    },
    {
      "inputs": [],
      "name": "phnxStakingContractAddress",
      "outputs": [
        {
          "internalType": "address",
          "name": "",
          "type": "address"
        }
      ],
      "stateMutability": "view",
      "type": "function"
    },
    {
      "inputs": [
        {
          "internalType": "string",
          "name": "",
          "type": "string"
        }
      ],
      "name": "proposalList",
      "outputs": [
        {
          "internalType": "uint256",
          "name": "fundsRequested",
          "type": "uint256"
        },
        {
          "internalType": "uint256",
          "name": "initiationTimestamp",
          "type": "uint256"
        },
        {
          "internalType": "uint256",
          "name": "completionTimestamp",
          "type": "uint256"
        },
        {
          "internalType": "uint256",
          "name": "colletralAmount",
          "type": "uint256"
        },
        {
          "internalType": "uint256",
          "name": "totalMilestones",
          "type": "uint256"
        },
        {
          "internalType": "uint256",
          "name": "completedMilestones",
          "type": "uint256"
        },
        {
          "internalType": "uint256",
          "name": "status",
          "type": "uint256"
        },
        {
          "internalType": "uint256",
          "name": "totalVotes",
          "type": "uint256"
        },
        {
          "internalType": "address",
          "name": "proposer",
          "type": "address"
        }
      ],
      "stateMutability": "view",
      "type": "function"
    },
    {
      "inputs": [],
      "name": "renounceOwnership",
      "outputs": [],
      "stateMutability": "nonpayable",
      "type": "function"
    },
    {
      "inputs": [
        {
          "internalType": "string",
          "name": "_proposalId",
          "type": "string"
        },
        {
          "internalType": "uint256",
          "name": "_altQuantity",
          "type": "uint256"
        },
        {
          "internalType": "uint256",
          "name": "_days",
          "type": "uint256"
        }
      ],
      "name": "stake",
      "outputs": [
        {
          "internalType": "uint256",
          "name": "rewardAmount",
          "type": "uint256"
        }
      ],
      "stateMutability": "nonpayable",
      "type": "function"
    },
    {
      "inputs": [
        {
          "internalType": "uint256",
          "name": "fundsRequested",
          "type": "uint256"
        },
        {
          "internalType": "uint256",
          "name": "endTimestamp",
          "type": "uint256"
        },
        {
          "internalType": "uint256",
          "name": "colletralAmount",
          "type": "uint256"
        },
        {
          "internalType": "uint256",
          "name": "totalMilestones",
          "type": "uint256"
        },
        {
          "internalType": "string",
          "name": "_proposalId",
          "type": "string"
        }
      ],
      "name": "submitProposal",
      "outputs": [],
      "stateMutability": "nonpayable",
      "type": "function"
    },
    {
      "inputs": [
        {
          "internalType": "address",
          "name": "newOwner",
          "type": "address"
        }
      ],
      "name": "transferOwnership",
      "outputs": [],
      "stateMutability": "nonpayable",
      "type": "function"
    },
    {
      "inputs": [],
      "name": "unPause",
      "outputs": [],
      "stateMutability": "nonpayable",
      "type": "function"
    },
    {
      "inputs": [
        {
          "internalType": "string",
          "name": "_proposalId",
          "type": "string"
        },
        {
          "internalType": "uint256",
          "name": "_status",
          "type": "uint256"
        }
      ],
      "name": "updateProposalStatus",
      "outputs": [],
      "stateMutability": "nonpayable",
      "type": "function"
    },
    {
      "inputs": [
        {
          "internalType": "address",
          "name": "",
          "type": "address"
        },
        {
          "internalType": "string",
          "name": "",
          "type": "string"
        }
      ],
      "name": "votes",
      "outputs": [
        {
          "internalType": "bool",
          "name": "",
          "type": "bool"
        }
      ],
      "stateMutability": "view",
      "type": "function"
    },
    {
      "inputs": [
        {
          "internalType": "string",
          "name": "_proposalId",
          "type": "string"
        }
      ],
      "name": "withdrawCollateral",
      "outputs": [],
      "stateMutability": "nonpayable",
      "type": "function"
    }
  ],
  "bytecode": "0x608060405234801561001057600080fd5b506131d7806100206000396000f3fe608060405234801561001057600080fd5b506004361061010b5760003560e01c80638456cb59116100a2578063d132c99b11610071578063d132c99b14610652578063d4749e851461069c578063efe12857146106ba578063f2fde38b1461073d578063f7b188a5146107815761010b565b80638456cb591461042a5780638da5cb5b14610434578063bf8390611461047e578063c3e8d3e81461051f5761010b565b80635c975abb116100de5780635c975abb14610353578063715018a61461037557806372d64f501461037f5780638129fc1c146104205761010b565b8063024d96821461011057806326f6e1d8146101895780633de87871146101d357806347fe8ba3146102c6575b600080fd5b6101876004803603602081101561012657600080fd5b810190808035906020019064010000000081111561014357600080fd5b82018360208201111561015557600080fd5b8035906020019184600183028401116401000000008311171561017757600080fd5b909192939192939050505061078b565b005b610191610a8a565b604051808273ffffffffffffffffffffffffffffffffffffffff1673ffffffffffffffffffffffffffffffffffffffff16815260200191505060405180910390f35b6102ac600480360360408110156101e957600080fd5b81019080803573ffffffffffffffffffffffffffffffffffffffff1690602001909291908035906020019064010000000081111561022657600080fd5b82018360208201111561023857600080fd5b8035906020019184600183028401116401000000008311171561025a57600080fd5b91908080601f016020809104026020016040519081016040528093929190818152602001838380828437600081840152601f19601f820116905080830192505050505050509192919290505050610ab0565b604051808215151515815260200191505060405180910390f35b610351600480360360608110156102dc57600080fd5b81019080803590602001906401000000008111156102f957600080fd5b82018360208201111561030b57600080fd5b8035906020019184600183028401116401000000008311171561032d57600080fd5b90919293919293908035906020019092919080359060200190929190505050610af5565b005b61035b6111dd565b604051808215151515815260200191505060405180910390f35b61037d6111f4565b005b61041e600480360360a081101561039557600080fd5b8101908080359060200190929190803590602001909291908035906020019092919080359060200190929190803590602001906401000000008111156103da57600080fd5b8201836020820111156103ec57600080fd5b8035906020019184600183028401116401000000008311171561040e57600080fd5b909192939192939050505061137f565b005b61042861181c565b005b6104326119d5565b005b61043c611aa9565b604051808273ffffffffffffffffffffffffffffffffffffffff1673ffffffffffffffffffffffffffffffffffffffff16815260200191505060405180910390f35b6105096004803603606081101561049457600080fd5b81019080803590602001906401000000008111156104b157600080fd5b8201836020820111156104c357600080fd5b803590602001918460018302840111640100000000831117156104e557600080fd5b90919293919293908035906020019092919080359060200190929190505050611ad3565b6040518082815260200191505060405180910390f35b6105d86004803603602081101561053557600080fd5b810190808035906020019064010000000081111561055257600080fd5b82018360208201111561056457600080fd5b8035906020019184600183028401116401000000008311171561058657600080fd5b91908080601f016020809104026020016040519081016040528093929190818152602001838380828437600081840152601f19601f820116905080830192505050505050509192919290505050611e4c565b604051808a81526020018981526020018881526020018781526020018681526020018581526020018481526020018381526020018273ffffffffffffffffffffffffffffffffffffffff1673ffffffffffffffffffffffffffffffffffffffff168152602001995050505050505050505060405180910390f35b61065a611ed0565b604051808273ffffffffffffffffffffffffffffffffffffffff1673ffffffffffffffffffffffffffffffffffffffff16815260200191505060405180910390f35b6106a4611ef6565b6040518082815260200191505060405180910390f35b61073b600480360360408110156106d057600080fd5b81019080803590602001906401000000008111156106ed57600080fd5b8201836020820111156106ff57600080fd5b8035906020019184600183028401116401000000008311171561072157600080fd5b909192939192939080359060200190929190505050611fa0565b005b61077f6004803603602081101561075357600080fd5b81019080803573ffffffffffffffffffffffffffffffffffffffff1690602001909291905050506124a1565b005b6107896126b1565b005b609760009054906101000a900460ff161561080e576040517f08c379a00000000000000000000000000000000000000000000000000000000081526004018080602001828103825260108152602001807f5061757361626c653a207061757365640000000000000000000000000000000081525060200191505060405180910390fd5b600460cb8383604051808383808284378083019250505092505050908152602001604051809103902060060154146108ae576040517f08c379a000000000000000000000000000000000000000000000000000000000815260040180806020018281038252601c8152602001807f50726f6a65637420737461747573206e6f7420636f6d706c657465640000000081525060200191505060405180910390fd5b60c960009054906101000a900473ffffffffffffffffffffffffffffffffffffffff1673ffffffffffffffffffffffffffffffffffffffff1663a9059cbb3360cb85856040518083838082843780830192505050925050509081526020016040518091039020600301546040518363ffffffff1660e01b8152600401808373ffffffffffffffffffffffffffffffffffffffff1673ffffffffffffffffffffffffffffffffffffffff16815260200182815260200192505050602060405180830381600087803b15801561098157600080fd5b505af1158015610995573d6000803e3d6000fd5b505050506040513d60208110156109ab57600080fd5b8101908080519060200190929190505050507f77c5403ea341a227f7fa5aae3a28dd3a3f593549812f92a335e7abe2aba99350828260cb85856040518083838082843780830192505050925050509081526020016040518091039020600301543360405180806020018481526020018373ffffffffffffffffffffffffffffffffffffffff1673ffffffffffffffffffffffffffffffffffffffff1681526020018281038252868682818152602001925080828437600081840152601f19601f8201169050808301925050509550505050505060405180910390a15050565b60c960009054906101000a900473ffffffffffffffffffffffffffffffffffffffff1681565b60cc602052816000526040600020818051602081018201805184825260208301602085012081835280955050505050506000915091509054906101000a900460ff1681565b610afd612785565b73ffffffffffffffffffffffffffffffffffffffff16606560009054906101000a900473ffffffffffffffffffffffffffffffffffffffff1673ffffffffffffffffffffffffffffffffffffffff1614610bbf576040517f08c379a00000000000000000000000000000000000000000000000000000000081526004018080602001828103825260208152602001807f4f776e61626c653a2063616c6c6572206973206e6f7420746865206f776e657281525060200191505060405180910390fd5b600360cb858560405180838380828437808301925050509250505090815260200160405180910390206006015414610c5f576040517f08c379a00000000000000000000000000000000000000000000000000000000081526004018080602001828103825260118152602001807f737461747573206e6f742061637469766500000000000000000000000000000081525060200191505060405180910390fd5b60cb848460405180838380828437808301925050509250505090815260200160405180910390206004015460cb85856040518083838082843780830192505050925050509081526020016040518091039020600501541415610d29576040517f08c379a00000000000000000000000000000000000000000000000000000000081526004018080602001828103825260148152602001807f6d696c6553746f6e657320636f6d706c6574656400000000000000000000000081525060200191505060405180910390fd5b600060cb858560405180838380828437808301925050509250505090815260200160405180910390206000015414610f625760c960009054906101000a900473ffffffffffffffffffffffffffffffffffffffff1673ffffffffffffffffffffffffffffffffffffffff1663a9059cbb60cb8686604051808383808284378083019250505092505050908152602001604051809103902060080160009054906101000a900473ffffffffffffffffffffffffffffffffffffffff16846040518363ffffffff1660e01b8152600401808373ffffffffffffffffffffffffffffffffffffffff1673ffffffffffffffffffffffffffffffffffffffff16815260200182815260200192505050602060405180830381600087803b158015610e4e57600080fd5b505af1158015610e62573d6000803e3d6000fd5b505050506040513d6020811015610e7857600080fd5b810190808051906020019092919050505050610ec8600160cb868660405180838380828437808301925050509250505090815260200160405180910390206005015461278d90919063ffffffff16565b60cb8585604051808383808284378083019250505092505050908152602001604051809103902060050181905550610f338260cb868660405180838380828437808301925050509250505090815260200160405180910390206000015461281590919063ffffffff16565b60cb85856040518083838082843780830192505050925050509081526020016040518091039020600001819055505b7f14886fda5e59846a2bf5445e844fa7d74308794b1fdf3b8fda7bd4d8d3c1293e84848360cb888860405180838380828437808301925050509250505090815260200160405180910390206005015460405180806020018481526020018381526020018281038252868682818152602001925080828437600081840152601f19601f8201169050808301925050509550505050505060405180910390a1600060cb8585604051808383808284378083019250505092505050908152602001604051809103902060000154141561113057600060cb85856040518083838082843780830192505050925050509081526020016040518091039020600601549050600460cb86866040518083838082843780830192505050925050509081526020016040518091039020600601819055507ff9658dbe59b6548b3f6ee93ff4e3b4efa307aab6e3651c81100f53ff9afb28a385858360cb898960405180838380828437808301925050509250505090815260200160405180910390206006015460405180806020018481526020018381526020018281038252868682818152602001925080828437600081840152601f19601f8201169050808301925050509550505050505060405180910390a1505b7f127e0cf2ac93deb07fd2a514ce2de929772983510b9533d3a52135cb3622be8c848484843360405180806020018581526020018481526020018373ffffffffffffffffffffffffffffffffffffffff1673ffffffffffffffffffffffffffffffffffffffff1681526020018281038252878782818152602001925080828437600081840152601f19601f820116905080830192505050965050505050505060405180910390a150505050565b6000609760009054906101000a900460ff16905090565b6111fc612785565b73ffffffffffffffffffffffffffffffffffffffff16606560009054906101000a900473ffffffffffffffffffffffffffffffffffffffff1673ffffffffffffffffffffffffffffffffffffffff16146112be576040517f08c379a00000000000000000000000000000000000000000000000000000000081526004018080602001828103825260208152602001807f4f776e61626c653a2063616c6c6572206973206e6f7420746865206f776e657281525060200191505060405180910390fd5b600073ffffffffffffffffffffffffffffffffffffffff16606560009054906101000a900473ffffffffffffffffffffffffffffffffffffffff1673ffffffffffffffffffffffffffffffffffffffff167f8be0079c531659141344cd1fd0a4f28419497f9722a3daafe3b4186f6b6457e060405160405180910390a36000606560006101000a81548173ffffffffffffffffffffffffffffffffffffffff021916908373ffffffffffffffffffffffffffffffffffffffff160217905550565b609760009054906101000a900460ff1615611402576040517f08c379a00000000000000000000000000000000000000000000000000000000081526004018080602001828103825260108152602001807f5061757361626c653a207061757365640000000000000000000000000000000081525060200191505060405180910390fd5b600073ffffffffffffffffffffffffffffffffffffffff1660cb8383604051808383808284378083019250505092505050908152602001604051809103902060080160009054906101000a900473ffffffffffffffffffffffffffffffffffffffff1673ffffffffffffffffffffffffffffffffffffffff16146114ee576040517f08c379a000000000000000000000000000000000000000000000000000000000815260040180806020018281038252601a8152602001807f50726f706f73616c20616c7265616479207375626d697474656400000000000081525060200191505060405180910390fd5b6040518061012001604052808781526020014281526020018681526020018581526020018481526020016000815260200160008152602001600081526020013373ffffffffffffffffffffffffffffffffffffffff1681525060cb83836040518083838082843780830192505050925050509081526020016040518091039020600082015181600001556020820151816001015560408201518160020155606082015181600301556080820151816004015560a0820151816005015560c0820151816006015560e082015181600701556101008201518160080160006101000a81548173ffffffffffffffffffffffffffffffffffffffff021916908373ffffffffffffffffffffffffffffffffffffffff1602179055509050507f455e248b24238c5fb6419b26b01bf3cf5941456d8a6d9ebd64c7ca6dc401dc2d60cb838360405180838380828437808301925050509250505090815260200160405180910390206000015460cb848460405180838380828437808301925050509250505090815260200160405180910390206001015460cb858560405180838380828437808301925050509250505090815260200160405180910390206002015460cb868660405180838380828437808301925050509250505090815260200160405180910390206003015460cb878760405180838380828437808301925050509250505090815260200160405180910390206004015460cb888860405180838380828437808301925050509250505090815260200160405180910390206006015460cb898960405180838380828437808301925050509250505090815260200160405180910390206007015460cb8a8a604051808383808284378083019250505092505050908152602001604051809103902060080160009054906101000a900473ffffffffffffffffffffffffffffffffffffffff16604051808981526020018881526020018781526020018681526020018581526020018481526020018381526020018273ffffffffffffffffffffffffffffffffffffffff1673ffffffffffffffffffffffffffffffffffffffff1681526020019850505050505050505060405180910390a1505050505050565b600060019054906101000a900460ff168061183b575061183a61285f565b5b8061185257506000809054906101000a900460ff16155b6118a7576040517f08c379a000000000000000000000000000000000000000000000000000000000815260040180806020018281038252602e815260200180613174602e913960400191505060405180910390fd5b60008060019054906101000a900460ff1615905080156118f7576001600060016101000a81548160ff02191690831515021790555060016000806101000a81548160ff0219169083151502179055505b6118ff612876565b611907612985565b73fe1b6abc39e46cec54d275efb4b29b33be176c2a60c960006101000a81548173ffffffffffffffffffffffffffffffffffffffff021916908373ffffffffffffffffffffffffffffffffffffffff16021790555073e5242650ed4a1c0bba33204efa1ca76772a5544c60ca60006101000a81548173ffffffffffffffffffffffffffffffffffffffff021916908373ffffffffffffffffffffffffffffffffffffffff16021790555080156119d25760008060016101000a81548160ff0219169083151502179055505b50565b6119dd612785565b73ffffffffffffffffffffffffffffffffffffffff16606560009054906101000a900473ffffffffffffffffffffffffffffffffffffffff1673ffffffffffffffffffffffffffffffffffffffff1614611a9f576040517f08c379a00000000000000000000000000000000000000000000000000000000081526004018080602001828103825260208152602001807f4f776e61626c653a2063616c6c6572206973206e6f7420746865206f776e657281525060200191505060405180910390fd5b611aa7612a94565b565b6000606560009054906101000a900473ffffffffffffffffffffffffffffffffffffffff16905090565b6000609760009054906101000a900460ff1615611b58576040517f08c379a00000000000000000000000000000000000000000000000000000000081526004018080602001828103825260108152602001807f5061757361626c653a207061757365640000000000000000000000000000000081525060200191505060405180910390fd5b6000151560cc60003373ffffffffffffffffffffffffffffffffffffffff1673ffffffffffffffffffffffffffffffffffffffff1681526020019081526020016000208686604051808383808284378083019250505092505050908152602001604051809103902060009054906101000a900460ff16151514611c26576040517f08c379a000000000000000000000000000000000000000000000000000000000815260040180806020018281038252602581526020018061314f6025913960400191505060405180910390fd5b60ca60009054906101000a900473ffffffffffffffffffffffffffffffffffffffff1673ffffffffffffffffffffffffffffffffffffffff166369619aaf84846040518363ffffffff1660e01b81526004018083815260200182815260200192505050602060405180830381600087803b158015611ca357600080fd5b505af1158015611cb7573d6000803e3d6000fd5b505050506040513d6020811015611ccd57600080fd5b81019080805190602001909291905050509050600160cc60003373ffffffffffffffffffffffffffffffffffffffff1673ffffffffffffffffffffffffffffffffffffffff1681526020019081526020016000208686604051808383808284378083019250505092505050908152602001604051809103902060006101000a81548160ff021916908315150217905550611d9b600160cb878760405180838380828437808301925050509250505090815260200160405180910390206007015461278d90919063ffffffff16565b60cb86866040518083838082843780830192505050925050509081526020016040518091039020600701819055507fdcf05681b0b4a4b78da7fe70db1f88f38aca061361a405a9297b27087ec2117e858585858560405180806020018581526020018481526020018381526020018281038252878782818152602001925080828437600081840152601f19601f820116905080830192505050965050505050505060405180910390a1949350505050565b60cb818051602081018201805184825260208301602085012081835280955050505050506000915090508060000154908060010154908060020154908060030154908060040154908060050154908060060154908060070154908060080160009054906101000a900473ffffffffffffffffffffffffffffffffffffffff16905089565b60ca60009054906101000a900473ffffffffffffffffffffffffffffffffffffffff1681565b600060ca60009054906101000a900473ffffffffffffffffffffffffffffffffffffffff1673ffffffffffffffffffffffffffffffffffffffff1663afd927626040518163ffffffff1660e01b815260040160206040518083038186803b158015611f6057600080fd5b505afa158015611f74573d6000803e3d6000fd5b505050506040513d6020811015611f8a57600080fd5b8101908080519060200190929190505050905090565b611fa8612785565b73ffffffffffffffffffffffffffffffffffffffff16606560009054906101000a900473ffffffffffffffffffffffffffffffffffffffff1673ffffffffffffffffffffffffffffffffffffffff161461206a576040517f08c379a00000000000000000000000000000000000000000000000000000000081526004018080602001828103825260208152602001807f4f776e61626c653a2063616c6c6572206973206e6f7420746865206f776e657281525060200191505060405180910390fd5b600073ffffffffffffffffffffffffffffffffffffffff1660cb8484604051808383808284378083019250505092505050908152602001604051809103902060080160009054906101000a900473ffffffffffffffffffffffffffffffffffffffff1673ffffffffffffffffffffffffffffffffffffffff161415612157576040517f08c379a000000000000000000000000000000000000000000000000000000000815260040180806020018281038252601d8152602001807f70726f706f73616c206e6f74207375626d6974746564206265666f726500000081525060200191505060405180910390fd5b600060cb848460405180838380828437808301925050509250505090815260200160405180910390206006015490506001600581111561219357fe5b821480156121d65750600060058111156121a957fe5b60cb8585604051808383808284378083019250505092505050908152602001604051809103902060060154145b1561221757600160058111156121e857fe5b60cb85856040518083838082843780830192505050925050509081526020016040518091039020600601819055505b6002600581111561222457fe5b8214801561226757506001600581111561223a57fe5b60cb8585604051808383808284378083019250505092505050908152602001604051809103902060060154145b156122a8576002600581111561227957fe5b60cb85856040518083838082843780830192505050925050509081526020016040518091039020600601819055505b600360058111156122b557fe5b821480156122f85750600260058111156122cb57fe5b60cb8585604051808383808284378083019250505092505050908152602001604051809103902060060154145b15612339576003600581111561230a57fe5b60cb85856040518083838082843780830192505050925050509081526020016040518091039020600601819055505b60058081111561234557fe5b8214801561238857506000600581111561235b57fe5b60cb8585604051808383808284378083019250505092505050908152602001604051809103902060060154145b156123c85760058081111561239957fe5b60cb85856040518083838082843780830192505050925050509081526020016040518091039020600601819055505b8160cb8585604051808383808284378083019250505092505050908152602001604051809103902060060154146123fe57600080fd5b7ff9658dbe59b6548b3f6ee93ff4e3b4efa307aab6e3651c81100f53ff9afb28a384848360cb888860405180838380828437808301925050509250505090815260200160405180910390206006015460405180806020018481526020018381526020018281038252868682818152602001925080828437600081840152601f19601f8201169050808301925050509550505050505060405180910390a150505050565b6124a9612785565b73ffffffffffffffffffffffffffffffffffffffff16606560009054906101000a900473ffffffffffffffffffffffffffffffffffffffff1673ffffffffffffffffffffffffffffffffffffffff161461256b576040517f08c379a00000000000000000000000000000000000000000000000000000000081526004018080602001828103825260208152602001807f4f776e61626c653a2063616c6c6572206973206e6f7420746865206f776e657281525060200191505060405180910390fd5b600073ffffffffffffffffffffffffffffffffffffffff168173ffffffffffffffffffffffffffffffffffffffff1614156125f1576040517f08c379a00000000000000000000000000000000000000000000000000000000081526004018080602001828103825260268152602001806131296026913960400191505060405180910390fd5b8073ffffffffffffffffffffffffffffffffffffffff16606560009054906101000a900473ffffffffffffffffffffffffffffffffffffffff1673ffffffffffffffffffffffffffffffffffffffff167f8be0079c531659141344cd1fd0a4f28419497f9722a3daafe3b4186f6b6457e060405160405180910390a380606560006101000a81548173ffffffffffffffffffffffffffffffffffffffff021916908373ffffffffffffffffffffffffffffffffffffffff16021790555050565b6126b9612785565b73ffffffffffffffffffffffffffffffffffffffff16606560009054906101000a900473ffffffffffffffffffffffffffffffffffffffff1673ffffffffffffffffffffffffffffffffffffffff161461277b576040517f08c379a00000000000000000000000000000000000000000000000000000000081526004018080602001828103825260208152602001807f4f776e61626c653a2063616c6c6572206973206e6f7420746865206f776e657281525060200191505060405180910390fd5b612783612b9e565b565b600033905090565b60008082840190508381101561280b576040517f08c379a000000000000000000000000000000000000000000000000000000000815260040180806020018281038252601b8152602001807f536166654d6174683a206164646974696f6e206f766572666c6f77000000000081525060200191505060405180910390fd5b8091505092915050565b600061285783836040518060400160405280601e81526020017f536166654d6174683a207375627472616374696f6e206f766572666c6f770000815250612ca7565b905092915050565b6000803090506000813b9050600081149250505090565b600060019054906101000a900460ff1680612895575061289461285f565b5b806128ac57506000809054906101000a900460ff16155b612901576040517f08c379a000000000000000000000000000000000000000000000000000000000815260040180806020018281038252602e815260200180613174602e913960400191505060405180910390fd5b60008060019054906101000a900460ff161590508015612951576001600060016101000a81548160ff02191690831515021790555060016000806101000a81548160ff0219169083151502179055505b612959612d67565b612961612e66565b80156129825760008060016101000a81548160ff0219169083151502179055505b50565b600060019054906101000a900460ff16806129a457506129a361285f565b5b806129bb57506000809054906101000a900460ff16155b612a10576040517f08c379a000000000000000000000000000000000000000000000000000000000815260040180806020018281038252602e815260200180613174602e913960400191505060405180910390fd5b60008060019054906101000a900460ff161590508015612a60576001600060016101000a81548160ff02191690831515021790555060016000806101000a81548160ff0219169083151502179055505b612a68612d67565b612a7061300e565b8015612a915760008060016101000a81548160ff0219169083151502179055505b50565b609760009054906101000a900460ff1615612b17576040517f08c379a00000000000000000000000000000000000000000000000000000000081526004018080602001828103825260108152602001807f5061757361626c653a207061757365640000000000000000000000000000000081525060200191505060405180910390fd5b6001609760006101000a81548160ff0219169083151502179055507f62e78cea01bee320cd4e420270b5ea74000d11b0c9f74754ebdbfc544b05a258612b5b612785565b604051808273ffffffffffffffffffffffffffffffffffffffff1673ffffffffffffffffffffffffffffffffffffffff16815260200191505060405180910390a1565b609760009054906101000a900460ff16612c20576040517f08c379a00000000000000000000000000000000000000000000000000000000081526004018080602001828103825260148152602001807f5061757361626c653a206e6f742070617573656400000000000000000000000081525060200191505060405180910390fd5b6000609760006101000a81548160ff0219169083151502179055507f5db9ee0a495bf2e6ff9c91a7834c1ba4fdd244a5e8aa4e537bd38aeae4b073aa612c64612785565b604051808273ffffffffffffffffffffffffffffffffffffffff1673ffffffffffffffffffffffffffffffffffffffff16815260200191505060405180910390a1565b6000838311158290612d54576040517f08c379a00000000000000000000000000000000000000000000000000000000081526004018080602001828103825283818151815260200191508051906020019080838360005b83811015612d19578082015181840152602081019050612cfe565b50505050905090810190601f168015612d465780820380516001836020036101000a031916815260200191505b509250505060405180910390fd5b5060008385039050809150509392505050565b600060019054906101000a900460ff1680612d865750612d8561285f565b5b80612d9d57506000809054906101000a900460ff16155b612df2576040517f08c379a000000000000000000000000000000000000000000000000000000000815260040180806020018281038252602e815260200180613174602e913960400191505060405180910390fd5b60008060019054906101000a900460ff161590508015612e42576001600060016101000a81548160ff02191690831515021790555060016000806101000a81548160ff0219169083151502179055505b8015612e635760008060016101000a81548160ff0219169083151502179055505b50565b600060019054906101000a900460ff1680612e855750612e8461285f565b5b80612e9c57506000809054906101000a900460ff16155b612ef1576040517f08c379a000000000000000000000000000000000000000000000000000000000815260040180806020018281038252602e815260200180613174602e913960400191505060405180910390fd5b60008060019054906101000a900460ff161590508015612f41576001600060016101000a81548160ff02191690831515021790555060016000806101000a81548160ff0219169083151502179055505b6000612f4b612785565b905080606560006101000a81548173ffffffffffffffffffffffffffffffffffffffff021916908373ffffffffffffffffffffffffffffffffffffffff1602179055508073ffffffffffffffffffffffffffffffffffffffff16600073ffffffffffffffffffffffffffffffffffffffff167f8be0079c531659141344cd1fd0a4f28419497f9722a3daafe3b4186f6b6457e060405160405180910390a350801561300b5760008060016101000a81548160ff0219169083151502179055505b50565b600060019054906101000a900460ff168061302d575061302c61285f565b5b8061304457506000809054906101000a900460ff16155b613099576040517f08c379a000000000000000000000000000000000000000000000000000000000815260040180806020018281038252602e815260200180613174602e913960400191505060405180910390fd5b60008060019054906101000a900460ff1615905080156130e9576001600060016101000a81548160ff02191690831515021790555060016000806101000a81548160ff0219169083151502179055505b6000609760006101000a81548160ff02191690831515021790555080156131255760008060016101000a81548160ff0219169083151502179055505b5056fe4f776e61626c653a206e6577206f776e657220697320746865207a65726f2061646472657373616c7265616479207374616b6564206f6e636520666f7220746869732070726f706f73616c436f6e747261637420696e7374616e63652068617320616c7265616479206265656e20696e697469616c697a6564a264697066735822122003ec579335634ba799f26c7d2c3f49d0dd65e425316e4f589b45e922a907617564736f6c634300060b0033",
  "compiler": {
    "name": "solc",
    "version": "0.6.11+commit.5ef660b1.Emscripten.clang",
    "optimizer": {
      "enabled": false,
      "runs": 200
    },
    "evmVersion": "petersburg"
  }
}