{
  "fileName": "DaoSmartContract.sol",
  "contractName": "DaoSmartContract",
  "source": "pragma solidity ^0.6.0;\nimport \"@openzeppelin/contracts-ethereum-package/contracts/Initializable.sol\";\nimport \"@openzeppelin/contracts-ethereum-package/contracts/access/Ownable.sol\";\nimport \"@openzeppelin/contracts-ethereum-package/contracts/utils/Pausable.sol\";\nimport \"@openzeppelin/contracts-ethereum-package/contracts/math/SafeMath.sol\";\nimport \"@openzeppelin/contracts-ethereum-package/contracts/token/ERC20/IERC20.sol\";\nimport \"./DaoStakeInterface.sol\";\n\ncontract DaoSmartContract is OwnableUpgradeSafe, PausableUpgradeSafe {\n    // Library for safely handling uint256\n    using SafeMath for uint256;\n\n    enum Status {PENDING, UPVOTE, VOTING, ACTIVE, COMPLETED, REJECTED}\n    // 0 -> pending\n    // 1 -> upvote\n    // 2 -> voting\n    // 3 -> active\n    // 4 -> completed\n    // 5 -> rejected\n    address public phnxContractAddress;\n    address public phnxStakingContractAddress;\n    \n\n    //uint256 public rewardAmount;\n    uint256 public collateralAmount;\n    // address public phnxStakingContractAddress;\n    mapping(string => Proposal) public proposalList;\n    // mapping(address => mapping(string => bool)) public votes;\n    struct Proposal {\n        uint256 fundsRequested;\n        uint256 initiationTimestamp;\n        uint256 completionTimestamp;\n        uint256 colletralAmount;\n        uint256 totalMilestones;\n        uint256 completedMilestones;\n        uint256 status;\n        uint256 totalVotes;\n        address proposer;\n    }\n\n    event ProposalSubmitted(\n        string _Id,\n        uint256 fundsRequested,\n        uint256 initiationTimestamp,\n        uint256 completionTimestamp,\n        uint256 colletralAmount,\n        uint256 totalMilestones,\n        uint256 status,\n        uint256 totalVotes,\n        address proposer\n    );\n\n        event ProposalEditted(\n        string _Id,\n        uint256 fundsRequested,\n        uint256 initiationTimestamp,\n        uint256 completionTimestamp,\n        uint256 colletralAmount,\n        uint256 totalMilestones,\n        uint256 status,\n        uint256 totalVotes,\n        address proposer\n    );\n    event ProposalStatusUpdated(\n        string _proposalId,\n        uint256 _previousStatus,\n        uint256 _newStatus\n    );\n    event FundsReleased(\n        string _proposalId,\n        uint256 _amountReleased,\n        address _admin\n    );\n    event CollateralDeposited(\n        string _proposalId,\n        uint256 _collateralAmount,\n        address _proposer\n    );\n    event ColleteralWithdrawn(\n        string _proposalId,\n        uint256 _collateralAmount,\n        address _proposer\n    );\n    // event Voted(\n    //     string _proposalId,\n    //     uint256 altQuantity,\n    //     uint256 _days,\n    //     uint256 rewardAmount\n    // );\n    event CompletedMilestone(\n        string _proposalId,\n        uint256 _completedMilestones\n    );\n\n    function initialize(address _phoenixContractAddress, address _phnxStakingContractAddress) external initializer {\n        OwnableUpgradeSafe.__Ownable_init();\n        PausableUpgradeSafe.__Pausable_init();\n        // phnxContractAddress = 0xfe1b6ABc39E46cEc54d275efB4b29B33be176c2A;\n        phnxContractAddress = _phoenixContractAddress;\n        phnxStakingContractAddress = _phnxStakingContractAddress;\n        // phnxStakingContractAddress = 0xe5242650Ed4a1C0bBa33204Efa1ca76772a5544C;\n        \n    }\n\n    function updateProposal(\n        uint256 fundsRequested,\n        uint256 endTimestamp,\n        uint256 colletralAmount,\n        uint256 totalMilestones,\n        string calldata _proposalId\n    ) public whenNotPaused {\n        require(proposalList[_proposalId].proposer != address(0),\"This proposal Does not exist\");\n        require(proposalList[_proposalId].proposer == msg.sender,\"Only Owner of propsal can edit this propsal\");\n        proposalList[_proposalId] = Proposal(\n            fundsRequested,\n            0,\n            endTimestamp,\n            colletralAmount,\n            totalMilestones,\n            0,\n            0, //status\n            0,\n            msg.sender\n        );\n        emit ProposalEditted(\n            _proposalId,\n            proposalList[_proposalId].fundsRequested,\n            proposalList[_proposalId].initiationTimestamp,\n            proposalList[_proposalId].completionTimestamp,\n            proposalList[_proposalId].colletralAmount,\n            proposalList[_proposalId].totalMilestones,\n            proposalList[_proposalId].status,\n            proposalList[_proposalId].totalVotes,\n            proposalList[_proposalId].proposer\n        );\n    }\n\n\n\n\n    function submitProposal(\n        uint256 fundsRequested,\n        uint256 endTimestamp,\n        uint256 colletralAmount,\n        uint256 totalMilestones,\n        string calldata _proposalId\n    ) public whenNotPaused {\n        require(\n            proposalList[_proposalId].proposer == address(0),\n            \"Proposal already submitted\"\n        );\n        proposalList[_proposalId] = Proposal(\n            fundsRequested,\n            0,\n            endTimestamp,\n            colletralAmount,\n            totalMilestones,\n            0,\n            0, //status\n            0,\n            msg.sender\n        );\n        emit ProposalSubmitted(\n            _proposalId,\n            proposalList[_proposalId].fundsRequested,\n            proposalList[_proposalId].initiationTimestamp,\n            proposalList[_proposalId].completionTimestamp,\n            proposalList[_proposalId].colletralAmount,\n            proposalList[_proposalId].totalMilestones,\n            proposalList[_proposalId].status,\n            proposalList[_proposalId].totalVotes,\n            proposalList[_proposalId].proposer\n        );\n    }\n\n    // function stake(\n    //     string calldata _proposalId,\n    //     uint256 _altQuantity,\n    //     uint256 _days\n    // ) public whenNotPaused returns (uint256 rewardAmount) {\n    //     require(\n    //         votes[msg.sender][_proposalId] == false,\n    //         \"already staked once for this proposal\"\n    //     );\n    //     rewardAmount = DaoStakeContract(phnxStakingContractAddress).stakeALT(\n    //         _altQuantity,\n    //         _days\n    //     );\n    //     votes[msg.sender][_proposalId] = true;\n    //     proposalList[_proposalId].totalVotes = proposalList[_proposalId]\n    //         .totalVotes\n    //         .add(1);\n    //     emit Voted(_proposalId, _altQuantity, _days, rewardAmount);\n    // }\n\n    function withdrawCollateral(string calldata _proposalId)\n        public\n        whenNotPaused\n    {\n        require(\n            proposalList[_proposalId].status == uint256(Status.COMPLETED),\n            \"Project status not completed\"\n        );\n        IERC20(phnxContractAddress).transfer(\n            msg.sender,\n            proposalList[_proposalId].colletralAmount\n        );\n        collateralAmount=collateralAmount.sub(proposalList[_proposalId].colletralAmount);\n        //rewardAmount=IERC20(phnxContractAddress).balanceOf(address(this)).sub(collateralAmount);\n        \n        emit ColleteralWithdrawn(\n            _proposalId,\n            proposalList[_proposalId].colletralAmount,\n            msg.sender\n        );\n    }\n\n    function updateProposalStatus(string calldata _proposalId, uint256 _status)\n        public\n        onlyOwners\n    {\n        require(\n            proposalList[_proposalId].proposer != address(0),\n            \"proposal not submitted before\"\n        );\n        uint256 oldStatus = proposalList[_proposalId].status;\n        if (\n            _status == uint256(Status.UPVOTE) &&\n            proposalList[_proposalId].status == uint256(Status.PENDING)\n        ) {\n            proposalList[_proposalId].status = uint256(Status.UPVOTE);\n            IERC20(phnxContractAddress).transferFrom(\n                proposalList[_proposalId].proposer,\n                address(this),\n                proposalList[_proposalId].colletralAmount\n            );\n            collateralAmount=collateralAmount.add(proposalList[_proposalId].colletralAmount);\n            //rewardAmount=address(this).balance.sub(collateralAmount);\n            //\n        }\n\n        if (\n            _status == uint256(Status.VOTING) &&\n            proposalList[_proposalId].status == uint256(Status.UPVOTE)\n        ) {\n            proposalList[_proposalId].status = uint256(Status.VOTING);\n        }\n        if (\n            _status == uint256(Status.ACTIVE) &&\n            proposalList[_proposalId].status == uint256(Status.VOTING)\n        ) {\n            proposalList[_proposalId].status = uint256(Status.ACTIVE);\n            proposalList[_proposalId].initiationTimestamp=block.timestamp;\n        }\n        if (\n            _status == uint256(Status.REJECTED) &&\n            proposalList[_proposalId].status == uint256(Status.PENDING)\n        ) {\n            proposalList[_proposalId].status = uint256(Status.REJECTED);\n        }\n\n        if (\n            _status == uint256(Status.COMPLETED) &&\n            proposalList[_proposalId].status == uint256(Status.ACTIVE)\n        ) {\n            proposalList[_proposalId].status = uint256(Status.COMPLETED);\n        }\n\n        require(proposalList[_proposalId].status == _status, \"Status updated\");\n        emit ProposalStatusUpdated(\n            _proposalId,\n            oldStatus,\n            proposalList[_proposalId].status\n        );\n    }\n\n    function issueFunds(\n        string calldata _proposalId,\n        uint256 _amount\n    ) public onlyOwners {\n\n        require(proposalList[_proposalId].status == uint256(Status.ACTIVE), \"status not active\");\n\n        if (proposalList[_proposalId].fundsRequested != 0) {\n            IERC20(phnxContractAddress).transfer(\n                proposalList[_proposalId].proposer,\n                _amount\n            );\n            //rewardAmount=rewardAmount.sub(_amount);\n            proposalList[_proposalId]\n                .completedMilestones = proposalList[_proposalId]\n                .completedMilestones\n                .add(1);\n            proposalList[_proposalId].fundsRequested = proposalList[_proposalId]\n                .fundsRequested\n                .sub(_amount);\n        }\n        emit CompletedMilestone(\n            _proposalId,\n            proposalList[_proposalId].completedMilestones\n        );\n\n        if (proposalList[_proposalId].fundsRequested == 0) {\n            uint256 oldStatus = proposalList[_proposalId].status;\n            proposalList[_proposalId].status = uint256(Status.COMPLETED);\n            emit ProposalStatusUpdated(\n                _proposalId,\n                oldStatus,\n                proposalList[_proposalId].status\n            );\n        }\n\n        emit FundsReleased(_proposalId, _amount, msg.sender);\n    }\n\n    function getBaseInterest() public view returns (uint256) {\n        return (\n            DaoStakeContract(phnxStakingContractAddress).baseInterestRate()\n        );\n    }\n\n    function pause() public onlyOwners {\n        _pause();\n    }\n\n    function unPause() public onlyOwners {\n        _unpause();\n    }\n}\n\n\n ",
  "sourcePath": "contracts/DaoSmartContract.sol",
  "abi": [
    {
      "anonymous": false,
      "inputs": [
        {
          "indexed": true,
          "internalType": "address",
          "name": "newOwner",
          "type": "address"
        }
      ],
      "name": "AddedSubOwner",
      "type": "event"
    },
    {
      "anonymous": false,
      "inputs": [
        {
          "indexed": false,
          "internalType": "string",
          "name": "_proposalId",
          "type": "string"
        },
        {
          "indexed": false,
          "internalType": "uint256",
          "name": "_collateralAmount",
          "type": "uint256"
        },
        {
          "indexed": false,
          "internalType": "address",
          "name": "_proposer",
          "type": "address"
        }
      ],
      "name": "CollateralDeposited",
      "type": "event"
    },
    {
      "anonymous": false,
      "inputs": [
        {
          "indexed": false,
          "internalType": "string",
          "name": "_proposalId",
          "type": "string"
        },
        {
          "indexed": false,
          "internalType": "uint256",
          "name": "_collateralAmount",
          "type": "uint256"
        },
        {
          "indexed": false,
          "internalType": "address",
          "name": "_proposer",
          "type": "address"
        }
      ],
      "name": "ColleteralWithdrawn",
      "type": "event"
    },
    {
      "anonymous": false,
      "inputs": [
        {
          "indexed": false,
          "internalType": "string",
          "name": "_proposalId",
          "type": "string"
        },
        {
          "indexed": false,
          "internalType": "uint256",
          "name": "_completedMilestones",
          "type": "uint256"
        }
      ],
      "name": "CompletedMilestone",
      "type": "event"
    },
    {
      "anonymous": false,
      "inputs": [
        {
          "indexed": false,
          "internalType": "string",
          "name": "_proposalId",
          "type": "string"
        },
        {
          "indexed": false,
          "internalType": "uint256",
          "name": "_amountReleased",
          "type": "uint256"
        },
        {
          "indexed": false,
          "internalType": "address",
          "name": "_admin",
          "type": "address"
        }
      ],
      "name": "FundsReleased",
      "type": "event"
    },
    {
      "anonymous": false,
      "inputs": [
        {
          "indexed": true,
          "internalType": "address",
          "name": "previousOwner",
          "type": "address"
        },
        {
          "indexed": true,
          "internalType": "address",
          "name": "newOwner",
          "type": "address"
        }
      ],
      "name": "OwnershipTransferred",
      "type": "event"
    },
    {
      "anonymous": false,
      "inputs": [
        {
          "indexed": false,
          "internalType": "address",
          "name": "account",
          "type": "address"
        }
      ],
      "name": "Paused",
      "type": "event"
    },
    {
      "anonymous": false,
      "inputs": [
        {
          "indexed": false,
          "internalType": "string",
          "name": "_Id",
          "type": "string"
        },
        {
          "indexed": false,
          "internalType": "uint256",
          "name": "fundsRequested",
          "type": "uint256"
        },
        {
          "indexed": false,
          "internalType": "uint256",
          "name": "initiationTimestamp",
          "type": "uint256"
        },
        {
          "indexed": false,
          "internalType": "uint256",
          "name": "completionTimestamp",
          "type": "uint256"
        },
        {
          "indexed": false,
          "internalType": "uint256",
          "name": "colletralAmount",
          "type": "uint256"
        },
        {
          "indexed": false,
          "internalType": "uint256",
          "name": "totalMilestones",
          "type": "uint256"
        },
        {
          "indexed": false,
          "internalType": "uint256",
          "name": "status",
          "type": "uint256"
        },
        {
          "indexed": false,
          "internalType": "uint256",
          "name": "totalVotes",
          "type": "uint256"
        },
        {
          "indexed": false,
          "internalType": "address",
          "name": "proposer",
          "type": "address"
        }
      ],
      "name": "ProposalEditted",
      "type": "event"
    },
    {
      "anonymous": false,
      "inputs": [
        {
          "indexed": false,
          "internalType": "string",
          "name": "_proposalId",
          "type": "string"
        },
        {
          "indexed": false,
          "internalType": "uint256",
          "name": "_previousStatus",
          "type": "uint256"
        },
        {
          "indexed": false,
          "internalType": "uint256",
          "name": "_newStatus",
          "type": "uint256"
        }
      ],
      "name": "ProposalStatusUpdated",
      "type": "event"
    },
    {
      "anonymous": false,
      "inputs": [
        {
          "indexed": false,
          "internalType": "string",
          "name": "_Id",
          "type": "string"
        },
        {
          "indexed": false,
          "internalType": "uint256",
          "name": "fundsRequested",
          "type": "uint256"
        },
        {
          "indexed": false,
          "internalType": "uint256",
          "name": "initiationTimestamp",
          "type": "uint256"
        },
        {
          "indexed": false,
          "internalType": "uint256",
          "name": "completionTimestamp",
          "type": "uint256"
        },
        {
          "indexed": false,
          "internalType": "uint256",
          "name": "colletralAmount",
          "type": "uint256"
        },
        {
          "indexed": false,
          "internalType": "uint256",
          "name": "totalMilestones",
          "type": "uint256"
        },
        {
          "indexed": false,
          "internalType": "uint256",
          "name": "status",
          "type": "uint256"
        },
        {
          "indexed": false,
          "internalType": "uint256",
          "name": "totalVotes",
          "type": "uint256"
        },
        {
          "indexed": false,
          "internalType": "address",
          "name": "proposer",
          "type": "address"
        }
      ],
      "name": "ProposalSubmitted",
      "type": "event"
    },
    {
      "anonymous": false,
      "inputs": [
        {
          "indexed": true,
          "internalType": "address",
          "name": "newOwner",
          "type": "address"
        }
      ],
      "name": "RemovedSubOwner",
      "type": "event"
    },
    {
      "anonymous": false,
      "inputs": [
        {
          "indexed": false,
          "internalType": "address",
          "name": "account",
          "type": "address"
        }
      ],
      "name": "Unpaused",
      "type": "event"
    },
    {
      "inputs": [
        {
          "internalType": "address",
          "name": "newOwner",
          "type": "address"
        }
      ],
      "name": "addOwner",
      "outputs": [],
      "stateMutability": "nonpayable",
      "type": "function"
    },
    {
      "inputs": [],
      "name": "collateralAmount",
      "outputs": [
        {
          "internalType": "uint256",
          "name": "",
          "type": "uint256"
        }
      ],
      "stateMutability": "view",
      "type": "function"
    },
    {
      "inputs": [],
      "name": "getBaseInterest",
      "outputs": [
        {
          "internalType": "uint256",
          "name": "",
          "type": "uint256"
        }
      ],
      "stateMutability": "view",
      "type": "function"
    },
    {
      "inputs": [
        {
          "internalType": "address",
          "name": "_phoenixContractAddress",
          "type": "address"
        },
        {
          "internalType": "address",
          "name": "_phnxStakingContractAddress",
          "type": "address"
        }
      ],
      "name": "initialize",
      "outputs": [],
      "stateMutability": "nonpayable",
      "type": "function"
    },
    {
      "inputs": [
        {
          "internalType": "address",
          "name": "",
          "type": "address"
        }
      ],
      "name": "isOwner",
      "outputs": [
        {
          "internalType": "bool",
          "name": "",
          "type": "bool"
        }
      ],
      "stateMutability": "view",
      "type": "function"
    },
    {
      "inputs": [
        {
          "internalType": "string",
          "name": "_proposalId",
          "type": "string"
        },
        {
          "internalType": "uint256",
          "name": "_amount",
          "type": "uint256"
        }
      ],
      "name": "issueFunds",
      "outputs": [],
      "stateMutability": "nonpayable",
      "type": "function"
    },
    {
      "inputs": [],
      "name": "owner",
      "outputs": [
        {
          "internalType": "address",
          "name": "",
          "type": "address"
        }
      ],
      "stateMutability": "view",
      "type": "function"
    },
    {
      "inputs": [],
      "name": "pause",
      "outputs": [],
      "stateMutability": "nonpayable",
      "type": "function"
    },
    {
      "inputs": [],
      "name": "paused",
      "outputs": [
        {
          "internalType": "bool",
          "name": "",
          "type": "bool"
        }
      ],
      "stateMutability": "view",
      "type": "function"
    },
    {
      "inputs": [],
      "name": "phnxContractAddress",
      "outputs": [
        {
          "internalType": "address",
          "name": "",
          "type": "address"
        }
      ],
      "stateMutability": "view",
      "type": "function"
    },
    {
      "inputs": [],
      "name": "phnxStakingContractAddress",
      "outputs": [
        {
          "internalType": "address",
          "name": "",
          "type": "address"
        }
      ],
      "stateMutability": "view",
      "type": "function"
    },
    {
      "inputs": [
        {
          "internalType": "string",
          "name": "",
          "type": "string"
        }
      ],
      "name": "proposalList",
      "outputs": [
        {
          "internalType": "uint256",
          "name": "fundsRequested",
          "type": "uint256"
        },
        {
          "internalType": "uint256",
          "name": "initiationTimestamp",
          "type": "uint256"
        },
        {
          "internalType": "uint256",
          "name": "completionTimestamp",
          "type": "uint256"
        },
        {
          "internalType": "uint256",
          "name": "colletralAmount",
          "type": "uint256"
        },
        {
          "internalType": "uint256",
          "name": "totalMilestones",
          "type": "uint256"
        },
        {
          "internalType": "uint256",
          "name": "completedMilestones",
          "type": "uint256"
        },
        {
          "internalType": "uint256",
          "name": "status",
          "type": "uint256"
        },
        {
          "internalType": "uint256",
          "name": "totalVotes",
          "type": "uint256"
        },
        {
          "internalType": "address",
          "name": "proposer",
          "type": "address"
        }
      ],
      "stateMutability": "view",
      "type": "function"
    },
    {
      "inputs": [
        {
          "internalType": "address",
          "name": "_subOwner",
          "type": "address"
        }
      ],
      "name": "removeOwner",
      "outputs": [],
      "stateMutability": "nonpayable",
      "type": "function"
    },
    {
      "inputs": [],
      "name": "renounceOwnership",
      "outputs": [],
      "stateMutability": "nonpayable",
      "type": "function"
    },
    {
      "inputs": [
        {
          "internalType": "uint256",
          "name": "fundsRequested",
          "type": "uint256"
        },
        {
          "internalType": "uint256",
          "name": "endTimestamp",
          "type": "uint256"
        },
        {
          "internalType": "uint256",
          "name": "colletralAmount",
          "type": "uint256"
        },
        {
          "internalType": "uint256",
          "name": "totalMilestones",
          "type": "uint256"
        },
        {
          "internalType": "string",
          "name": "_proposalId",
          "type": "string"
        }
      ],
      "name": "submitProposal",
      "outputs": [],
      "stateMutability": "nonpayable",
      "type": "function"
    },
    {
      "inputs": [
        {
          "internalType": "address",
          "name": "newOwner",
          "type": "address"
        }
      ],
      "name": "transferOwnership",
      "outputs": [],
      "stateMutability": "nonpayable",
      "type": "function"
    },
    {
      "inputs": [],
      "name": "unPause",
      "outputs": [],
      "stateMutability": "nonpayable",
      "type": "function"
    },
    {
      "inputs": [
        {
          "internalType": "uint256",
          "name": "fundsRequested",
          "type": "uint256"
        },
        {
          "internalType": "uint256",
          "name": "endTimestamp",
          "type": "uint256"
        },
        {
          "internalType": "uint256",
          "name": "colletralAmount",
          "type": "uint256"
        },
        {
          "internalType": "uint256",
          "name": "totalMilestones",
          "type": "uint256"
        },
        {
          "internalType": "string",
          "name": "_proposalId",
          "type": "string"
        }
      ],
      "name": "updateProposal",
      "outputs": [],
      "stateMutability": "nonpayable",
      "type": "function"
    },
    {
      "inputs": [
        {
          "internalType": "string",
          "name": "_proposalId",
          "type": "string"
        },
        {
          "internalType": "uint256",
          "name": "_status",
          "type": "uint256"
        }
      ],
      "name": "updateProposalStatus",
      "outputs": [],
      "stateMutability": "nonpayable",
      "type": "function"
    },
    {
      "inputs": [
        {
          "internalType": "string",
          "name": "_proposalId",
          "type": "string"
        }
      ],
      "name": "withdrawCollateral",
      "outputs": [],
      "stateMutability": "nonpayable",
      "type": "function"
    }
  ],
  "bytecode": "0x608060405234801561001057600080fd5b50613876806100206000396000f3fe608060405234801561001057600080fd5b506004361061012c5760003560e01c80638456cb59116100ad578063d132c99b11610071578063d132c99b1461068c578063d4749e85146106c0578063efe12857146106de578063f2fde38b14610761578063f7b188a5146107a55761012c565b80638456cb59146104725780638da5cb5b1461047c57806392d09ceb146104b057806397c4edc6146104ce578063c3e8d3e81461056f5761012c565b806351b0ac53116100f457806351b0ac53146102e05780635c975abb146103635780637065cb4814610383578063715018a6146103c757806372d64f50146103d15761012c565b8063024d968214610131578063173825d9146101aa57806326f6e1d8146101ee5780632f54bf6e14610222578063485cc9551461027c575b600080fd5b6101a86004803603602081101561014757600080fd5b810190808035906020019064010000000081111561016457600080fd5b82018360208201111561017657600080fd5b8035906020019184600183028401116401000000008311171561019857600080fd5b90919293919293905050506107af565b005b6101ec600480360360208110156101c057600080fd5b81019080803573ffffffffffffffffffffffffffffffffffffffff169060200190929190505050610ad2565b005b6101f6610c1d565b604051808273ffffffffffffffffffffffffffffffffffffffff16815260200191505060405180910390f35b6102646004803603602081101561023857600080fd5b81019080803573ffffffffffffffffffffffffffffffffffffffff169060200190929190505050610c43565b60405180821515815260200191505060405180910390f35b6102de6004803603604081101561029257600080fd5b81019080803573ffffffffffffffffffffffffffffffffffffffff169060200190929190803573ffffffffffffffffffffffffffffffffffffffff169060200190929190505050610c63565b005b610361600480360360408110156102f657600080fd5b810190808035906020019064010000000081111561031357600080fd5b82018360208201111561032557600080fd5b8035906020019184600183028401116401000000008311171561034757600080fd5b909192939192939080359060200190929190505050610df5565b005b61036b6113cb565b60405180821515815260200191505060405180910390f35b6103c56004803603602081101561039957600080fd5b81019080803573ffffffffffffffffffffffffffffffffffffffff1690602001909291905050506113e2565b005b6103cf61152d565b005b610470600480360360a08110156103e757600080fd5b81019080803590602001909291908035906020019092919080359060200190929190803590602001909291908035906020019064010000000081111561042c57600080fd5b82018360208201111561043e57600080fd5b8035906020019184600183028401116401000000008311171561046057600080fd5b909192939192939050505061169b565b005b61047a611b57565b005b610484611c0a565b604051808273ffffffffffffffffffffffffffffffffffffffff16815260200191505060405180910390f35b6104b8611c34565b6040518082815260200191505060405180910390f35b61056d600480360360a08110156104e457600080fd5b81019080803590602001909291908035906020019092919080359060200190929190803590602001909291908035906020019064010000000081111561052957600080fd5b82018360208201111561053b57600080fd5b8035906020019184600183028401116401000000008311171561055d57600080fd5b9091929391929390505050611c3a565b005b6106286004803603602081101561058557600080fd5b81019080803590602001906401000000008111156105a257600080fd5b8201836020820111156105b457600080fd5b803590602001918460018302840111640100000000831117156105d657600080fd5b91908080601f016020809104026020016040519081016040528093929190818152602001838380828437600081840152601f19601f8201169050808301925050505050505091929192905050506121c5565b604051808a81526020018981526020018881526020018781526020018681526020018581526020018481526020018381526020018273ffffffffffffffffffffffffffffffffffffffff168152602001995050505050505050505060405180910390f35b610694612249565b604051808273ffffffffffffffffffffffffffffffffffffffff16815260200191505060405180910390f35b6106c861226f565b6040518082815260200191505060405180910390f35b61075f600480360360408110156106f457600080fd5b810190808035906020019064010000000081111561071157600080fd5b82018360208201111561072357600080fd5b8035906020019184600183028401116401000000008311171561074557600080fd5b909192939192939080359060200190929190505050612319565b005b6107a36004803603602081101561077757600080fd5b81019080803573ffffffffffffffffffffffffffffffffffffffff169060200190929190505050612ac8565b005b6107ad612cbb565b005b609860009054906101000a900460ff1615610832576040517f08c379a00000000000000000000000000000000000000000000000000000000081526004018080602001828103825260108152602001807f5061757361626c653a207061757365640000000000000000000000000000000081525060200191505060405180910390fd5b6004600581111561083f57fe5b60cd8383604051808383808284378083019250505092505050908152602001604051809103902060060154146108dd576040517f08c379a000000000000000000000000000000000000000000000000000000000815260040180806020018281038252601c8152602001807f50726f6a65637420737461747573206e6f7420636f6d706c657465640000000081525060200191505060405180910390fd5b60ca60009054906101000a900473ffffffffffffffffffffffffffffffffffffffff1673ffffffffffffffffffffffffffffffffffffffff1663a9059cbb3360cd85856040518083838082843780830192505050925050509081526020016040518091039020600301546040518363ffffffff1660e01b8152600401808373ffffffffffffffffffffffffffffffffffffffff16815260200182815260200192505050602060405180830381600087803b15801561099a57600080fd5b505af11580156109ae573d6000803e3d6000fd5b505050506040513d60208110156109c457600080fd5b810190808051906020019092919050505050610a1560cd838360405180838380828437808301925050509250505090815260200160405180910390206003015460cc54612d6e90919063ffffffff16565b60cc819055507f77c5403ea341a227f7fa5aae3a28dd3a3f593549812f92a335e7abe2aba99350828260cd85856040518083838082843780830192505050925050509081526020016040518091039020600301543360405180806020018481526020018373ffffffffffffffffffffffffffffffffffffffff1681526020018281038252868682818152602001925080828437600081840152601f19601f8201169050808301925050509550505050505060405180910390a15050565b610ada612db8565b73ffffffffffffffffffffffffffffffffffffffff16606560009054906101000a900473ffffffffffffffffffffffffffffffffffffffff1673ffffffffffffffffffffffffffffffffffffffff1614610b7f576040517f08c379a000000000000000000000000000000000000000000000000000000000815260040180806020018281038252602581526020018061379b6025913960400191505060405180910390fd5b6000606660008373ffffffffffffffffffffffffffffffffffffffff1673ffffffffffffffffffffffffffffffffffffffff16815260200190815260200160002060006101000a81548160ff0219169083151502179055508073ffffffffffffffffffffffffffffffffffffffff167fc4adbb71fb21387c352881f205be328ff9125ae4c658ed8dcbe960a47dbf515a60405160405180910390a250565b60ca60009054906101000a900473ffffffffffffffffffffffffffffffffffffffff1681565b60666020528060005260406000206000915054906101000a900460ff1681565b600060019054906101000a900460ff1680610c825750610c81612dc0565b5b80610c98575060008054906101000a900460ff16155b610ced576040517f08c379a000000000000000000000000000000000000000000000000000000000815260040180806020018281038252602e815260200180613813602e913960400191505060405180910390fd5b60008060019054906101000a900460ff161590508015610d3d576001600060016101000a81548160ff02191690831515021790555060016000806101000a81548160ff0219169083151502179055505b610d45612dd7565b610d4d612ee5565b8260ca60006101000a81548173ffffffffffffffffffffffffffffffffffffffff021916908373ffffffffffffffffffffffffffffffffffffffff1602179055508160cb60006101000a81548173ffffffffffffffffffffffffffffffffffffffff021916908373ffffffffffffffffffffffffffffffffffffffff1602179055508015610df05760008060016101000a81548160ff0219169083151502179055505b505050565b60666000610e01612db8565b73ffffffffffffffffffffffffffffffffffffffff1673ffffffffffffffffffffffffffffffffffffffff16815260200190815260200160002060009054906101000a900460ff16610e9e576040517f08c379a00000000000000000000000000000000000000000000000000000000081526004018080602001828103825260288152602001806137c06028913960400191505060405180910390fd5b60036005811115610eab57fe5b60cd848460405180838380828437808301925050509250505090815260200160405180910390206006015414610f49576040517f08c379a00000000000000000000000000000000000000000000000000000000081526004018080602001828103825260118152602001807f737461747573206e6f742061637469766500000000000000000000000000000081525060200191505060405180910390fd5b600060cd84846040518083838082843780830192505050925050509081526020016040518091039020600001541461116c5760ca60009054906101000a900473ffffffffffffffffffffffffffffffffffffffff1673ffffffffffffffffffffffffffffffffffffffff1663a9059cbb60cd8585604051808383808284378083019250505092505050908152602001604051809103902060080160009054906101000a900473ffffffffffffffffffffffffffffffffffffffff16836040518363ffffffff1660e01b8152600401808373ffffffffffffffffffffffffffffffffffffffff16815260200182815260200192505050602060405180830381600087803b15801561105857600080fd5b505af115801561106c573d6000803e3d6000fd5b505050506040513d602081101561108257600080fd5b8101908080519060200190929190505050506110d2600160cd8585604051808383808284378083019250505092505050908152602001604051809103902060050154612ff390919063ffffffff16565b60cd848460405180838380828437808301925050509250505090815260200160405180910390206005018190555061113d8160cd8585604051808383808284378083019250505092505050908152602001604051809103902060000154612d6e90919063ffffffff16565b60cd84846040518083838082843780830192505050925050509081526020016040518091039020600001819055505b7f07c0f8627f52eac398278b36575bc51466cea758894db577ecb8909258f7216f838360cd868660405180838380828437808301925050509250505090815260200160405180910390206005015460405180806020018381526020018281038252858582818152602001925080828437600081840152601f19601f82011690508083019250505094505050505060405180910390a1600060cd8484604051808383808284378083019250505092505050908152602001604051809103902060000154141561133d57600060cd848460405180838380828437808301925050509250505090815260200160405180910390206006015490506004600581111561127057fe5b60cd85856040518083838082843780830192505050925050509081526020016040518091039020600601819055507ff9658dbe59b6548b3f6ee93ff4e3b4efa307aab6e3651c81100f53ff9afb28a384848360cd888860405180838380828437808301925050509250505090815260200160405180910390206006015460405180806020018481526020018381526020018281038252868682818152602001925080828437600081840152601f19601f8201169050808301925050509550505050505060405180910390a1505b7f1c9e505ffb5c247ffafa3e828925cca19ad22048d194cb93bcf5ddc3ce1601078383833360405180806020018481526020018373ffffffffffffffffffffffffffffffffffffffff1681526020018281038252868682818152602001925080828437600081840152601f19601f8201169050808301925050509550505050505060405180910390a1505050565b6000609860009054906101000a900460ff16905090565b6113ea612db8565b73ffffffffffffffffffffffffffffffffffffffff16606560009054906101000a900473ffffffffffffffffffffffffffffffffffffffff1673ffffffffffffffffffffffffffffffffffffffff161461148f576040517f08c379a000000000000000000000000000000000000000000000000000000000815260040180806020018281038252602581526020018061379b6025913960400191505060405180910390fd5b6001606660008373ffffffffffffffffffffffffffffffffffffffff1673ffffffffffffffffffffffffffffffffffffffff16815260200190815260200160002060006101000a81548160ff0219169083151502179055508073ffffffffffffffffffffffffffffffffffffffff167f76af71f00bdefe934d8091c1c072a3cfb98d86d4c9928629512230c11ce4250c60405160405180910390a250565b611535612db8565b73ffffffffffffffffffffffffffffffffffffffff16606560009054906101000a900473ffffffffffffffffffffffffffffffffffffffff1673ffffffffffffffffffffffffffffffffffffffff16146115da576040517f08c379a000000000000000000000000000000000000000000000000000000000815260040180806020018281038252602581526020018061379b6025913960400191505060405180910390fd5b600073ffffffffffffffffffffffffffffffffffffffff16606560009054906101000a900473ffffffffffffffffffffffffffffffffffffffff1673ffffffffffffffffffffffffffffffffffffffff167f8be0079c531659141344cd1fd0a4f28419497f9722a3daafe3b4186f6b6457e060405160405180910390a36000606560006101000a81548173ffffffffffffffffffffffffffffffffffffffff021916908373ffffffffffffffffffffffffffffffffffffffff160217905550565b609860009054906101000a900460ff161561171e576040517f08c379a00000000000000000000000000000000000000000000000000000000081526004018080602001828103825260108152602001807f5061757361626c653a207061757365640000000000000000000000000000000081525060200191505060405180910390fd5b600073ffffffffffffffffffffffffffffffffffffffff1660cd8383604051808383808284378083019250505092505050908152602001604051809103902060080160009054906101000a900473ffffffffffffffffffffffffffffffffffffffff1673ffffffffffffffffffffffffffffffffffffffff161461180a576040517f08c379a000000000000000000000000000000000000000000000000000000000815260040180806020018281038252601a8152602001807f50726f706f73616c20616c7265616479207375626d697474656400000000000081525060200191505060405180910390fd5b604051806101200160405280878152602001600081526020018681526020018581526020018481526020016000815260200160008152602001600081526020013373ffffffffffffffffffffffffffffffffffffffff1681525060cd83836040518083838082843780830192505050925050509081526020016040518091039020600082015181600001556020820151816001015560408201518160020155606082015181600301556080820151816004015560a0820151816005015560c0820151816006015560e082015181600701556101008201518160080160006101000a81548173ffffffffffffffffffffffffffffffffffffffff021916908373ffffffffffffffffffffffffffffffffffffffff1602179055509050507ff684f987d0a05e8609d209b3b73f751707fb256ec3f5f97109d41f6542308fd7828260cd858560405180838380828437808301925050509250505090815260200160405180910390206000015460cd868660405180838380828437808301925050509250505090815260200160405180910390206001015460cd878760405180838380828437808301925050509250505090815260200160405180910390206002015460cd888860405180838380828437808301925050509250505090815260200160405180910390206003015460cd898960405180838380828437808301925050509250505090815260200160405180910390206004015460cd8a8a60405180838380828437808301925050509250505090815260200160405180910390206006015460cd8b8b60405180838380828437808301925050509250505090815260200160405180910390206007015460cd8c8c604051808383808284378083019250505092505050908152602001604051809103902060080160009054906101000a900473ffffffffffffffffffffffffffffffffffffffff1660405180806020018a81526020018981526020018881526020018781526020018681526020018581526020018481526020018373ffffffffffffffffffffffffffffffffffffffff16815260200182810382528c8c82818152602001925080828437600081840152601f19601f8201169050808301925050509b50505050505050505050505060405180910390a1505050505050565b60666000611b63612db8565b73ffffffffffffffffffffffffffffffffffffffff1673ffffffffffffffffffffffffffffffffffffffff16815260200190815260200160002060009054906101000a900460ff16611c00576040517f08c379a00000000000000000000000000000000000000000000000000000000081526004018080602001828103825260288152602001806137c06028913960400191505060405180910390fd5b611c0861307b565b565b6000606560009054906101000a900473ffffffffffffffffffffffffffffffffffffffff16905090565b60cc5481565b609860009054906101000a900460ff1615611cbd576040517f08c379a00000000000000000000000000000000000000000000000000000000081526004018080602001828103825260108152602001807f5061757361626c653a207061757365640000000000000000000000000000000081525060200191505060405180910390fd5b600073ffffffffffffffffffffffffffffffffffffffff1660cd8383604051808383808284378083019250505092505050908152602001604051809103902060080160009054906101000a900473ffffffffffffffffffffffffffffffffffffffff1673ffffffffffffffffffffffffffffffffffffffff161415611daa576040517f08c379a000000000000000000000000000000000000000000000000000000000815260040180806020018281038252601c8152602001807f546869732070726f706f73616c20446f6573206e6f742065786973740000000081525060200191505060405180910390fd5b3373ffffffffffffffffffffffffffffffffffffffff1660cd8383604051808383808284378083019250505092505050908152602001604051809103902060080160009054906101000a900473ffffffffffffffffffffffffffffffffffffffff1673ffffffffffffffffffffffffffffffffffffffff1614611e78576040517f08c379a000000000000000000000000000000000000000000000000000000000815260040180806020018281038252602b8152602001806137e8602b913960400191505060405180910390fd5b604051806101200160405280878152602001600081526020018681526020018581526020018481526020016000815260200160008152602001600081526020013373ffffffffffffffffffffffffffffffffffffffff1681525060cd83836040518083838082843780830192505050925050509081526020016040518091039020600082015181600001556020820151816001015560408201518160020155606082015181600301556080820151816004015560a0820151816005015560c0820151816006015560e082015181600701556101008201518160080160006101000a81548173ffffffffffffffffffffffffffffffffffffffff021916908373ffffffffffffffffffffffffffffffffffffffff1602179055509050507f5e65d6695c41b1aead7cc143bac6f3f4eba2b8dd79327958290330cbe6c5b612828260cd858560405180838380828437808301925050509250505090815260200160405180910390206000015460cd868660405180838380828437808301925050509250505090815260200160405180910390206001015460cd878760405180838380828437808301925050509250505090815260200160405180910390206002015460cd888860405180838380828437808301925050509250505090815260200160405180910390206003015460cd898960405180838380828437808301925050509250505090815260200160405180910390206004015460cd8a8a60405180838380828437808301925050509250505090815260200160405180910390206006015460cd8b8b60405180838380828437808301925050509250505090815260200160405180910390206007015460cd8c8c604051808383808284378083019250505092505050908152602001604051809103902060080160009054906101000a900473ffffffffffffffffffffffffffffffffffffffff1660405180806020018a81526020018981526020018881526020018781526020018681526020018581526020018481526020018373ffffffffffffffffffffffffffffffffffffffff16815260200182810382528c8c82818152602001925080828437600081840152601f19601f8201169050808301925050509b50505050505050505050505060405180910390a1505050505050565b60cd818051602081018201805184825260208301602085012081835280955050505050506000915090508060000154908060010154908060020154908060030154908060040154908060050154908060060154908060070154908060080160009054906101000a900473ffffffffffffffffffffffffffffffffffffffff16905089565b60cb60009054906101000a900473ffffffffffffffffffffffffffffffffffffffff1681565b600060cb60009054906101000a900473ffffffffffffffffffffffffffffffffffffffff1673ffffffffffffffffffffffffffffffffffffffff1663afd927626040518163ffffffff1660e01b815260040160206040518083038186803b1580156122d957600080fd5b505afa1580156122ed573d6000803e3d6000fd5b505050506040513d602081101561230357600080fd5b8101908080519060200190929190505050905090565b60666000612325612db8565b73ffffffffffffffffffffffffffffffffffffffff1673ffffffffffffffffffffffffffffffffffffffff16815260200190815260200160002060009054906101000a900460ff166123c2576040517f08c379a00000000000000000000000000000000000000000000000000000000081526004018080602001828103825260288152602001806137c06028913960400191505060405180910390fd5b600073ffffffffffffffffffffffffffffffffffffffff1660cd8484604051808383808284378083019250505092505050908152602001604051809103902060080160009054906101000a900473ffffffffffffffffffffffffffffffffffffffff1673ffffffffffffffffffffffffffffffffffffffff1614156124af576040517f08c379a000000000000000000000000000000000000000000000000000000000815260040180806020018281038252601d8152602001807f70726f706f73616c206e6f74207375626d6974746564206265666f726500000081525060200191505060405180910390fd5b600060cd84846040518083838082843780830192505050925050509081526020016040518091039020600601549050600160058111156124eb57fe5b8214801561252e57506000600581111561250157fe5b60cd8585604051808383808284378083019250505092505050908152602001604051809103902060060154145b15612715576001600581111561254057fe5b60cd858560405180838380828437808301925050509250505090815260200160405180910390206006018190555060ca60009054906101000a900473ffffffffffffffffffffffffffffffffffffffff1673ffffffffffffffffffffffffffffffffffffffff166323b872dd60cd8686604051808383808284378083019250505092505050908152602001604051809103902060080160009054906101000a900473ffffffffffffffffffffffffffffffffffffffff163060cd88886040518083838082843780830192505050925050509081526020016040518091039020600301546040518463ffffffff1660e01b8152600401808473ffffffffffffffffffffffffffffffffffffffff1681526020018373ffffffffffffffffffffffffffffffffffffffff1681526020018281526020019350505050602060405180830381600087803b15801561269357600080fd5b505af11580156126a7573d6000803e3d6000fd5b505050506040513d60208110156126bd57600080fd5b81019080805190602001909291905050505061270e60cd858560405180838380828437808301925050509250505090815260200160405180910390206003015460cc54612ff390919063ffffffff16565b60cc819055505b6002600581111561272257fe5b8214801561276557506001600581111561273857fe5b60cd8585604051808383808284378083019250505092505050908152602001604051809103902060060154145b156127a6576002600581111561277757fe5b60cd85856040518083838082843780830192505050925050509081526020016040518091039020600601819055505b600360058111156127b357fe5b821480156127f65750600260058111156127c957fe5b60cd8585604051808383808284378083019250505092505050908152602001604051809103902060060154145b15612866576003600581111561280857fe5b60cd85856040518083838082843780830192505050925050509081526020016040518091039020600601819055504260cd85856040518083838082843780830192505050925050509081526020016040518091039020600101819055505b60058081111561287257fe5b821480156128b557506000600581111561288857fe5b60cd8585604051808383808284378083019250505092505050908152602001604051809103902060060154145b156128f5576005808111156128c657fe5b60cd85856040518083838082843780830192505050925050509081526020016040518091039020600601819055505b6004600581111561290257fe5b8214801561294557506003600581111561291857fe5b60cd8585604051808383808284378083019250505092505050908152602001604051809103902060060154145b15612986576004600581111561295757fe5b60cd85856040518083838082843780830192505050925050509081526020016040518091039020600601819055505b8160cd858560405180838380828437808301925050509250505090815260200160405180910390206006015414612a25576040517f08c379a000000000000000000000000000000000000000000000000000000000815260040180806020018281038252600e8152602001807f537461747573207570646174656400000000000000000000000000000000000081525060200191505060405180910390fd5b7ff9658dbe59b6548b3f6ee93ff4e3b4efa307aab6e3651c81100f53ff9afb28a384848360cd888860405180838380828437808301925050509250505090815260200160405180910390206006015460405180806020018481526020018381526020018281038252868682818152602001925080828437600081840152601f19601f8201169050808301925050509550505050505060405180910390a150505050565b612ad0612db8565b73ffffffffffffffffffffffffffffffffffffffff16606560009054906101000a900473ffffffffffffffffffffffffffffffffffffffff1673ffffffffffffffffffffffffffffffffffffffff1614612b75576040517f08c379a000000000000000000000000000000000000000000000000000000000815260040180806020018281038252602581526020018061379b6025913960400191505060405180910390fd5b600073ffffffffffffffffffffffffffffffffffffffff168173ffffffffffffffffffffffffffffffffffffffff161415612bfb576040517f08c379a00000000000000000000000000000000000000000000000000000000081526004018080602001828103825260268152602001806137756026913960400191505060405180910390fd5b8073ffffffffffffffffffffffffffffffffffffffff16606560009054906101000a900473ffffffffffffffffffffffffffffffffffffffff1673ffffffffffffffffffffffffffffffffffffffff167f8be0079c531659141344cd1fd0a4f28419497f9722a3daafe3b4186f6b6457e060405160405180910390a380606560006101000a81548173ffffffffffffffffffffffffffffffffffffffff021916908373ffffffffffffffffffffffffffffffffffffffff16021790555050565b60666000612cc7612db8565b73ffffffffffffffffffffffffffffffffffffffff1673ffffffffffffffffffffffffffffffffffffffff16815260200190815260200160002060009054906101000a900460ff16612d64576040517f08c379a00000000000000000000000000000000000000000000000000000000081526004018080602001828103825260288152602001806137c06028913960400191505060405180910390fd5b612d6c61316f565b565b6000612db083836040518060400160405280601e81526020017f536166654d6174683a207375627472616374696f6e206f766572666c6f770000815250613262565b905092915050565b600033905090565b6000803090506000813b9050600081149250505090565b600060019054906101000a900460ff1680612df65750612df5612dc0565b5b80612e0c575060008054906101000a900460ff16155b612e61576040517f08c379a000000000000000000000000000000000000000000000000000000000815260040180806020018281038252602e815260200180613813602e913960400191505060405180910390fd5b60008060019054906101000a900460ff161590508015612eb1576001600060016101000a81548160ff02191690831515021790555060016000806101000a81548160ff0219169083151502179055505b612eb9613322565b612ec1613420565b8015612ee25760008060016101000a81548160ff0219169083151502179055505b50565b600060019054906101000a900460ff1680612f045750612f03612dc0565b5b80612f1a575060008054906101000a900460ff16155b612f6f576040517f08c379a000000000000000000000000000000000000000000000000000000000815260040180806020018281038252602e815260200180613813602e913960400191505060405180910390fd5b60008060019054906101000a900460ff161590508015612fbf576001600060016101000a81548160ff02191690831515021790555060016000806101000a81548160ff0219169083151502179055505b612fc7613322565b612fcf61365b565b8015612ff05760008060016101000a81548160ff0219169083151502179055505b50565b600080828401905083811015613071576040517f08c379a000000000000000000000000000000000000000000000000000000000815260040180806020018281038252601b8152602001807f536166654d6174683a206164646974696f6e206f766572666c6f77000000000081525060200191505060405180910390fd5b8091505092915050565b609860009054906101000a900460ff16156130fe576040517f08c379a00000000000000000000000000000000000000000000000000000000081526004018080602001828103825260108152602001807f5061757361626c653a207061757365640000000000000000000000000000000081525060200191505060405180910390fd5b6001609860006101000a81548160ff0219169083151502179055507f62e78cea01bee320cd4e420270b5ea74000d11b0c9f74754ebdbfc544b05a258613142612db8565b604051808273ffffffffffffffffffffffffffffffffffffffff16815260200191505060405180910390a1565b609860009054906101000a900460ff166131f1576040517f08c379a00000000000000000000000000000000000000000000000000000000081526004018080602001828103825260148152602001807f5061757361626c653a206e6f742070617573656400000000000000000000000081525060200191505060405180910390fd5b6000609860006101000a81548160ff0219169083151502179055507f5db9ee0a495bf2e6ff9c91a7834c1ba4fdd244a5e8aa4e537bd38aeae4b073aa613235612db8565b604051808273ffffffffffffffffffffffffffffffffffffffff16815260200191505060405180910390a1565b600083831115829061330f576040517f08c379a00000000000000000000000000000000000000000000000000000000081526004018080602001828103825283818151815260200191508051906020019080838360005b838110156132d45780820151818401526020810190506132b9565b50505050905090810190601f1680156133015780820380516001836020036101000a031916815260200191505b509250505060405180910390fd5b5060008385039050809150509392505050565b600060019054906101000a900460ff16806133415750613340612dc0565b5b80613357575060008054906101000a900460ff16155b6133ac576040517f08c379a000000000000000000000000000000000000000000000000000000000815260040180806020018281038252602e815260200180613813602e913960400191505060405180910390fd5b60008060019054906101000a900460ff1615905080156133fc576001600060016101000a81548160ff02191690831515021790555060016000806101000a81548160ff0219169083151502179055505b801561341d5760008060016101000a81548160ff0219169083151502179055505b50565b600060019054906101000a900460ff168061343f575061343e612dc0565b5b80613455575060008054906101000a900460ff16155b6134aa576040517f08c379a000000000000000000000000000000000000000000000000000000000815260040180806020018281038252602e815260200180613813602e913960400191505060405180910390fd5b60008060019054906101000a900460ff1615905080156134fa576001600060016101000a81548160ff02191690831515021790555060016000806101000a81548160ff0219169083151502179055505b600033905080606560006101000a81548173ffffffffffffffffffffffffffffffffffffffff021916908373ffffffffffffffffffffffffffffffffffffffff1602179055506001606660008373ffffffffffffffffffffffffffffffffffffffff1673ffffffffffffffffffffffffffffffffffffffff16815260200190815260200160002060006101000a81548160ff0219169083151502179055508073ffffffffffffffffffffffffffffffffffffffff16600073ffffffffffffffffffffffffffffffffffffffff167f8be0079c531659141344cd1fd0a4f28419497f9722a3daafe3b4186f6b6457e060405160405180910390a38073ffffffffffffffffffffffffffffffffffffffff167f76af71f00bdefe934d8091c1c072a3cfb98d86d4c9928629512230c11ce4250c60405160405180910390a25080156136585760008060016101000a81548160ff0219169083151502179055505b50565b600060019054906101000a900460ff168061367a5750613679612dc0565b5b80613690575060008054906101000a900460ff16155b6136e5576040517f08c379a000000000000000000000000000000000000000000000000000000000815260040180806020018281038252602e815260200180613813602e913960400191505060405180910390fd5b60008060019054906101000a900460ff161590508015613735576001600060016101000a81548160ff02191690831515021790555060016000806101000a81548160ff0219169083151502179055505b6000609860006101000a81548160ff02191690831515021790555080156137715760008060016101000a81548160ff0219169083151502179055505b5056fe4f776e61626c653a206e6577206f776e657220697320746865207a65726f20616464726573734f776e61626c653a2063616c6c6572206973206e6f7420746865204d61696e206f776e65724f776e61626c653a2063616c6c6572206973206e6f74206f6e65206f66206d616e79206f776e65724f6e6c79204f776e6572206f662070726f7073616c2063616e206564697420746869732070726f7073616c436f6e747261637420696e7374616e63652068617320616c7265616479206265656e20696e697469616c697a6564a2646970667358221220bdcac24d80daeda204831fe689f7ed6b25949aa2bff1895a42d38647fbe20eee64736f6c634300060c0033",
  "compiler": {
    "name": "solc",
    "version": "0.6.12+commit.27d51765.Emscripten.clang",
    "optimizer": {
      "enabled": false,
      "runs": 200
    },
    "evmVersion": "petersburg"
  }
}