{
  "fileName": "DaoSmartContract.sol",
  "contractName": "DaoSmartContract",
  "source": "pragma solidity ^0.6.0;\nimport \"@openzeppelin/contracts-ethereum-package/contracts/Initializable.sol\";\nimport \"@openzeppelin/contracts-ethereum-package/contracts/access/Ownable.sol\";\nimport \"@openzeppelin/contracts-ethereum-package/contracts/utils/Pausable.sol\";\nimport \"@openzeppelin/contracts-ethereum-package/contracts/math/SafeMath.sol\";\nimport \"@openzeppelin/contracts-ethereum-package/contracts/token/ERC20/IERC20.sol\";\n\ncontract DaoSmartContract is OwnableUpgradeSafe, PausableUpgradeSafe {\n    using SafeMath for uint256;\n\n    enum Status {PENDING, UPVOTE, VOTING, ACTIVE, COMPLETED, REJECTED}\n\n    address public phnxContractAddress;\n    \n    uint256 public collateralAmount;\n\n    mapping(string => Proposal) public proposalList;\n    \n    struct Proposal {\n        uint256 fundsRequested;\n        uint256 initiationTimestamp;\n        uint256 completionTimestamp;\n        uint256 colletralAmount;\n        uint256 totalMilestones;\n        uint256 completedMilestones;\n        uint256 status;\n        uint256 totalVotes;\n        address proposer;\n    }\n\n    event ProposalSubmitted(\n        string  proposalId,\n        uint256 fundsRequested,\n        uint256 initiationTimestamp,\n        uint256 completionTimestamp,\n        uint256 colletralAmount,\n        uint256 totalMilestones,\n        uint256 status,\n        uint256 totalVotes,\n        address proposer\n    );\n\n    event ProposalEditted(\n        string  proposalId,\n        uint256 fundsRequested,\n        uint256 initiationTimestamp,\n        uint256 completionTimestamp,\n        uint256 colletralAmount,\n        uint256 totalMilestones,\n        uint256 status,\n        uint256 totalVotes,\n        address proposer\n    );\n    event ProposalStatusUpdated(\n        string  proposalId,\n        uint256  previousStatus,\n        uint256  newStatus\n    );\n\n    event ColleteralWithdrawn(\n        string proposalId,\n        uint256 collateralAmount,\n        address proposer\n    );\n\n  \n\n    function initialize(address _phoenixContractAddress) external initializer {\n        OwnableUpgradeSafe.__Ownable_init();\n        PausableUpgradeSafe.__Pausable_init();\n        phnxContractAddress = _phoenixContractAddress;\n    }\n\n    function updateProposal(\n        uint256 fundsRequested,\n        uint256 endTimestamp,\n        uint256 colletralAmount,\n        uint256 totalMilestones,\n        string calldata proposalId\n    ) external whenNotPaused {\n        require(proposalList[proposalId].proposer != address(0),\"This proposal Does not exist\");\n        address sender = msg.sender;\n        require(proposalList[proposalId].proposer == sender,\"Only Owner of propsal can edit this propsal\");\n        proposalList[proposalId] = Proposal(\n            fundsRequested,\n            0,\n            endTimestamp,\n            colletralAmount,\n            totalMilestones,\n            0,\n            0, \n            0,\n            sender\n        );\n        emit ProposalEditted(\n            proposalId,\n            proposalList[proposalId].fundsRequested,\n            proposalList[proposalId].initiationTimestamp,\n            proposalList[proposalId].completionTimestamp,\n            proposalList[proposalId].colletralAmount,\n            proposalList[proposalId].totalMilestones,\n            proposalList[proposalId].status,\n            proposalList[proposalId].totalVotes,\n            proposalList[proposalId].proposer\n        );\n    }\n\n\n    function submitProposal(\n        uint256 fundsRequested,\n        uint256 endTimestamp,\n        uint256 colletralAmount,\n        uint256 totalMilestones,\n        string calldata proposalId\n    ) external whenNotPaused {\n        require(\n            proposalList[proposalId].proposer == address(0),\n            \"Proposal already submitted\"\n        );\n        proposalList[proposalId] = Proposal(\n            fundsRequested,\n            0,\n            endTimestamp,\n            colletralAmount,\n            totalMilestones,\n            0,\n            0, \n            0,\n            msg.sender\n        );\n        emit ProposalSubmitted(\n            proposalId,\n            proposalList[proposalId].fundsRequested,\n            proposalList[proposalId].initiationTimestamp,\n            proposalList[proposalId].completionTimestamp,\n            proposalList[proposalId].colletralAmount,\n            proposalList[proposalId].totalMilestones,\n            proposalList[proposalId].status,\n            proposalList[proposalId].totalVotes,\n            proposalList[proposalId].proposer\n        );\n    }\n\n\n    function withdrawCollateral(string calldata proposalId)\n        external\n        whenNotPaused\n    {\n        require(\n            proposalList[proposalId].status == uint256(Status.COMPLETED),\n            \"Project status not completed\"\n        );\n        IERC20(phnxContractAddress).transfer(\n            proposalList[proposalId].proposer,\n            proposalList[proposalId].colletralAmount\n        );\n        collateralAmount=collateralAmount.sub(proposalList[proposalId].colletralAmount);\n\n        emit ColleteralWithdrawn(\n            proposalId,\n            proposalList[proposalId].colletralAmount,\n            msg.sender\n        );\n    }\n\n    function updateProposalStatus(string calldata proposalId, uint256 status)\n        external\n        onlyOwners\n    {\n        require(\n            proposalList[proposalId].proposer != address(0),\n            \"proposal not submitted before\"\n        );\n        uint256 oldStatus = proposalList[proposalId].status;\n        if (\n            status == uint256(Status.UPVOTE) &&\n            proposalList[proposalId].status == uint256(Status.PENDING)\n        ) {\n            proposalList[proposalId].status = uint256(Status.UPVOTE);\n            IERC20(phnxContractAddress).transferFrom(\n                proposalList[proposalId].proposer,\n                address(this),\n                proposalList[proposalId].colletralAmount\n            );\n            collateralAmount=collateralAmount.add(proposalList[proposalId].colletralAmount);\n\n        }\n\n        if (\n            status == uint256(Status.VOTING) &&\n            proposalList[proposalId].status == uint256(Status.UPVOTE)\n        ) {\n            proposalList[proposalId].status = uint256(Status.VOTING);\n        }\n        if (\n            status == uint256(Status.ACTIVE) &&\n            proposalList[proposalId].status == uint256(Status.VOTING)\n        ) {\n            proposalList[proposalId].status = uint256(Status.ACTIVE);\n            proposalList[proposalId].initiationTimestamp=block.timestamp;\n        }\n        if (\n            status == uint256(Status.REJECTED) &&\n            proposalList[proposalId].status == uint256(Status.PENDING)\n        ) {\n            proposalList[proposalId].status = uint256(Status.REJECTED);\n        }\n\n        if (\n            status == uint256(Status.COMPLETED) &&\n            proposalList[proposalId].status == uint256(Status.ACTIVE)\n        ) {\n            proposalList[proposalId].status = uint256(Status.COMPLETED);\n        }\n\n        require(proposalList[proposalId].status == status, \"Status updated\");\n        emit ProposalStatusUpdated(\n            proposalId,\n            oldStatus,\n            proposalList[proposalId].status\n        );\n    }\n\n\n    function pause() external onlyOwners {\n        _pause();\n    }\n\n    function unPause() external onlyOwners {\n        _unpause();\n    }\n}\n\n\n ",
  "sourcePath": "contracts/DaoSmartContract.sol",
  "abi": [
    {
      "anonymous": false,
      "inputs": [
        {
          "indexed": true,
          "internalType": "address",
          "name": "newOwner",
          "type": "address"
        }
      ],
      "name": "AddedSubOwner",
      "type": "event"
    },
    {
      "anonymous": false,
      "inputs": [
        {
          "indexed": false,
          "internalType": "string",
          "name": "proposalId",
          "type": "string"
        },
        {
          "indexed": false,
          "internalType": "uint256",
          "name": "collateralAmount",
          "type": "uint256"
        },
        {
          "indexed": false,
          "internalType": "address",
          "name": "proposer",
          "type": "address"
        }
      ],
      "name": "ColleteralWithdrawn",
      "type": "event"
    },
    {
      "anonymous": false,
      "inputs": [
        {
          "indexed": true,
          "internalType": "address",
          "name": "previousOwner",
          "type": "address"
        },
        {
          "indexed": true,
          "internalType": "address",
          "name": "newOwner",
          "type": "address"
        }
      ],
      "name": "OwnershipTransferred",
      "type": "event"
    },
    {
      "anonymous": false,
      "inputs": [
        {
          "indexed": false,
          "internalType": "address",
          "name": "account",
          "type": "address"
        }
      ],
      "name": "Paused",
      "type": "event"
    },
    {
      "anonymous": false,
      "inputs": [
        {
          "indexed": false,
          "internalType": "string",
          "name": "proposalId",
          "type": "string"
        },
        {
          "indexed": false,
          "internalType": "uint256",
          "name": "fundsRequested",
          "type": "uint256"
        },
        {
          "indexed": false,
          "internalType": "uint256",
          "name": "initiationTimestamp",
          "type": "uint256"
        },
        {
          "indexed": false,
          "internalType": "uint256",
          "name": "completionTimestamp",
          "type": "uint256"
        },
        {
          "indexed": false,
          "internalType": "uint256",
          "name": "colletralAmount",
          "type": "uint256"
        },
        {
          "indexed": false,
          "internalType": "uint256",
          "name": "totalMilestones",
          "type": "uint256"
        },
        {
          "indexed": false,
          "internalType": "uint256",
          "name": "status",
          "type": "uint256"
        },
        {
          "indexed": false,
          "internalType": "uint256",
          "name": "totalVotes",
          "type": "uint256"
        },
        {
          "indexed": false,
          "internalType": "address",
          "name": "proposer",
          "type": "address"
        }
      ],
      "name": "ProposalEditted",
      "type": "event"
    },
    {
      "anonymous": false,
      "inputs": [
        {
          "indexed": false,
          "internalType": "string",
          "name": "proposalId",
          "type": "string"
        },
        {
          "indexed": false,
          "internalType": "uint256",
          "name": "previousStatus",
          "type": "uint256"
        },
        {
          "indexed": false,
          "internalType": "uint256",
          "name": "newStatus",
          "type": "uint256"
        }
      ],
      "name": "ProposalStatusUpdated",
      "type": "event"
    },
    {
      "anonymous": false,
      "inputs": [
        {
          "indexed": false,
          "internalType": "string",
          "name": "proposalId",
          "type": "string"
        },
        {
          "indexed": false,
          "internalType": "uint256",
          "name": "fundsRequested",
          "type": "uint256"
        },
        {
          "indexed": false,
          "internalType": "uint256",
          "name": "initiationTimestamp",
          "type": "uint256"
        },
        {
          "indexed": false,
          "internalType": "uint256",
          "name": "completionTimestamp",
          "type": "uint256"
        },
        {
          "indexed": false,
          "internalType": "uint256",
          "name": "colletralAmount",
          "type": "uint256"
        },
        {
          "indexed": false,
          "internalType": "uint256",
          "name": "totalMilestones",
          "type": "uint256"
        },
        {
          "indexed": false,
          "internalType": "uint256",
          "name": "status",
          "type": "uint256"
        },
        {
          "indexed": false,
          "internalType": "uint256",
          "name": "totalVotes",
          "type": "uint256"
        },
        {
          "indexed": false,
          "internalType": "address",
          "name": "proposer",
          "type": "address"
        }
      ],
      "name": "ProposalSubmitted",
      "type": "event"
    },
    {
      "anonymous": false,
      "inputs": [
        {
          "indexed": true,
          "internalType": "address",
          "name": "newOwner",
          "type": "address"
        }
      ],
      "name": "RemovedSubOwner",
      "type": "event"
    },
    {
      "anonymous": false,
      "inputs": [
        {
          "indexed": false,
          "internalType": "address",
          "name": "account",
          "type": "address"
        }
      ],
      "name": "Unpaused",
      "type": "event"
    },
    {
      "inputs": [
        {
          "internalType": "address",
          "name": "newOwner",
          "type": "address"
        }
      ],
      "name": "addOwner",
      "outputs": [],
      "stateMutability": "nonpayable",
      "type": "function"
    },
    {
      "inputs": [],
      "name": "collateralAmount",
      "outputs": [
        {
          "internalType": "uint256",
          "name": "",
          "type": "uint256"
        }
      ],
      "stateMutability": "view",
      "type": "function"
    },
    {
      "inputs": [
        {
          "internalType": "address",
          "name": "_phoenixContractAddress",
          "type": "address"
        }
      ],
      "name": "initialize",
      "outputs": [],
      "stateMutability": "nonpayable",
      "type": "function"
    },
    {
      "inputs": [
        {
          "internalType": "address",
          "name": "",
          "type": "address"
        }
      ],
      "name": "isOwner",
      "outputs": [
        {
          "internalType": "bool",
          "name": "",
          "type": "bool"
        }
      ],
      "stateMutability": "view",
      "type": "function"
    },
    {
      "inputs": [],
      "name": "owner",
      "outputs": [
        {
          "internalType": "address",
          "name": "",
          "type": "address"
        }
      ],
      "stateMutability": "view",
      "type": "function"
    },
    {
      "inputs": [],
      "name": "pause",
      "outputs": [],
      "stateMutability": "nonpayable",
      "type": "function"
    },
    {
      "inputs": [],
      "name": "paused",
      "outputs": [
        {
          "internalType": "bool",
          "name": "",
          "type": "bool"
        }
      ],
      "stateMutability": "view",
      "type": "function"
    },
    {
      "inputs": [],
      "name": "phnxContractAddress",
      "outputs": [
        {
          "internalType": "address",
          "name": "",
          "type": "address"
        }
      ],
      "stateMutability": "view",
      "type": "function"
    },
    {
      "inputs": [
        {
          "internalType": "string",
          "name": "",
          "type": "string"
        }
      ],
      "name": "proposalList",
      "outputs": [
        {
          "internalType": "uint256",
          "name": "fundsRequested",
          "type": "uint256"
        },
        {
          "internalType": "uint256",
          "name": "initiationTimestamp",
          "type": "uint256"
        },
        {
          "internalType": "uint256",
          "name": "completionTimestamp",
          "type": "uint256"
        },
        {
          "internalType": "uint256",
          "name": "colletralAmount",
          "type": "uint256"
        },
        {
          "internalType": "uint256",
          "name": "totalMilestones",
          "type": "uint256"
        },
        {
          "internalType": "uint256",
          "name": "completedMilestones",
          "type": "uint256"
        },
        {
          "internalType": "uint256",
          "name": "status",
          "type": "uint256"
        },
        {
          "internalType": "uint256",
          "name": "totalVotes",
          "type": "uint256"
        },
        {
          "internalType": "address",
          "name": "proposer",
          "type": "address"
        }
      ],
      "stateMutability": "view",
      "type": "function"
    },
    {
      "inputs": [
        {
          "internalType": "address",
          "name": "_subOwner",
          "type": "address"
        }
      ],
      "name": "removeOwner",
      "outputs": [],
      "stateMutability": "nonpayable",
      "type": "function"
    },
    {
      "inputs": [],
      "name": "renounceOwnership",
      "outputs": [],
      "stateMutability": "nonpayable",
      "type": "function"
    },
    {
      "inputs": [
        {
          "internalType": "uint256",
          "name": "fundsRequested",
          "type": "uint256"
        },
        {
          "internalType": "uint256",
          "name": "endTimestamp",
          "type": "uint256"
        },
        {
          "internalType": "uint256",
          "name": "colletralAmount",
          "type": "uint256"
        },
        {
          "internalType": "uint256",
          "name": "totalMilestones",
          "type": "uint256"
        },
        {
          "internalType": "string",
          "name": "proposalId",
          "type": "string"
        }
      ],
      "name": "submitProposal",
      "outputs": [],
      "stateMutability": "nonpayable",
      "type": "function"
    },
    {
      "inputs": [
        {
          "internalType": "address",
          "name": "newOwner",
          "type": "address"
        }
      ],
      "name": "transferOwnership",
      "outputs": [],
      "stateMutability": "nonpayable",
      "type": "function"
    },
    {
      "inputs": [],
      "name": "unPause",
      "outputs": [],
      "stateMutability": "nonpayable",
      "type": "function"
    },
    {
      "inputs": [
        {
          "internalType": "uint256",
          "name": "fundsRequested",
          "type": "uint256"
        },
        {
          "internalType": "uint256",
          "name": "endTimestamp",
          "type": "uint256"
        },
        {
          "internalType": "uint256",
          "name": "colletralAmount",
          "type": "uint256"
        },
        {
          "internalType": "uint256",
          "name": "totalMilestones",
          "type": "uint256"
        },
        {
          "internalType": "string",
          "name": "proposalId",
          "type": "string"
        }
      ],
      "name": "updateProposal",
      "outputs": [],
      "stateMutability": "nonpayable",
      "type": "function"
    },
    {
      "inputs": [
        {
          "internalType": "string",
          "name": "proposalId",
          "type": "string"
        },
        {
          "internalType": "uint256",
          "name": "status",
          "type": "uint256"
        }
      ],
      "name": "updateProposalStatus",
      "outputs": [],
      "stateMutability": "nonpayable",
      "type": "function"
    },
    {
      "inputs": [
        {
          "internalType": "string",
          "name": "proposalId",
          "type": "string"
        }
      ],
      "name": "withdrawCollateral",
      "outputs": [],
      "stateMutability": "nonpayable",
      "type": "function"
    }
  ],
  "bytecode": "0x608060405234801561001057600080fd5b506121aa806100206000396000f3fe608060405234801561001057600080fd5b50600436106100eb5760003560e01c80638456cb59116100925780638456cb59146102a05780638da5cb5b146102a857806392d09ceb146102b057806397c4edc6146102ca578063c3e8d3e814610350578063c4d66de814610444578063efe128571461046a578063f2fde38b146104d8578063f7b188a5146104fe576100eb565b8063024d9682146100f0578063173825d91461016057806326f6e1d8146101865780632f54bf6e146101aa5780635c975abb146101e45780637065cb48146101ec578063715018a61461021257806372d64f501461021a575b600080fd5b61015e6004803603602081101561010657600080fd5b810190602081018135600160201b81111561012057600080fd5b82018360208201111561013257600080fd5b803590602001918460018302840111600160201b8311171561015357600080fd5b509092509050610506565b005b61015e6004803603602081101561017657600080fd5b50356001600160a01b0316610793565b61018e610830565b604080516001600160a01b039092168252519081900360200190f35b6101d0600480360360208110156101c057600080fd5b50356001600160a01b031661083f565b604080519115158252519081900360200190f35b6101d0610854565b61015e6004803603602081101561020257600080fd5b50356001600160a01b031661085d565b61015e6108fd565b61015e600480360360a081101561023057600080fd5b81359160208101359160408201359160608101359181019060a081016080820135600160201b81111561026257600080fd5b82018360208201111561027457600080fd5b803590602001918460018302840111600160201b8311171561029557600080fd5b509092509050610989565b61015e610d55565b61018e610dc3565b6102b8610dd2565b60408051918252519081900360200190f35b61015e600480360360a08110156102e057600080fd5b81359160208101359160408201359160608101359181019060a081016080820135600160201b81111561031257600080fd5b82018360208201111561032457600080fd5b803590602001918460018302840111600160201b8311171561034557600080fd5b509092509050610dd8565b6103f46004803603602081101561036657600080fd5b810190602081018135600160201b81111561038057600080fd5b82018360208201111561039257600080fd5b803590602001918460018302840111600160201b831117156103b357600080fd5b91908080601f016020809104026020016040519081016040528093929190818152602001838380828437600092019190915250929550611229945050505050565b60408051998a5260208a0198909852888801969096526060880194909452608087019290925260a086015260c085015260e08401526001600160a01b031661010083015251908190036101200190f35b61015e6004803603602081101561045a57600080fd5b50356001600160a01b0316611288565b61015e6004803603604081101561048057600080fd5b810190602081018135600160201b81111561049a57600080fd5b8201836020820111156104ac57600080fd5b803590602001918460018302840111600160201b831117156104cd57600080fd5b919350915035611356565b61015e600480360360208110156104ee57600080fd5b50356001600160a01b0316611920565b61015e611a03565b60985460ff1615610551576040805162461bcd60e51b815260206004820152601060248201526f14185d5cd8589b194e881c185d5cd95960821b604482015290519081900360640190fd5b600460cc8383604051808383808284378083019250505092505050908152602001604051809103902060060154146105d0576040805162461bcd60e51b815260206004820152601c60248201527f50726f6a65637420737461747573206e6f7420636f6d706c6574656400000000604482015290519081900360640190fd5b60ca546040516001600160a01b039091169063a9059cbb9060cc908590859080838380828437919091019485525050604051928390036020018320600801546001600160a01b03169260cc925087915086908083838082843780830192505050925050509081526020016040518091039020600301546040518363ffffffff1660e01b815260040180836001600160a01b0316815260200182815260200192505050602060405180830381600087803b15801561068c57600080fd5b505af11580156106a0573d6000803e3d6000fd5b505050506040513d60208110156106b657600080fd5b50506040516106f39060cc908490849080838380828437919091019485525050604051928390036020019092206003015460cb5492509050611a6f565b60cb819055507f77c5403ea341a227f7fa5aae3a28dd3a3f593549812f92a335e7abe2aba99350828260cc858560405180838380828437919091019485525050604080516020948190038501812060030154948101859052339181018290526060808252810186905290925090508060808101868680828437600083820152604051601f909101601f191690920182900397509095505050505050a15050565b61079b611ab8565b6065546001600160a01b039081169116146107e75760405162461bcd60e51b81526004018080602001828103825260258152602001806120af6025913960400191505060405180910390fd5b6001600160a01b038116600081815260666020526040808220805460ff19169055517fc4adbb71fb21387c352881f205be328ff9125ae4c658ed8dcbe960a47dbf515a9190a250565b60ca546001600160a01b031681565b60666020526000908152604090205460ff1681565b60985460ff1690565b610865611ab8565b6065546001600160a01b039081169116146108b15760405162461bcd60e51b81526004018080602001828103825260258152602001806120af6025913960400191505060405180910390fd5b6001600160a01b038116600081815260666020526040808220805460ff19166001179055517f76af71f00bdefe934d8091c1c072a3cfb98d86d4c9928629512230c11ce4250c9190a250565b610905611ab8565b6065546001600160a01b039081169116146109515760405162461bcd60e51b81526004018080602001828103825260258152602001806120af6025913960400191505060405180910390fd5b6065546040516000916001600160a01b031690600080516020612127833981519152908390a3606580546001600160a01b0319169055565b60985460ff16156109d4576040805162461bcd60e51b815260206004820152601060248201526f14185d5cd8589b194e881c185d5cd95960821b604482015290519081900360640190fd5b60006001600160a01b031660cc83836040518083838082843791909101948552505060405192839003602001909220600801546001600160a01b0316929092149150610a699050576040805162461bcd60e51b815260206004820152601a60248201527f50726f706f73616c20616c7265616479207375626d6974746564000000000000604482015290519081900360640190fd5b60405180610120016040528087815260200160008152602001868152602001858152602001848152602001600081526020016000815260200160008152602001336001600160a01b031681525060cc838360405180838380828437919091019485525050604080516020948190038501812086518155948601516001860155908501516002850155606085015160038501556080850151600485015560a0850151600585015560c0850151600685015560e0850151600785015561010090940151600890930180546001600160a01b0319166001600160a01b0390941693909317909255507ff684f987d0a05e8609d209b3b73f751707fb256ec3f5f97109d41f6542308fd791849150839060cc908390839080838380828437919091019485525050604051928390036020018320549260cc9250889150879080838380828437808301925050509250505090815260200160405180910390206001015460cc878760405180838380828437808301925050509250505090815260200160405180910390206002015460cc888860405180838380828437808301925050509250505090815260200160405180910390206003015460cc898960405180838380828437808301925050509250505090815260200160405180910390206004015460cc8a8a60405180838380828437808301925050509250505090815260200160405180910390206006015460cc8b8b60405180838380828437808301925050509250505090815260200160405180910390206007015460cc8c8c60405180838380828437919091019485525050604080519384900360209081018520600801549085018c90529084018a9052606084018990526080840188905260a0840187905260c0840186905260e084018590526001600160a01b0316610100840181905261012080855284018c905292915081905061014081018c8c80828437600083820152604051601f909101601f19169092018290039d50909b505050505050505050505050a1505050505050565b60666000610d61611ab8565b6001600160a01b0316815260208101919091526040016000205460ff16610db95760405162461bcd60e51b81526004018080602001828103825260288152602001806120d46028913960400191505060405180910390fd5b610dc1611abc565b565b6065546001600160a01b031690565b60cb5481565b60985460ff1615610e23576040805162461bcd60e51b815260206004820152601060248201526f14185d5cd8589b194e881c185d5cd95960821b604482015290519081900360640190fd5b60006001600160a01b031660cc83836040518083838082843791909101948552505060405192839003602001909220600801546001600160a01b031692909214159150610eb99050576040805162461bcd60e51b815260206004820152601c60248201527f546869732070726f706f73616c20446f6573206e6f7420657869737400000000604482015290519081900360640190fd5b6000339050806001600160a01b031660cc84846040518083838082843791909101948552505060405192839003602001909220600801546001600160a01b0316929092149150610f3c90505760405162461bcd60e51b815260040180806020018281038252602b8152602001806120fc602b913960400191505060405180910390fd5b60405180610120016040528088815260200160008152602001878152602001868152602001858152602001600081526020016000815260200160008152602001826001600160a01b031681525060cc848460405180838380828437919091019485525050604080516020948190038501812086518155948601516001860155908501516002850155606085015160038501556080850151600485015560a0850151600585015560c0850151600685015560e0850151600785015561010090940151600890930180546001600160a01b0319166001600160a01b0390941693909317909255507f5e65d6695c41b1aead7cc143bac6f3f4eba2b8dd79327958290330cbe6c5b61291859150849060cc908390839080838380828437919091019485525050604051928390036020018320549260cc9250899150889080838380828437808301925050509250505090815260200160405180910390206001015460cc888860405180838380828437808301925050509250505090815260200160405180910390206002015460cc898960405180838380828437808301925050509250505090815260200160405180910390206003015460cc8a8a60405180838380828437808301925050509250505090815260200160405180910390206004015460cc8b8b60405180838380828437808301925050509250505090815260200160405180910390206006015460cc8c8c60405180838380828437808301925050509250505090815260200160405180910390206007015460cc8d8d60405180838380828437919091019485525050604080519384900360209081018520600801549085018c90529084018a9052606084018990526080840188905260a0840187905260c0840186905260e084018590526001600160a01b0316610100840181905261012080855284018c905292915081905061014081018c8c80828437600083820152604051601f909101601f19169092018290039d50909b505050505050505050505050a150505050505050565b805160208183018101805160cc825292820191909301209152805460018201546002830154600384015460048501546005860154600687015460078801546008909801549697959694959394929391929091906001600160a01b031689565b600054610100900460ff16806112a157506112a1611b5a565b806112af575060005460ff16155b6112ea5760405162461bcd60e51b815260040180806020018281038252602e815260200180612147602e913960400191505060405180910390fd5b600054610100900460ff16158015611315576000805460ff1961ff0019909116610100171660011790555b61131d611b60565b611325611c12565b60ca80546001600160a01b0319166001600160a01b0384161790558015611352576000805461ff00191690555b5050565b60666000611362611ab8565b6001600160a01b0316815260208101919091526040016000205460ff166113ba5760405162461bcd60e51b81526004018080602001828103825260288152602001806120d46028913960400191505060405180910390fd5b60006001600160a01b031660cc84846040518083838082843791909101948552505060405192839003602001909220600801546001600160a01b0316929092141591506114509050576040805162461bcd60e51b815260206004820152601d60248201527f70726f706f73616c206e6f74207375626d6974746564206265666f7265000000604482015290519081900360640190fd5b600060cc84846040518083838082843791909101948552505060405192839003602001909220600601549250600191506114879050565b821480156114bf5750600060cc8585604051808383808284378083019250505092505050908152602001604051809103902060060154145b1561162657600160cc858560405180838380828437919091019485525050604051928390036020018320600601939093555060ca546001600160a01b031691506323b872dd9060cc908790879080838380828437919091019485525050604051928390036020018320600801546001600160a01b03169230925060cc9150899089908083838082843780830192505050925050509081526020016040518091039020600301546040518463ffffffff1660e01b815260040180846001600160a01b03168152602001836001600160a01b031681526020018281526020019350505050602060405180830381600087803b1580156115bb57600080fd5b505af11580156115cf573d6000803e3d6000fd5b505050506040513d60208110156115e557600080fd5b50506040516116229060cc908690869080838380828437919091019485525050604051928390036020019092206003015460cb5492509050611caf565b60cb555b6002821480156116605750600160cc8585604051808383808284378083019250505092505050908152602001604051809103902060060154145b1561169557600260cc858560405180838380828437919091019485525050604051928390036020019092206006019290925550505b6003821480156116cf5750600260cc8585604051808383808284378083019250505092505050908152602001604051809103902060060154145b1561173357600360cc85856040518083838082843780830192505050925050509081526020016040518091039020600601819055504260cc858560405180838380828437919091019485525050604051928390036020019092206001019290925550505b60058214801561176d5750600060cc8585604051808383808284378083019250505092505050908152602001604051809103902060060154145b156117a257600560cc858560405180838380828437919091019485525050604051928390036020019092206006019290925550505b6004821480156117dc5750600360cc8585604051808383808284378083019250505092505050908152602001604051809103902060060154145b1561181157600460cc858560405180838380828437919091019485525050604051928390036020019092206006019290925550505b8160cc858560405180838380828437808301925050509250505090815260200160405180910390206006015414611880576040805162461bcd60e51b815260206004820152600e60248201526d14dd185d1d5cc81d5c19185d195960921b604482015290519081900360640190fd5b7ff9658dbe59b6548b3f6ee93ff4e3b4efa307aab6e3651c81100f53ff9afb28a384848360cc888860405180838380828437808301925050509250505090815260200160405180910390206006015460405180806020018481526020018381526020018281038252868682818152602001925080828437600083820152604051601f909101601f191690920182900397509095505050505050a150505050565b611928611ab8565b6065546001600160a01b039081169116146119745760405162461bcd60e51b81526004018080602001828103825260258152602001806120af6025913960400191505060405180910390fd5b6001600160a01b0381166119b95760405162461bcd60e51b81526004018080602001828103825260268152602001806120896026913960400191505060405180910390fd5b6065546040516001600160a01b0380841692169060008051602061212783398151915290600090a3606580546001600160a01b0319166001600160a01b0392909216919091179055565b60666000611a0f611ab8565b6001600160a01b0316815260208101919091526040016000205460ff16611a675760405162461bcd60e51b81526004018080602001828103825260288152602001806120d46028913960400191505060405180910390fd5b610dc1611d09565b6000611ab183836040518060400160405280601e81526020017f536166654d6174683a207375627472616374696f6e206f766572666c6f770000815250611d8a565b9392505050565b3390565b60985460ff1615611b07576040805162461bcd60e51b815260206004820152601060248201526f14185d5cd8589b194e881c185d5cd95960821b604482015290519081900360640190fd5b6098805460ff191660011790557f62e78cea01bee320cd4e420270b5ea74000d11b0c9f74754ebdbfc544b05a258611b3d611ab8565b604080516001600160a01b039092168252519081900360200190a1565b303b1590565b600054610100900460ff1680611b795750611b79611b5a565b80611b87575060005460ff16155b611bc25760405162461bcd60e51b815260040180806020018281038252602e815260200180612147602e913960400191505060405180910390fd5b600054610100900460ff16158015611bed576000805460ff1961ff0019909116610100171660011790555b611bf5611e21565b611bfd611ec1565b8015611c0f576000805461ff00191690555b50565b600054610100900460ff1680611c2b5750611c2b611b5a565b80611c39575060005460ff16155b611c745760405162461bcd60e51b815260040180806020018281038252602e815260200180612147602e913960400191505060405180910390fd5b600054610100900460ff16158015611c9f576000805460ff1961ff0019909116610100171660011790555b611ca7611e21565b611bfd611fdd565b600082820183811015611ab1576040805162461bcd60e51b815260206004820152601b60248201527f536166654d6174683a206164646974696f6e206f766572666c6f770000000000604482015290519081900360640190fd5b60985460ff16611d57576040805162461bcd60e51b815260206004820152601460248201527314185d5cd8589b194e881b9bdd081c185d5cd95960621b604482015290519081900360640190fd5b6098805460ff191690557f5db9ee0a495bf2e6ff9c91a7834c1ba4fdd244a5e8aa4e537bd38aeae4b073aa611b3d611ab8565b60008184841115611e195760405162461bcd60e51b81526004018080602001828103825283818151815260200191508051906020019080838360005b83811015611dde578181015183820152602001611dc6565b50505050905090810190601f168015611e0b5780820380516001836020036101000a031916815260200191505b509250505060405180910390fd5b505050900390565b600054610100900460ff1680611e3a5750611e3a611b5a565b80611e48575060005460ff16155b611e835760405162461bcd60e51b815260040180806020018281038252602e815260200180612147602e913960400191505060405180910390fd5b600054610100900460ff16158015611bfd576000805460ff1961ff0019909116610100171660011790558015611c0f576000805461ff001916905550565b600054610100900460ff1680611eda5750611eda611b5a565b80611ee8575060005460ff16155b611f235760405162461bcd60e51b815260040180806020018281038252602e815260200180612147602e913960400191505060405180910390fd5b600054610100900460ff16158015611f4e576000805460ff1961ff0019909116610100171660011790555b606580546001600160a01b03191633908117909155600081815260666020526040808220805460ff1916600117905551829190600080516020612127833981519152908290a36040516001600160a01b038216907f76af71f00bdefe934d8091c1c072a3cfb98d86d4c9928629512230c11ce4250c90600090a2508015611c0f576000805461ff001916905550565b600054610100900460ff1680611ff65750611ff6611b5a565b80612004575060005460ff16155b61203f5760405162461bcd60e51b815260040180806020018281038252602e815260200180612147602e913960400191505060405180910390fd5b600054610100900460ff1615801561206a576000805460ff1961ff0019909116610100171660011790555b6098805460ff191690558015611c0f576000805461ff00191690555056fe4f776e61626c653a206e6577206f776e657220697320746865207a65726f20616464726573734f776e61626c653a2063616c6c6572206973206e6f7420746865204d61696e206f776e65724f776e61626c653a2063616c6c6572206973206e6f74206f6e65206f66206d616e79206f776e65724f6e6c79204f776e6572206f662070726f7073616c2063616e206564697420746869732070726f7073616c8be0079c531659141344cd1fd0a4f28419497f9722a3daafe3b4186f6b6457e0436f6e747261637420696e7374616e63652068617320616c7265616479206265656e20696e697469616c697a6564a26469706673582212207a18a02172e6e958d1eeded4ad179db77e18723fd13564e011d3757b2e0a8efa64736f6c634300060c0033",
  "compiler": {
    "name": "solc",
    "version": "0.6.12+commit.27d51765.Emscripten.clang",
    "optimizer": {
      "enabled": true,
      "runs": 100
    },
    "evmVersion": "petersburg"
  }
}