{
  "fileName": "PhnxStaking.sol",
  "contractName": "DaoStakeContract",
  "source": "pragma solidity ^0.6.0;\nimport \"@openzeppelin/contracts-ethereum-package/contracts/Initializable.sol\";\nimport \"@openzeppelin/contracts-ethereum-package/contracts/access/Ownable.sol\";\nimport \"@openzeppelin/contracts-ethereum-package/contracts/utils/Pausable.sol\";\nimport \"@openzeppelin/contracts-ethereum-package/contracts/math/SafeMath.sol\";\nimport \"@openzeppelin/contracts-ethereum-package/contracts/token/ERC20/IERC20.sol\";\ncontract DaoStakeContract is OwnableUpgradeSafe, PausableUpgradeSafe {\n    // Library for safely handling uint256\n    using SafeMath for uint256;\n    uint256 ONE_DAY;\n    uint256 public stakeDays;\n    uint256 public maxStakedQuantity;\n    address public phnxContractAddress;\n    uint256 public ratio;\n    mapping(address => uint256) public stakerBalance;\n    mapping(uint256 => StakerData) public stakerData;\n    struct StakerData {\n        uint256 altQuantity;\n        uint256 initiationTimestamp;\n        uint256 durationTimestamp;\n        uint256 rewardAmount;\n        address staker;\n    }\n    event StakeCompleted(\n        uint256 altQuantity,\n        uint256 initiationTimestamp,\n        uint256 durationTimestamp,\n        uint256 rewardAmount,\n        address staker,\n        address phnxContractAddress,\n        address portalAddress\n    );\n    event Unstake(\n        address staker,\n        address stakedToken,\n        address portalAddress,\n        uint256 altQuantity,\n        uint256 durationTimestamp\n    ); // When ERC20s are withdrawn\n    event BaseInterestUpdated(uint256 _newRate, uint256 _oldRate);\n    ////////////////\n    // Initializer\n    ////////////////\n    function initialize() external initializer {\n        OwnableUpgradeSafe.__Ownable_init();\n        PausableUpgradeSafe.__Pausable_init();\n        ratio = 684931506849315;\n        phnxContractAddress = 0xfe1b6ABc39E46cEc54d275efB4b29B33be176c2A;\n        maxStakedQuantity = 10000000000000000000000;\n        stakeDays = 365;\n        ONE_DAY = 24 * 60 * 60;\n    }\n    /* @dev stake function which enable the user to stake PHNX Tokens.\n     *  @param _altQuantity, PHNX amount to be staked.\n     *  @param _days, how many days PHNX tokens are staked for (in days)\n     */\n    function stakeALT(uint256 _altQuantity, uint256 _days)\n        public\n        whenNotPaused\n        returns (uint256 rewardAmount)\n    {\n        require(_days <= stakeDays && _days > 0, \"Invalid Days\"); // To check days\n        require(\n            _altQuantity <= maxStakedQuantity && _altQuantity > 0,\n            \"Invalid PHNX quantity\"\n        ); // To verify PHNX quantity\n        IERC20(phnxContractAddress).transferFrom(\n            msg.sender,\n            address(this),\n            _altQuantity\n        );\n        rewardAmount = _calculateReward(_altQuantity, ratio, _days);\n        uint256 _timestamp = block.timestamp;\n        if (stakerData[_timestamp].staker != address(0)) {\n            _timestamp = _timestamp.add(1);\n        }\n        stakerData[_timestamp] = StakerData(\n            _altQuantity,\n            _timestamp,\n            _days.mul(ONE_DAY),\n            rewardAmount,\n            msg.sender\n        );\n        stakerBalance[msg.sender] = stakerBalance[msg.sender].add(_altQuantity);\n        IERC20(phnxContractAddress).transfer(msg.sender, rewardAmount);\n        emit StakeCompleted(\n            _altQuantity,\n            _timestamp,\n            _days.mul(ONE_DAY),\n            rewardAmount,\n            msg.sender,\n            phnxContractAddress,\n            address(this)\n        );\n    }\n    /* @dev unStake function which enable the user to withdraw his PHNX Tokens.\n     *  @param _expiredTimestamps, time when PHNX tokens are unlocked.\n     *  @param _amount, amount to be withdrawn by the user.\n     */\n    function unstakeALT(uint256[] calldata _expiredTimestamps, uint256 _amount)\n        external\n        whenNotPaused\n        returns (uint256)\n    {\n        require(_amount > 0, \"Amount should be greater than 0\");\n        uint256 withdrawAmount = 0;\n        for (uint256 i = 0; i < _expiredTimestamps.length; i = i.add(1)) {\n            require(\n                stakerData[_expiredTimestamps[i]].durationTimestamp != 0,\n                \"Nothing staked\"\n            );\n            require(\n                _expiredTimestamps[i].add(\n                    stakerData[_expiredTimestamps[i]].durationTimestamp\n                ) <= block.timestamp\n            );\n            \n            if (_amount >= stakerData[_expiredTimestamps[i]].altQuantity) {\n                _amount = _amount.sub(\n                    stakerData[_expiredTimestamps[i]].altQuantity\n                );\n                withdrawAmount = withdrawAmount.add(\n                    stakerData[_expiredTimestamps[i]].altQuantity\n                );\n                emit Unstake(\n                    msg.sender,\n                    phnxContractAddress,\n                    address(this),\n                    stakerData[_expiredTimestamps[i]].altQuantity,\n                    _expiredTimestamps[i]\n                );\n                stakerData[_expiredTimestamps[i]].altQuantity = 0;\n            } else if (\n                (_amount < stakerData[_expiredTimestamps[i]].altQuantity) &&\n                _amount > 0\n            ) {\n                stakerData[_expiredTimestamps[i]]\n                    .altQuantity = stakerData[_expiredTimestamps[i]]\n                    .altQuantity\n                    .sub(_amount);\n                withdrawAmount = withdrawAmount.add(_amount);\n                emit Unstake(\n                    msg.sender,\n                    phnxContractAddress,\n                    address(this),\n                    _amount,\n                    _expiredTimestamps[i]\n                );\n                break;\n            }\n        }\n        require(withdrawAmount != 0, \"Not Transferred\");\n       \n        stakerBalance[msg.sender] = stakerBalance[msg.sender].sub(\n            withdrawAmount\n        );\n        IERC20(phnxContractAddress).transfer(msg.sender, withdrawAmount);\n        return withdrawAmount;\n    }\n    /* @dev to calculate reward Amount\n     *  @param _altQuantity , amount of ALT tokens staked.\n     *@param _baseInterest rate\n     */\n    function _calculateReward(\n        uint256 _altQuantity,\n        uint256 _ratio,\n        uint256 _days\n    ) internal pure returns (uint256 rewardAmount) {\n        rewardAmount = (_altQuantity.mul(_ratio).mul(_days)).div(\n            1000000000000000000\n        );\n    }\n    /* @dev to set base interest rate. Can only be called by owner\n     *  @param _rate, interest rate (in wei)\n     */\n    function updateRatio(uint256 _rate) public onlyOwner whenNotPaused {\n        ratio = _rate;\n    }\n    function updateTime(uint256 _time) public onlyOwner whenNotPaused {\n        ONE_DAY = _time;\n    }\n    function updateQuantity(uint256 _quantity) public onlyOwner whenNotPaused {\n        maxStakedQuantity = _quantity;\n    }\n    /* @dev function to update stakeDays.\n     *@param _stakeDays, updated Days .\n     */\n    function updatestakeDays(uint256 _stakeDays) public onlyOwner {\n        stakeDays = _stakeDays;\n    }\n    /* @dev Funtion to withdraw all PHNX from contract incase of emergency, can only be called by owner.*/\n    function withdrawTokens() public onlyOwner {\n        IERC20(phnxContractAddress).transfer(\n            owner(),\n            IERC20(phnxContractAddress).balanceOf(address(this))\n        );\n    }\n    /* @dev function to update Phoenix contract address.\n     *@param _address, new address of the contract.\n     */\n    function setPheonixContractAddress(address _address) public onlyOwner {\n        phnxContractAddress = _address;\n    }\n    /* @dev function which restricts the user from stakng PHNX tokens. */\n    function pause() public onlyOwner {\n        _pause();\n    }\n    /* @dev function which disables the Pause function. */\n    function unPause() public onlyOwner {\n        _unpause();\n    }\n}\n\n",
  "sourcePath": "contracts/PhnxStaking.sol",
  "abi": [
    {
      "anonymous": false,
      "inputs": [
        {
          "indexed": true,
          "internalType": "address",
          "name": "newOwner",
          "type": "address"
        }
      ],
      "name": "AddedSubOwner",
      "type": "event"
    },
    {
      "anonymous": false,
      "inputs": [
        {
          "indexed": false,
          "internalType": "uint256",
          "name": "_newRate",
          "type": "uint256"
        },
        {
          "indexed": false,
          "internalType": "uint256",
          "name": "_oldRate",
          "type": "uint256"
        }
      ],
      "name": "BaseInterestUpdated",
      "type": "event"
    },
    {
      "anonymous": false,
      "inputs": [
        {
          "indexed": true,
          "internalType": "address",
          "name": "previousOwner",
          "type": "address"
        },
        {
          "indexed": true,
          "internalType": "address",
          "name": "newOwner",
          "type": "address"
        }
      ],
      "name": "OwnershipTransferred",
      "type": "event"
    },
    {
      "anonymous": false,
      "inputs": [
        {
          "indexed": false,
          "internalType": "address",
          "name": "account",
          "type": "address"
        }
      ],
      "name": "Paused",
      "type": "event"
    },
    {
      "anonymous": false,
      "inputs": [
        {
          "indexed": true,
          "internalType": "address",
          "name": "newOwner",
          "type": "address"
        }
      ],
      "name": "RemovedSubOwner",
      "type": "event"
    },
    {
      "anonymous": false,
      "inputs": [
        {
          "indexed": false,
          "internalType": "uint256",
          "name": "altQuantity",
          "type": "uint256"
        },
        {
          "indexed": false,
          "internalType": "uint256",
          "name": "initiationTimestamp",
          "type": "uint256"
        },
        {
          "indexed": false,
          "internalType": "uint256",
          "name": "durationTimestamp",
          "type": "uint256"
        },
        {
          "indexed": false,
          "internalType": "uint256",
          "name": "rewardAmount",
          "type": "uint256"
        },
        {
          "indexed": false,
          "internalType": "address",
          "name": "staker",
          "type": "address"
        },
        {
          "indexed": false,
          "internalType": "address",
          "name": "phnxContractAddress",
          "type": "address"
        },
        {
          "indexed": false,
          "internalType": "address",
          "name": "portalAddress",
          "type": "address"
        }
      ],
      "name": "StakeCompleted",
      "type": "event"
    },
    {
      "anonymous": false,
      "inputs": [
        {
          "indexed": false,
          "internalType": "address",
          "name": "account",
          "type": "address"
        }
      ],
      "name": "Unpaused",
      "type": "event"
    },
    {
      "anonymous": false,
      "inputs": [
        {
          "indexed": false,
          "internalType": "address",
          "name": "staker",
          "type": "address"
        },
        {
          "indexed": false,
          "internalType": "address",
          "name": "stakedToken",
          "type": "address"
        },
        {
          "indexed": false,
          "internalType": "address",
          "name": "portalAddress",
          "type": "address"
        },
        {
          "indexed": false,
          "internalType": "uint256",
          "name": "altQuantity",
          "type": "uint256"
        },
        {
          "indexed": false,
          "internalType": "uint256",
          "name": "durationTimestamp",
          "type": "uint256"
        }
      ],
      "name": "Unstake",
      "type": "event"
    },
    {
      "inputs": [
        {
          "internalType": "address",
          "name": "newOwner",
          "type": "address"
        }
      ],
      "name": "addOwner",
      "outputs": [],
      "stateMutability": "nonpayable",
      "type": "function"
    },
    {
      "inputs": [],
      "name": "initialize",
      "outputs": [],
      "stateMutability": "nonpayable",
      "type": "function"
    },
    {
      "inputs": [
        {
          "internalType": "address",
          "name": "",
          "type": "address"
        }
      ],
      "name": "isOwner",
      "outputs": [
        {
          "internalType": "bool",
          "name": "",
          "type": "bool"
        }
      ],
      "stateMutability": "view",
      "type": "function"
    },
    {
      "inputs": [],
      "name": "maxStakedQuantity",
      "outputs": [
        {
          "internalType": "uint256",
          "name": "",
          "type": "uint256"
        }
      ],
      "stateMutability": "view",
      "type": "function"
    },
    {
      "inputs": [],
      "name": "owner",
      "outputs": [
        {
          "internalType": "address",
          "name": "",
          "type": "address"
        }
      ],
      "stateMutability": "view",
      "type": "function"
    },
    {
      "inputs": [],
      "name": "pause",
      "outputs": [],
      "stateMutability": "nonpayable",
      "type": "function"
    },
    {
      "inputs": [],
      "name": "paused",
      "outputs": [
        {
          "internalType": "bool",
          "name": "",
          "type": "bool"
        }
      ],
      "stateMutability": "view",
      "type": "function"
    },
    {
      "inputs": [],
      "name": "phnxContractAddress",
      "outputs": [
        {
          "internalType": "address",
          "name": "",
          "type": "address"
        }
      ],
      "stateMutability": "view",
      "type": "function"
    },
    {
      "inputs": [],
      "name": "ratio",
      "outputs": [
        {
          "internalType": "uint256",
          "name": "",
          "type": "uint256"
        }
      ],
      "stateMutability": "view",
      "type": "function"
    },
    {
      "inputs": [
        {
          "internalType": "address",
          "name": "_subOwner",
          "type": "address"
        }
      ],
      "name": "removeOwner",
      "outputs": [],
      "stateMutability": "nonpayable",
      "type": "function"
    },
    {
      "inputs": [],
      "name": "renounceOwnership",
      "outputs": [],
      "stateMutability": "nonpayable",
      "type": "function"
    },
    {
      "inputs": [
        {
          "internalType": "address",
          "name": "_address",
          "type": "address"
        }
      ],
      "name": "setPheonixContractAddress",
      "outputs": [],
      "stateMutability": "nonpayable",
      "type": "function"
    },
    {
      "inputs": [
        {
          "internalType": "uint256",
          "name": "_altQuantity",
          "type": "uint256"
        },
        {
          "internalType": "uint256",
          "name": "_days",
          "type": "uint256"
        }
      ],
      "name": "stakeALT",
      "outputs": [
        {
          "internalType": "uint256",
          "name": "rewardAmount",
          "type": "uint256"
        }
      ],
      "stateMutability": "nonpayable",
      "type": "function"
    },
    {
      "inputs": [],
      "name": "stakeDays",
      "outputs": [
        {
          "internalType": "uint256",
          "name": "",
          "type": "uint256"
        }
      ],
      "stateMutability": "view",
      "type": "function"
    },
    {
      "inputs": [
        {
          "internalType": "address",
          "name": "",
          "type": "address"
        }
      ],
      "name": "stakerBalance",
      "outputs": [
        {
          "internalType": "uint256",
          "name": "",
          "type": "uint256"
        }
      ],
      "stateMutability": "view",
      "type": "function"
    },
    {
      "inputs": [
        {
          "internalType": "uint256",
          "name": "",
          "type": "uint256"
        }
      ],
      "name": "stakerData",
      "outputs": [
        {
          "internalType": "uint256",
          "name": "altQuantity",
          "type": "uint256"
        },
        {
          "internalType": "uint256",
          "name": "initiationTimestamp",
          "type": "uint256"
        },
        {
          "internalType": "uint256",
          "name": "durationTimestamp",
          "type": "uint256"
        },
        {
          "internalType": "uint256",
          "name": "rewardAmount",
          "type": "uint256"
        },
        {
          "internalType": "address",
          "name": "staker",
          "type": "address"
        }
      ],
      "stateMutability": "view",
      "type": "function"
    },
    {
      "inputs": [
        {
          "internalType": "address",
          "name": "newOwner",
          "type": "address"
        }
      ],
      "name": "transferOwnership",
      "outputs": [],
      "stateMutability": "nonpayable",
      "type": "function"
    },
    {
      "inputs": [],
      "name": "unPause",
      "outputs": [],
      "stateMutability": "nonpayable",
      "type": "function"
    },
    {
      "inputs": [
        {
          "internalType": "uint256[]",
          "name": "_expiredTimestamps",
          "type": "uint256[]"
        },
        {
          "internalType": "uint256",
          "name": "_amount",
          "type": "uint256"
        }
      ],
      "name": "unstakeALT",
      "outputs": [
        {
          "internalType": "uint256",
          "name": "",
          "type": "uint256"
        }
      ],
      "stateMutability": "nonpayable",
      "type": "function"
    },
    {
      "inputs": [
        {
          "internalType": "uint256",
          "name": "_quantity",
          "type": "uint256"
        }
      ],
      "name": "updateQuantity",
      "outputs": [],
      "stateMutability": "nonpayable",
      "type": "function"
    },
    {
      "inputs": [
        {
          "internalType": "uint256",
          "name": "_rate",
          "type": "uint256"
        }
      ],
      "name": "updateRatio",
      "outputs": [],
      "stateMutability": "nonpayable",
      "type": "function"
    },
    {
      "inputs": [
        {
          "internalType": "uint256",
          "name": "_time",
          "type": "uint256"
        }
      ],
      "name": "updateTime",
      "outputs": [],
      "stateMutability": "nonpayable",
      "type": "function"
    },
    {
      "inputs": [
        {
          "internalType": "uint256",
          "name": "_stakeDays",
          "type": "uint256"
        }
      ],
      "name": "updatestakeDays",
      "outputs": [],
      "stateMutability": "nonpayable",
      "type": "function"
    },
    {
      "inputs": [],
      "name": "withdrawTokens",
      "outputs": [],
      "stateMutability": "nonpayable",
      "type": "function"
    }
  ],
  "bytecode": "0x608060405234801561001057600080fd5b50611e5d806100206000396000f3fe608060405234801561001057600080fd5b50600436106101585760003560e01c80638129fc1c116100c3578063bace28901161007c578063bace28901461032e578063bed3fe251461039e578063dc647e29146103c4578063eca5b8d3146103e1578063f2fde38b14610407578063f7b188a51461042d57610158565b80638129fc1c146102fe5780638456cb59146103065780638d8f2adb1461030e5780638da5cb5b1461031657806391a6cfd11461031e5780639902d7bd1461032657610158565b80635c975abb116101155780635c975abb1461026e57806369619aaf146102765780636c59bd0c146102ab5780637065cb48146102c8578063715018a6146102ee57806371ca337d146102f657610158565b8063173825d91461015d57806317fa1f471461018557806326f6e1d8146101a25780632f54bf6e146101c657806339218b891461020057806354a2e0271461021d575b600080fd5b6101836004803603602081101561017357600080fd5b50356001600160a01b0316610435565b005b6101836004803603602081101561019b57600080fd5b50356104d2565b6101aa610576565b604080516001600160a01b039092168252519081900360200190f35b6101ec600480360360208110156101dc57600080fd5b50356001600160a01b0316610585565b604080519115158252519081900360200190f35b6101836004803603602081101561021657600080fd5b503561059a565b61023a6004803603602081101561023357600080fd5b50356105f3565b6040805195865260208601949094528484019290925260608401526001600160a01b03166080830152519081900360a00190f35b6101ec61062b565b6102996004803603604081101561028c57600080fd5b5080359060200135610634565b60408051918252519081900360200190f35b610183600480360360208110156102c157600080fd5b50356109ae565b610183600480360360208110156102de57600080fd5b50356001600160a01b0316610a52565b610183610af2565b610299610b7e565b610183610b84565b610183610c82565b610183610ce0565b6101aa610e41565b610299610e50565b610299610e56565b6102996004803603604081101561034457600080fd5b81019060208101813564010000000081111561035f57600080fd5b82018360208201111561037157600080fd5b8035906020019184602083028401116401000000008311171561039357600080fd5b919350915035610e5c565b610183600480360360208110156103b457600080fd5b50356001600160a01b03166113b8565b610183600480360360208110156103da57600080fd5b503561142e565b610299600480360360208110156103f757600080fd5b50356001600160a01b03166114d2565b6101836004803603602081101561041d57600080fd5b50356001600160a01b03166114e4565b6101836115c7565b61043d611623565b6065546001600160a01b039081169116146104895760405162461bcd60e51b8152600401808060200182810382526025815260200180611d946025913960400191505060405180910390fd5b6001600160a01b038116600081815260666020526040808220805460ff19169055517fc4adbb71fb21387c352881f205be328ff9125ae4c658ed8dcbe960a47dbf515a9190a250565b6104da611623565b6065546001600160a01b039081169116146105265760405162461bcd60e51b8152600401808060200182810382526025815260200180611d946025913960400191505060405180910390fd5b60985460ff1615610571576040805162461bcd60e51b815260206004820152601060248201526f14185d5cd8589b194e881c185d5cd95960821b604482015290519081900360640190fd5b60cc55565b60cd546001600160a01b031681565b60666020526000908152604090205460ff1681565b6105a2611623565b6065546001600160a01b039081169116146105ee5760405162461bcd60e51b8152600401808060200182810382526025815260200180611d946025913960400191505060405180910390fd5b60cb55565b60d06020526000908152604090208054600182015460028301546003840154600490940154929391929091906001600160a01b031685565b60985460ff1690565b60985460009060ff1615610682576040805162461bcd60e51b815260206004820152601060248201526f14185d5cd8589b194e881c185d5cd95960821b604482015290519081900360640190fd5b60cb5482111580156106945750600082115b6106d4576040805162461bcd60e51b815260206004820152600c60248201526b496e76616c6964204461797360a01b604482015290519081900360640190fd5b60cc5483111580156106e65750600083115b61072f576040805162461bcd60e51b8152602060048201526015602482015274496e76616c69642050484e58207175616e7469747960581b604482015290519081900360640190fd5b60cd54604080516323b872dd60e01b81523360048201523060248201526044810186905290516001600160a01b03909216916323b872dd916064808201926020929091908290030181600087803b15801561078957600080fd5b505af115801561079d573d6000803e3d6000fd5b505050506040513d60208110156107b357600080fd5b505060ce546107c490849084611627565b42600081815260d06020526040902060040154919250906001600160a01b0316156107f7576107f4816001611657565b90505b6040518060a0016040528085815260200182815260200161082360ca54866116ba90919063ffffffff16565b81526020808201859052336040928301819052600085815260d083528381208551815585840151600182015585850151600282015560608601516003820155608090950151600490950180546001600160a01b0319166001600160a01b0390961695909517909455835260cf905290205461089e9085611657565b33600081815260cf602090815260408083209490945560cd54845163a9059cbb60e01b815260048101949094526024840187905293516001600160a01b039094169363a9059cbb93604480820194918390030190829087803b15801561090357600080fd5b505af1158015610917573d6000803e3d6000fd5b505050506040513d602081101561092d57600080fd5b505060ca547f19b9ed9900d8dcfd5d98ee671f285df607dc913a0d4de13c651b36f247ece08790859083906109639087906116ba565b60cd5460408051948552602085019390935283830191909152606083018690523360808401526001600160a01b031660a08301523060c0830152519081900360e00190a15092915050565b6109b6611623565b6065546001600160a01b03908116911614610a025760405162461bcd60e51b8152600401808060200182810382526025815260200180611d946025913960400191505060405180910390fd5b60985460ff1615610a4d576040805162461bcd60e51b815260206004820152601060248201526f14185d5cd8589b194e881c185d5cd95960821b604482015290519081900360640190fd5b60ca55565b610a5a611623565b6065546001600160a01b03908116911614610aa65760405162461bcd60e51b8152600401808060200182810382526025815260200180611d946025913960400191505060405180910390fd5b6001600160a01b038116600081815260666020526040808220805460ff19166001179055517f76af71f00bdefe934d8091c1c072a3cfb98d86d4c9928629512230c11ce4250c9190a250565b610afa611623565b6065546001600160a01b03908116911614610b465760405162461bcd60e51b8152600401808060200182810382526025815260200180611d946025913960400191505060405180910390fd5b6065546040516000916001600160a01b031690600080516020611dda833981519152908390a3606580546001600160a01b0319169055565b60ce5481565b600054610100900460ff1680610b9d5750610b9d611713565b80610bab575060005460ff16155b610be65760405162461bcd60e51b815260040180806020018281038252602e815260200180611dfa602e913960400191505060405180910390fd5b600054610100900460ff16158015610c11576000805460ff1961ff0019909116610100171660011790555b610c19611719565b610c216117ca565b66026ef10b29462360ce5560cd80546001600160a01b03191673fe1b6abc39e46cec54d275efb4b29b33be176c2a17905569021e19e0c9bab240000060cc5561016d60cb556201518060ca558015610c7f576000805461ff00191690555b50565b610c8a611623565b6065546001600160a01b03908116911614610cd65760405162461bcd60e51b8152600401808060200182810382526025815260200180611d946025913960400191505060405180910390fd5b610cde611867565b565b610ce8611623565b6065546001600160a01b03908116911614610d345760405162461bcd60e51b8152600401808060200182810382526025815260200180611d946025913960400191505060405180910390fd5b60cd546001600160a01b031663a9059cbb610d4d610e41565b60cd54604080516370a0823160e01b815230600482015290516001600160a01b03909216916370a0823191602480820192602092909190829003018186803b158015610d9857600080fd5b505afa158015610dac573d6000803e3d6000fd5b505050506040513d6020811015610dc257600080fd5b5051604080516001600160e01b031960e086901b1681526001600160a01b03909316600484015260248301919091525160448083019260209291908290030181600087803b158015610e1357600080fd5b505af1158015610e27573d6000803e3d6000fd5b505050506040513d6020811015610e3d57600080fd5b5050565b6065546001600160a01b031690565b60cc5481565b60cb5481565b60985460009060ff1615610eaa576040805162461bcd60e51b815260206004820152601060248201526f14185d5cd8589b194e881c185d5cd95960821b604482015290519081900360640190fd5b60008211610eff576040805162461bcd60e51b815260206004820152601f60248201527f416d6f756e742073686f756c642062652067726561746572207468616e203000604482015290519081900360640190fd5b6000805b848110156112bf5760d06000878784818110610f1b57fe5b9050602002013581526020019081526020016000206002015460001415610f7a576040805162461bcd60e51b815260206004820152600e60248201526d139bdd1a1a5b99c81cdd185ad95960921b604482015290519081900360640190fd5b42610fc860d06000898986818110610f8e57fe5b90506020020135815260200190815260200160002060020154888885818110610fb357fe5b9050602002013561165790919063ffffffff16565b1115610fd357600080fd5b60d06000878784818110610fe357fe5b9050602002013581526020019081526020016000206000015484106111695761103d60d0600088888581811061101557fe5b905060200201358152602001908152602001600020600001548561190590919063ffffffff16565b935061107a60d0600088888581811061105257fe5b905060200201358152602001908152602001600020600001548361165790919063ffffffff16565b60cd549092507f844b93bba1dfa65e9a88d080df57fa731c72bebc9653aea6be132abde68c27c39033906001600160a01b03163060d060008b8b888181106110be57fe5b905060200201358152602001908152602001600020600001548a8a878181106110e357fe5b9050602002013560405180866001600160a01b03168152602001856001600160a01b03168152602001846001600160a01b031681526020018381526020018281526020019550505050505060405180910390a1600060d0600088888581811061114857fe5b905060200201358152602001908152602001600020600001819055506112ad565b60d0600087878481811061117957fe5b90506020020135815260200190815260200160002060000154841080156111a05750600084115b156112ad576111e08460d060008989868181106111b957fe5b9050602002013581526020019081526020016000206000015461190590919063ffffffff16565b60d060008888858181106111f057fe5b60209081029290920135835250810191909152604001600020556112148285611657565b60cd549092507f844b93bba1dfa65e9a88d080df57fa731c72bebc9653aea6be132abde68c27c39033906001600160a01b031630878a8a8781811061125557fe5b9050602002013560405180866001600160a01b03168152602001856001600160a01b03168152602001846001600160a01b031681526020018381526020018281526020019550505050505060405180910390a16112bf565b6112b8816001611657565b9050610f03565b5080611304576040805162461bcd60e51b815260206004820152600f60248201526e139bdd08151c985b9cd9995c9c9959608a1b604482015290519081900360640190fd5b33600090815260cf602052604090205461131e9082611905565b33600081815260cf602090815260408083209490945560cd54845163a9059cbb60e01b815260048101949094526024840186905293516001600160a01b039094169363a9059cbb93604480820194918390030190829087803b15801561138357600080fd5b505af1158015611397573d6000803e3d6000fd5b505050506040513d60208110156113ad57600080fd5b509095945050505050565b6113c0611623565b6065546001600160a01b0390811691161461140c5760405162461bcd60e51b8152600401808060200182810382526025815260200180611d946025913960400191505060405180910390fd5b60cd80546001600160a01b0319166001600160a01b0392909216919091179055565b611436611623565b6065546001600160a01b039081169116146114825760405162461bcd60e51b8152600401808060200182810382526025815260200180611d946025913960400191505060405180910390fd5b60985460ff16156114cd576040805162461bcd60e51b815260206004820152601060248201526f14185d5cd8589b194e881c185d5cd95960821b604482015290519081900360640190fd5b60ce55565b60cf6020526000908152604090205481565b6114ec611623565b6065546001600160a01b039081169116146115385760405162461bcd60e51b8152600401808060200182810382526025815260200180611d946025913960400191505060405180910390fd5b6001600160a01b03811661157d5760405162461bcd60e51b8152600401808060200182810382526026815260200180611d6e6026913960400191505060405180910390fd5b6065546040516001600160a01b03808416921690600080516020611dda83398151915290600090a3606580546001600160a01b0319166001600160a01b0392909216919091179055565b6115cf611623565b6065546001600160a01b0390811691161461161b5760405162461bcd60e51b8152600401808060200182810382526025815260200180611d946025913960400191505060405180910390fd5b610cde611947565b3390565b600061164f670de0b6b3a76400006116498461164388886116ba565b906116ba565b906119c8565b949350505050565b6000828201838110156116b1576040805162461bcd60e51b815260206004820152601b60248201527f536166654d6174683a206164646974696f6e206f766572666c6f770000000000604482015290519081900360640190fd5b90505b92915050565b6000826116c9575060006116b4565b828202828482816116d657fe5b04146116b15760405162461bcd60e51b8152600401808060200182810382526021815260200180611db96021913960400191505060405180910390fd5b303b1590565b600054610100900460ff16806117325750611732611713565b80611740575060005460ff16155b61177b5760405162461bcd60e51b815260040180806020018281038252602e815260200180611dfa602e913960400191505060405180910390fd5b600054610100900460ff161580156117a6576000805460ff1961ff0019909116610100171660011790555b6117ae611a0a565b6117b6611aaa565b8015610c7f576000805461ff001916905550565b600054610100900460ff16806117e357506117e3611713565b806117f1575060005460ff16155b61182c5760405162461bcd60e51b815260040180806020018281038252602e815260200180611dfa602e913960400191505060405180910390fd5b600054610100900460ff16158015611857576000805460ff1961ff0019909116610100171660011790555b61185f611a0a565b6117b6611bc6565b60985460ff16156118b2576040805162461bcd60e51b815260206004820152601060248201526f14185d5cd8589b194e881c185d5cd95960821b604482015290519081900360640190fd5b6098805460ff191660011790557f62e78cea01bee320cd4e420270b5ea74000d11b0c9f74754ebdbfc544b05a2586118e8611623565b604080516001600160a01b039092168252519081900360200190a1565b60006116b183836040518060400160405280601e81526020017f536166654d6174683a207375627472616374696f6e206f766572666c6f770000815250611c71565b60985460ff16611995576040805162461bcd60e51b815260206004820152601460248201527314185d5cd8589b194e881b9bdd081c185d5cd95960621b604482015290519081900360640190fd5b6098805460ff191690557f5db9ee0a495bf2e6ff9c91a7834c1ba4fdd244a5e8aa4e537bd38aeae4b073aa6118e8611623565b60006116b183836040518060400160405280601a81526020017f536166654d6174683a206469766973696f6e206279207a65726f000000000000815250611d08565b600054610100900460ff1680611a235750611a23611713565b80611a31575060005460ff16155b611a6c5760405162461bcd60e51b815260040180806020018281038252602e815260200180611dfa602e913960400191505060405180910390fd5b600054610100900460ff161580156117b6576000805460ff1961ff0019909116610100171660011790558015610c7f576000805461ff001916905550565b600054610100900460ff1680611ac35750611ac3611713565b80611ad1575060005460ff16155b611b0c5760405162461bcd60e51b815260040180806020018281038252602e815260200180611dfa602e913960400191505060405180910390fd5b600054610100900460ff16158015611b37576000805460ff1961ff0019909116610100171660011790555b606580546001600160a01b03191633908117909155600081815260666020526040808220805460ff1916600117905551829190600080516020611dda833981519152908290a36040516001600160a01b038216907f76af71f00bdefe934d8091c1c072a3cfb98d86d4c9928629512230c11ce4250c90600090a2508015610c7f576000805461ff001916905550565b600054610100900460ff1680611bdf5750611bdf611713565b80611bed575060005460ff16155b611c285760405162461bcd60e51b815260040180806020018281038252602e815260200180611dfa602e913960400191505060405180910390fd5b600054610100900460ff16158015611c53576000805460ff1961ff0019909116610100171660011790555b6098805460ff191690558015610c7f576000805461ff001916905550565b60008184841115611d005760405162461bcd60e51b81526004018080602001828103825283818151815260200191508051906020019080838360005b83811015611cc5578181015183820152602001611cad565b50505050905090810190601f168015611cf25780820380516001836020036101000a031916815260200191505b509250505060405180910390fd5b505050900390565b60008183611d575760405162461bcd60e51b8152602060048201818152835160248401528351909283926044909101919085019080838360008315611cc5578181015183820152602001611cad565b506000838581611d6357fe5b049594505050505056fe4f776e61626c653a206e6577206f776e657220697320746865207a65726f20616464726573734f776e61626c653a2063616c6c6572206973206e6f7420746865204d61696e206f776e6572536166654d6174683a206d756c7469706c69636174696f6e206f766572666c6f778be0079c531659141344cd1fd0a4f28419497f9722a3daafe3b4186f6b6457e0436f6e747261637420696e7374616e63652068617320616c7265616479206265656e20696e697469616c697a6564a264697066735822122044440830ff19f51a6603bb7f21a60b9a78312d62ec0850185ed7eb04e49fd57664736f6c634300060c0033",
  "compiler": {
    "name": "solc",
    "version": "0.6.12+commit.27d51765.Emscripten.clang",
    "optimizer": {
      "enabled": true,
      "runs": 100
    },
    "evmVersion": "petersburg"
  }
}