{
  "fileName": "DaoStakeContract.sol",
  "contractName": "DaoStakeContract",
  "source": "pragma solidity ^0.6.0;\nimport \"@openzeppelin/contracts-ethereum-package/contracts/access/Ownable.sol\";\nimport \"@openzeppelin/contracts-ethereum-package/contracts/utils/Pausable.sol\";\nimport \"@openzeppelin/contracts-ethereum-package/contracts/math/SafeMath.sol\";\nimport \"@openzeppelin/contracts-ethereum-package/contracts/token/ERC20/IERC20.sol\";\nimport \"./IDaoStakeContract.sol\";\n\n\ncontract DaoStakeContract is IDaoStakeContract, OwnableUpgradeSafe, PausableUpgradeSafe {\n    using SafeMath for uint256;\n\n    address public phnxContractAddress;\n\n    uint256 public constant PRECISION = 1e18;\n    uint256 public constant SECONDS_IN_ONE_YEAR = 365 * 86400;\n    uint256 public stakeTime;\n    uint256 public maxStakedQuantity;\n    uint256 public ratio;\n    uint256 public totalStakedTokens;\n\n    mapping(address => uint256) public stakerBalance;\n    mapping(bytes32 => StakerData) public stakerData;\n\n    constructor(address _phnxContractAddress) public {\n        ratio = 2500;\n        // phnxContractAddress = 0xfe1b6ABc39E46cEc54d275efB4b29B33be176c2A;\n        phnxContractAddress = _phnxContractAddress;\n        maxStakedQuantity = 10000000000000000000000;\n        stakeTime = SECONDS_IN_ONE_YEAR;\n        OwnableUpgradeSafe.__Ownable_init();\n        PausableUpgradeSafe.__Pausable_init();\n    }\n\n    /* @dev stake function which enable the user to stake PHNX Tokens.\n     *  @param _altQuantity, PHNX amount to be staked.\n     *  @param _time, how many days PHNX tokens are staked for (in days)\n     *  @param _beneficiary, beneficiary who will receive reward amount\n     */\n    function stakeFor(\n        uint256 _altQuantity,\n        uint256 _time,\n        address _beneficiary\n    ) external override returns (uint256 rewardAmount) {\n        return _stakeALT(_altQuantity, _time, _beneficiary);\n    }\n\n    /* @dev stake function which enable the user to stake PHNX Tokens.\n     *  @param _altQuantity, PHNX amount to be staked.\n     *  @param _time, how many days PHNX tokens are staked for (in days)\n     */\n    function stakeALT(uint256 _altQuantity, uint256 _time) external override returns (uint256 rewardAmount) {\n        return _stakeALT(_altQuantity, _time, msg.sender);\n    }\n\n    /*  @dev unStake function which enable the user to withdraw his PHNX Tokens.\n     *  @param _expiredStakeIds, id of stakes when PHNX tokens are unlocked.\n     *  @param _amount, amount to be withdrawn by the user.\n     */\n    function unstakeALT(bytes32[] calldata _expiredStakeIds, uint256 _amount)\n        external\n        override\n        whenNotPaused\n        returns (uint256)\n    {\n        require(_amount > 0, \"Amount should be greater than 0\");\n        address sender = msg.sender;\n        require(_amount <= stakerBalance[sender], \"Unstake Amount Greater then amount Staked\");\n        uint256 withdrawAmount = 0;\n        uint256 burnAmount = 0;\n        for (uint256 i = 0; i < _expiredStakeIds.length; i = i.add(1)) {\n            bytes32 stakeId = _expiredStakeIds[i];\n            require(stakerData[stakeId].durationTimestamp != 0, \"Nothing staked\");\n            if (\n                stakerData[stakeId].initiationTimestamp.add(\n                    stakerData[stakeId].durationTimestamp //if timestamp is not expired\n                ) >= block.timestamp\n            ) {\n                uint256 _remainingTime =\n                    (\n                        stakerData[stakeId].durationTimestamp.add(stakerData[stakeId].initiationTimestamp).sub(\n                            block.timestamp\n                        )\n                    );\n                uint256 _totalTime = stakerData[stakeId].durationTimestamp;\n\n                if (_amount >= stakerData[stakeId].altQuantity) {\n                    uint256 stakeBurn = _calculateBurn(stakerData[stakeId].altQuantity, _remainingTime, _totalTime);\n                    burnAmount = burnAmount.add(stakeBurn);\n                    withdrawAmount = withdrawAmount.add(stakerData[stakeId].altQuantity.sub(stakeBurn));\n                    _amount = _amount.sub(stakerData[stakeId].altQuantity);\n                    emit Unstake(\n                        stakeId,\n                        sender,\n                        phnxContractAddress,\n                        address(this),\n                        stakerData[stakeId].altQuantity,\n                        stakerData[stakeId].durationTimestamp\n                    );\n                    stakerData[stakeId].altQuantity = 0;\n                } else if (\n                    (_amount < stakerData[stakeId].altQuantity) && _amount > 0 // if timestamp is expired\n                ) {\n                    stakerData[stakeId].altQuantity = stakerData[stakeId].altQuantity.sub(_amount);\n                    uint256 stakeBurn = _calculateBurn(_amount, _remainingTime, _totalTime);\n                    burnAmount = burnAmount.add(stakeBurn);\n                    withdrawAmount = withdrawAmount.add(_amount.sub(stakeBurn));\n                    emit Unstake(\n                        stakeId,\n                        sender,\n                        phnxContractAddress,\n                        address(this),\n                        _amount,\n                        stakerData[stakeId].durationTimestamp\n                    );\n                    _amount = 0;\n                }\n            } else {\n                if (_amount >= stakerData[stakeId].altQuantity) {\n                    _amount = _amount.sub(stakerData[stakeId].altQuantity);\n                    withdrawAmount = withdrawAmount.add(stakerData[stakeId].altQuantity);\n                    emit Unstake(\n                        stakeId,\n                        sender,\n                        phnxContractAddress,\n                        address(this),\n                        stakerData[stakeId].altQuantity,\n                        stakerData[stakeId].durationTimestamp\n                    );\n                    stakerData[stakeId].altQuantity = 0;\n                } else if ((_amount < stakerData[stakeId].altQuantity) && _amount > 0) {\n                    stakerData[stakeId].altQuantity = stakerData[stakeId].altQuantity.sub(_amount);\n                    withdrawAmount = withdrawAmount.add(_amount);\n                    emit Unstake(\n                        stakeId,\n                        sender,\n                        phnxContractAddress,\n                        address(this),\n                        _amount,\n                        stakerData[stakeId].durationTimestamp\n                    );\n                    break;\n                }\n            }\n        }\n        require(withdrawAmount != 0, \"Not Transferred\");\n\n        stakerBalance[sender] = stakerBalance[sender].sub(withdrawAmount);\n\n        totalStakedTokens = totalStakedTokens.sub(withdrawAmount.add(burnAmount));\n\n        if (burnAmount > 0) {\n            IERC20(phnxContractAddress).transfer(0x0000000000000000000000000000000000000001, burnAmount);\n        }\n\n        IERC20(phnxContractAddress).transfer(sender, withdrawAmount);\n        return withdrawAmount;\n    }\n\n    /* @dev stake function which enable the user to stake PHNX Tokens.\n     *  @param _altQuantity, PHNX amount to be staked.\n     *  @param _time, how many days PHNX tokens are staked for (in days)\n     *  @param _beneficiary, beneficiary who will receive reward amount\n     */\n    function _stakeALT(\n        uint256 _altQuantity,\n        uint256 _time,\n        address _beneficiary\n    ) internal whenNotPaused returns (uint256 rewardAmount) {\n        // check _beneficiary is not zero address\n        require(_beneficiary != address(0), \"Invalid address\");\n        // To check days\n        require(_time <= stakeTime && _time > 0, \"Invalid Time\");\n        // To verify PHNX quantity\n        require(_altQuantity <= maxStakedQuantity && _altQuantity > 0, \"Invalid PHNX quantity\");\n        uint256 _timestamp = block.timestamp;\n        bytes32 stakeId = keccak256(abi.encode(_timestamp, _beneficiary, _altQuantity));\n        require(\n            stakerData[stakeId].staker == address(0),\n            \"Staking ID not unique, staking data already exists on this ID\"\n        );\n        rewardAmount = _calculateReward(_altQuantity, ratio, _time);\n        require(rewardAmount < getTotalrewardTokens(), \"Insufficient Reward Avalaible\");\n        IERC20(phnxContractAddress).transferFrom(msg.sender, address(this), _altQuantity);\n        totalStakedTokens = totalStakedTokens.add(_altQuantity);\n        stakerData[stakeId] = StakerData(_altQuantity, _timestamp, _time, rewardAmount, _beneficiary);\n        stakerBalance[_beneficiary] = stakerBalance[_beneficiary].add(_altQuantity);\n        IERC20(phnxContractAddress).transfer(_beneficiary, rewardAmount);\n        emit StakeCompleted(\n            stakeId,\n            _altQuantity,\n            _timestamp,\n            _time,\n            rewardAmount,\n            _beneficiary,\n            phnxContractAddress,\n            address(this)\n        );\n    }\n\n    /* @dev to calculate reward Amount\n     *  @param _altQuantity , amount of ALT tokens staked.\n     *  @param _ratio rate\n     *  @param _time rate\n     */\n    function _calculateReward(\n        uint256 _altQuantity,\n        uint256 _ratio,\n        uint256 _time\n    ) internal pure returns (uint256 rewardAmount) {\n        rewardAmount = (_altQuantity.mul(_ratio).mul(_time)).div(SECONDS_IN_ONE_YEAR * 10000);\n    }\n\n    /* @dev function to calculate the amount of PHNX token burned incase of early unstake.\n     *@param _amount, The amount of Tokens user is unstaking.\n     *@param _remainingDays, remaining time before the tokens will be unlocked.\n     *@param _totalDays, total days tokens were staked for.\n     */\n    function _calculateBurn(\n        uint256 _amount,\n        uint256 _remainingTime,\n        uint256 _totalTime\n    ) internal pure returns (uint256 burnAmount) {\n        burnAmount = ((_amount * _remainingTime) / _totalTime);\n    }\n\n    /* @dev to set base interest rate. Can only be called by owner\n     *  @param _rate, interest rate (in wei)\n     */\n    function updateRatio(uint256 _rate) external onlyOwner whenNotPaused {\n        emit BaseInterestUpdated(_rate, ratio);\n        ratio = _rate;\n    }\n\n    function updateQuantity(uint256 _quantity) external onlyOwner whenNotPaused {\n        emit QuantityUpdated(_quantity, maxStakedQuantity);\n        maxStakedQuantity = _quantity;\n    }\n\n    /* @dev function to update stakeDays.\n     *@param _stakeDays, updated Days .\n     */\n    function updatestakeDays(uint256 _stakeTime) external onlyOwner {\n        emit StakeDaysUpdated(_stakeTime, stakeTime);\n        stakeTime = stakeTime;\n    }\n\n    /* @dev Funtion to withdraw all PHNX from contract incase of emergency, can only be called by owner.*/\n    function withdrawTokens() external onlyOwner {\n        IERC20(phnxContractAddress).transfer(owner(), IERC20(phnxContractAddress).balanceOf(address(this)));\n        pause();\n    }\n\n    function getTotalrewardTokens() public view returns (uint256) {\n        return IERC20(phnxContractAddress).balanceOf(address(this)).sub(totalStakedTokens);\n    }\n\n    /* @dev function which restricts the user from stakng PHNX tokens. */\n    function pause() public onlyOwner {\n        _pause();\n    }\n\n    /* @dev function which disables the Pause function. */\n    function unPause() public onlyOwner {\n        _unpause();\n    }\n}\n",
  "sourcePath": "contracts/DaoStakeContract.sol",
  "abi": [
    {
      "inputs": [
        {
          "internalType": "address",
          "name": "_phnxContractAddress",
          "type": "address"
        }
      ],
      "stateMutability": "nonpayable",
      "type": "constructor"
    },
    {
      "anonymous": false,
      "inputs": [
        {
          "indexed": true,
          "internalType": "address",
          "name": "newOwner",
          "type": "address"
        }
      ],
      "name": "AddedSubOwner",
      "type": "event"
    },
    {
      "anonymous": false,
      "inputs": [
        {
          "indexed": false,
          "internalType": "uint256",
          "name": "_newRate",
          "type": "uint256"
        },
        {
          "indexed": false,
          "internalType": "uint256",
          "name": "_oldRate",
          "type": "uint256"
        }
      ],
      "name": "BaseInterestUpdated",
      "type": "event"
    },
    {
      "anonymous": false,
      "inputs": [
        {
          "indexed": true,
          "internalType": "address",
          "name": "previousOwner",
          "type": "address"
        },
        {
          "indexed": true,
          "internalType": "address",
          "name": "newOwner",
          "type": "address"
        }
      ],
      "name": "OwnershipTransferred",
      "type": "event"
    },
    {
      "anonymous": false,
      "inputs": [
        {
          "indexed": false,
          "internalType": "address",
          "name": "account",
          "type": "address"
        }
      ],
      "name": "Paused",
      "type": "event"
    },
    {
      "anonymous": false,
      "inputs": [
        {
          "indexed": false,
          "internalType": "uint256",
          "name": "_newQuantity",
          "type": "uint256"
        },
        {
          "indexed": false,
          "internalType": "uint256",
          "name": "_oldQuanitity",
          "type": "uint256"
        }
      ],
      "name": "QuantityUpdated",
      "type": "event"
    },
    {
      "anonymous": false,
      "inputs": [
        {
          "indexed": true,
          "internalType": "address",
          "name": "newOwner",
          "type": "address"
        }
      ],
      "name": "RemovedSubOwner",
      "type": "event"
    },
    {
      "anonymous": false,
      "inputs": [
        {
          "indexed": false,
          "internalType": "bytes32",
          "name": "stakeID",
          "type": "bytes32"
        },
        {
          "indexed": false,
          "internalType": "uint256",
          "name": "altQuantity",
          "type": "uint256"
        },
        {
          "indexed": false,
          "internalType": "uint256",
          "name": "initiationTimestamp",
          "type": "uint256"
        },
        {
          "indexed": false,
          "internalType": "uint256",
          "name": "durationTimestamp",
          "type": "uint256"
        },
        {
          "indexed": false,
          "internalType": "uint256",
          "name": "rewardAmount",
          "type": "uint256"
        },
        {
          "indexed": false,
          "internalType": "address",
          "name": "staker",
          "type": "address"
        },
        {
          "indexed": false,
          "internalType": "address",
          "name": "phnxContractAddress",
          "type": "address"
        },
        {
          "indexed": false,
          "internalType": "address",
          "name": "portalAddress",
          "type": "address"
        }
      ],
      "name": "StakeCompleted",
      "type": "event"
    },
    {
      "anonymous": false,
      "inputs": [
        {
          "indexed": false,
          "internalType": "uint256",
          "name": "_newdays",
          "type": "uint256"
        },
        {
          "indexed": false,
          "internalType": "uint256",
          "name": "_oldDays",
          "type": "uint256"
        }
      ],
      "name": "StakeDaysUpdated",
      "type": "event"
    },
    {
      "anonymous": false,
      "inputs": [
        {
          "indexed": false,
          "internalType": "address",
          "name": "account",
          "type": "address"
        }
      ],
      "name": "Unpaused",
      "type": "event"
    },
    {
      "anonymous": false,
      "inputs": [
        {
          "indexed": false,
          "internalType": "bytes32",
          "name": "stakeID",
          "type": "bytes32"
        },
        {
          "indexed": false,
          "internalType": "address",
          "name": "staker",
          "type": "address"
        },
        {
          "indexed": false,
          "internalType": "address",
          "name": "stakedToken",
          "type": "address"
        },
        {
          "indexed": false,
          "internalType": "address",
          "name": "portalAddress",
          "type": "address"
        },
        {
          "indexed": false,
          "internalType": "uint256",
          "name": "altQuantity",
          "type": "uint256"
        },
        {
          "indexed": false,
          "internalType": "uint256",
          "name": "durationTimestamp",
          "type": "uint256"
        }
      ],
      "name": "Unstake",
      "type": "event"
    },
    {
      "inputs": [],
      "name": "PRECISION",
      "outputs": [
        {
          "internalType": "uint256",
          "name": "",
          "type": "uint256"
        }
      ],
      "stateMutability": "view",
      "type": "function"
    },
    {
      "inputs": [],
      "name": "SECONDS_IN_ONE_YEAR",
      "outputs": [
        {
          "internalType": "uint256",
          "name": "",
          "type": "uint256"
        }
      ],
      "stateMutability": "view",
      "type": "function"
    },
    {
      "inputs": [],
      "name": "getTotalrewardTokens",
      "outputs": [
        {
          "internalType": "uint256",
          "name": "",
          "type": "uint256"
        }
      ],
      "stateMutability": "view",
      "type": "function"
    },
    {
      "inputs": [],
      "name": "maxStakedQuantity",
      "outputs": [
        {
          "internalType": "uint256",
          "name": "",
          "type": "uint256"
        }
      ],
      "stateMutability": "view",
      "type": "function"
    },
    {
      "inputs": [],
      "name": "owner",
      "outputs": [
        {
          "internalType": "address",
          "name": "",
          "type": "address"
        }
      ],
      "stateMutability": "view",
      "type": "function"
    },
    {
      "inputs": [],
      "name": "pause",
      "outputs": [],
      "stateMutability": "nonpayable",
      "type": "function"
    },
    {
      "inputs": [],
      "name": "paused",
      "outputs": [
        {
          "internalType": "bool",
          "name": "",
          "type": "bool"
        }
      ],
      "stateMutability": "view",
      "type": "function"
    },
    {
      "inputs": [],
      "name": "phnxContractAddress",
      "outputs": [
        {
          "internalType": "address",
          "name": "",
          "type": "address"
        }
      ],
      "stateMutability": "view",
      "type": "function"
    },
    {
      "inputs": [],
      "name": "ratio",
      "outputs": [
        {
          "internalType": "uint256",
          "name": "",
          "type": "uint256"
        }
      ],
      "stateMutability": "view",
      "type": "function"
    },
    {
      "inputs": [],
      "name": "renounceOwnership",
      "outputs": [],
      "stateMutability": "nonpayable",
      "type": "function"
    },
    {
      "inputs": [
        {
          "internalType": "uint256",
          "name": "_altQuantity",
          "type": "uint256"
        },
        {
          "internalType": "uint256",
          "name": "_time",
          "type": "uint256"
        }
      ],
      "name": "stakeALT",
      "outputs": [
        {
          "internalType": "uint256",
          "name": "rewardAmount",
          "type": "uint256"
        }
      ],
      "stateMutability": "nonpayable",
      "type": "function"
    },
    {
      "inputs": [
        {
          "internalType": "uint256",
          "name": "_altQuantity",
          "type": "uint256"
        },
        {
          "internalType": "uint256",
          "name": "_time",
          "type": "uint256"
        },
        {
          "internalType": "address",
          "name": "_beneficiary",
          "type": "address"
        }
      ],
      "name": "stakeFor",
      "outputs": [
        {
          "internalType": "uint256",
          "name": "rewardAmount",
          "type": "uint256"
        }
      ],
      "stateMutability": "nonpayable",
      "type": "function"
    },
    {
      "inputs": [],
      "name": "stakeTime",
      "outputs": [
        {
          "internalType": "uint256",
          "name": "",
          "type": "uint256"
        }
      ],
      "stateMutability": "view",
      "type": "function"
    },
    {
      "inputs": [
        {
          "internalType": "address",
          "name": "",
          "type": "address"
        }
      ],
      "name": "stakerBalance",
      "outputs": [
        {
          "internalType": "uint256",
          "name": "",
          "type": "uint256"
        }
      ],
      "stateMutability": "view",
      "type": "function"
    },
    {
      "inputs": [
        {
          "internalType": "bytes32",
          "name": "",
          "type": "bytes32"
        }
      ],
      "name": "stakerData",
      "outputs": [
        {
          "internalType": "uint256",
          "name": "altQuantity",
          "type": "uint256"
        },
        {
          "internalType": "uint256",
          "name": "initiationTimestamp",
          "type": "uint256"
        },
        {
          "internalType": "uint256",
          "name": "durationTimestamp",
          "type": "uint256"
        },
        {
          "internalType": "uint256",
          "name": "rewardAmount",
          "type": "uint256"
        },
        {
          "internalType": "address",
          "name": "staker",
          "type": "address"
        }
      ],
      "stateMutability": "view",
      "type": "function"
    },
    {
      "inputs": [],
      "name": "totalStakedTokens",
      "outputs": [
        {
          "internalType": "uint256",
          "name": "",
          "type": "uint256"
        }
      ],
      "stateMutability": "view",
      "type": "function"
    },
    {
      "inputs": [
        {
          "internalType": "address",
          "name": "newOwner",
          "type": "address"
        }
      ],
      "name": "transferOwnership",
      "outputs": [],
      "stateMutability": "nonpayable",
      "type": "function"
    },
    {
      "inputs": [],
      "name": "unPause",
      "outputs": [],
      "stateMutability": "nonpayable",
      "type": "function"
    },
    {
      "inputs": [
        {
          "internalType": "bytes32[]",
          "name": "_expiredStakeIds",
          "type": "bytes32[]"
        },
        {
          "internalType": "uint256",
          "name": "_amount",
          "type": "uint256"
        }
      ],
      "name": "unstakeALT",
      "outputs": [
        {
          "internalType": "uint256",
          "name": "",
          "type": "uint256"
        }
      ],
      "stateMutability": "nonpayable",
      "type": "function"
    },
    {
      "inputs": [
        {
          "internalType": "uint256",
          "name": "_quantity",
          "type": "uint256"
        }
      ],
      "name": "updateQuantity",
      "outputs": [],
      "stateMutability": "nonpayable",
      "type": "function"
    },
    {
      "inputs": [
        {
          "internalType": "uint256",
          "name": "_rate",
          "type": "uint256"
        }
      ],
      "name": "updateRatio",
      "outputs": [],
      "stateMutability": "nonpayable",
      "type": "function"
    },
    {
      "inputs": [
        {
          "internalType": "uint256",
          "name": "_stakeTime",
          "type": "uint256"
        }
      ],
      "name": "updatestakeDays",
      "outputs": [],
      "stateMutability": "nonpayable",
      "type": "function"
    },
    {
      "inputs": [],
      "name": "withdrawTokens",
      "outputs": [],
      "stateMutability": "nonpayable",
      "type": "function"
    }
  ],
  "bytecode": "0x60806040523480156200001157600080fd5b5060405162003b9b38038062003b9b833981810160405260208110156200003757600080fd5b81019080805190602001909291905050506109c460cc819055508060c960006101000a81548173ffffffffffffffffffffffffffffffffffffffff021916908373ffffffffffffffffffffffffffffffffffffffff16021790555069021e19e0c9bab240000060cb819055506301e1338060ca81905550620000c3620000df60201b62001f3a1760201c565b620000d86200020b60201b620020481760201c565b5062000772565b600060019054906101000a900460ff1680620001075750620001066200033760201b60201c565b5b806200011e575060008054906101000a900460ff16155b62000175576040517f08c379a000000000000000000000000000000000000000000000000000000000815260040180806020018281038252602e81526020018062003b6d602e913960400191505060405180910390fd5b60008060019054906101000a900460ff161590508015620001c6576001600060016101000a81548160ff02191690831515021790555060016000806101000a81548160ff0219169083151502179055505b620001d66200034e60201b60201c565b620001e66200045a60201b60201c565b8015620002085760008060016101000a81548160ff0219169083151502179055505b50565b600060019054906101000a900460ff1680620002335750620002326200033760201b60201c565b5b806200024a575060008054906101000a900460ff16155b620002a1576040517f08c379a000000000000000000000000000000000000000000000000000000000815260040180806020018281038252602e81526020018062003b6d602e913960400191505060405180910390fd5b60008060019054906101000a900460ff161590508015620002f2576001600060016101000a81548160ff02191690831515021790555060016000806101000a81548160ff0219169083151502179055505b620003026200034e60201b60201c565b620003126200064b60201b60201c565b8015620003345760008060016101000a81548160ff0219169083151502179055505b50565b6000803090506000813b9050600081149250505090565b600060019054906101000a900460ff1680620003765750620003756200033760201b60201c565b5b806200038d575060008054906101000a900460ff16155b620003e4576040517f08c379a000000000000000000000000000000000000000000000000000000000815260040180806020018281038252602e81526020018062003b6d602e913960400191505060405180910390fd5b60008060019054906101000a900460ff16159050801562000435576001600060016101000a81548160ff02191690831515021790555060016000806101000a81548160ff0219169083151502179055505b8015620004575760008060016101000a81548160ff0219169083151502179055505b50565b600060019054906101000a900460ff1680620004825750620004816200033760201b60201c565b5b8062000499575060008054906101000a900460ff16155b620004f0576040517f08c379a000000000000000000000000000000000000000000000000000000000815260040180806020018281038252602e81526020018062003b6d602e913960400191505060405180910390fd5b60008060019054906101000a900460ff16159050801562000541576001600060016101000a81548160ff02191690831515021790555060016000806101000a81548160ff0219169083151502179055505b600033905080606560006101000a81548173ffffffffffffffffffffffffffffffffffffffff021916908373ffffffffffffffffffffffffffffffffffffffff1602179055508073ffffffffffffffffffffffffffffffffffffffff16600073ffffffffffffffffffffffffffffffffffffffff167f8be0079c531659141344cd1fd0a4f28419497f9722a3daafe3b4186f6b6457e060405160405180910390a38073ffffffffffffffffffffffffffffffffffffffff167f76af71f00bdefe934d8091c1c072a3cfb98d86d4c9928629512230c11ce4250c60405160405180910390a2508015620006485760008060016101000a81548160ff0219169083151502179055505b50565b600060019054906101000a900460ff1680620006735750620006726200033760201b60201c565b5b806200068a575060008054906101000a900460ff16155b620006e1576040517f08c379a000000000000000000000000000000000000000000000000000000000815260040180806020018281038252602e81526020018062003b6d602e913960400191505060405180910390fd5b60008060019054906101000a900460ff16159050801562000732576001600060016101000a81548160ff02191690831515021790555060016000806101000a81548160ff0219169083151502179055505b6000609760006101000a81548160ff02191690831515021790555080156200076f5760008060016101000a81548160ff0219169083151502179055505b50565b6133eb80620007826000396000f3fe608060405234801561001057600080fd5b506004361061014d5760003560e01c80638d8f2adb116100c3578063b77a2c1c1161007c578063b77a2c1c14610457578063dc647e2914610475578063e6cbee54146104a3578063eca5b8d314610517578063f2fde38b1461056f578063f7b188a5146105b35761014d565b80638d8f2adb146103535780638da5cb5b1461035d57806391a6cfd11461039157806398e5f3c4146103af578063aaf5eb68146103cd578063b1b0ebcc146103eb5761014d565b80635693213211610115578063569321321461021e5780635c975abb146102b557806369619aaf146102d5578063715018a61461032157806371ca337d1461032b5780638456cb59146103495761014d565b806317fa1f471461015257806326f6e1d81461018057806333aad346146101b457806339218b89146101d25780633ae7325914610200575b600080fd5b61017e6004803603602081101561016857600080fd5b81019080803590602001909291905050506105bd565b005b610188610738565b604051808273ffffffffffffffffffffffffffffffffffffffff16815260200191505060405180910390f35b6101bc61075e565b6040518082815260200191505060405180910390f35b6101fe600480360360208110156101e857600080fd5b810190808035906020019092919050505061083d565b005b610208610937565b6040518082815260200191505060405180910390f35b61029f6004803603604081101561023457600080fd5b810190808035906020019064010000000081111561025157600080fd5b82018360208201111561026357600080fd5b8035906020019184602083028401116401000000008311171561028557600080fd5b90919293919293908035906020019092919050505061093d565b6040518082815260200191505060405180910390f35b6102bd6115a0565b60405180821515815260200191505060405180910390f35b61030b600480360360408110156102eb57600080fd5b8101908080359060200190929190803590602001909291905050506115b7565b6040518082815260200191505060405180910390f35b6103296115cc565b005b61033361173a565b6040518082815260200191505060405180910390f35b610351611740565b005b61035b6117f7565b005b610365611a47565b604051808273ffffffffffffffffffffffffffffffffffffffff16815260200191505060405180910390f35b610399611a71565b6040518082815260200191505060405180910390f35b6103b7611a77565b6040518082815260200191505060405180910390f35b6103d5611a7f565b6040518082815260200191505060405180910390f35b6104416004803603606081101561040157600080fd5b810190808035906020019092919080359060200190929190803573ffffffffffffffffffffffffffffffffffffffff169060200190929190505050611a8b565b6040518082815260200191505060405180910390f35b61045f611aa1565b6040518082815260200191505060405180910390f35b6104a16004803603602081101561048b57600080fd5b8101908080359060200190929190505050611aa7565b005b6104cf600480360360208110156104b957600080fd5b8101908080359060200190929190505050611c22565b604051808681526020018581526020018481526020018381526020018273ffffffffffffffffffffffffffffffffffffffff1681526020019550505050505060405180910390f35b6105596004803603602081101561052d57600080fd5b81019080803573ffffffffffffffffffffffffffffffffffffffff169060200190929190505050611c78565b6040518082815260200191505060405180910390f35b6105b16004803603602081101561058557600080fd5b81019080803573ffffffffffffffffffffffffffffffffffffffff169060200190929190505050611c90565b005b6105bb611e83565b005b6105c5612156565b73ffffffffffffffffffffffffffffffffffffffff16606560009054906101000a900473ffffffffffffffffffffffffffffffffffffffff1673ffffffffffffffffffffffffffffffffffffffff161461066a576040517f08c379a00000000000000000000000000000000000000000000000000000000081526004018080602001828103825260258152602001806132dc6025913960400191505060405180910390fd5b609760009054906101000a900460ff16156106ed576040517f08c379a00000000000000000000000000000000000000000000000000000000081526004018080602001828103825260108152602001807f5061757361626c653a207061757365640000000000000000000000000000000081525060200191505060405180910390fd5b7f8b8dc02fa611075efc1241daba0e953699ed8b00d177cc4cd5ffe82696af2c098160cb54604051808381526020018281526020019250505060405180910390a18060cb8190555050565b60c960009054906101000a900473ffffffffffffffffffffffffffffffffffffffff1681565b600061083860cd5460c960009054906101000a900473ffffffffffffffffffffffffffffffffffffffff1673ffffffffffffffffffffffffffffffffffffffff166370a08231306040518263ffffffff1660e01b8152600401808273ffffffffffffffffffffffffffffffffffffffff16815260200191505060206040518083038186803b1580156107ef57600080fd5b505afa158015610803573d6000803e3d6000fd5b505050506040513d602081101561081957600080fd5b810190808051906020019092919050505061215e90919063ffffffff16565b905090565b610845612156565b73ffffffffffffffffffffffffffffffffffffffff16606560009054906101000a900473ffffffffffffffffffffffffffffffffffffffff1673ffffffffffffffffffffffffffffffffffffffff16146108ea576040517f08c379a00000000000000000000000000000000000000000000000000000000081526004018080602001828103825260258152602001806132dc6025913960400191505060405180910390fd5b7fa737ea914bb044d5719e2421f99e17985dc58b1c78cd36e9841d9bc9e4389b078160ca54604051808381526020018281526020019250505060405180910390a160ca5460ca8190555050565b60cd5481565b6000609760009054906101000a900460ff16156109c2576040517f08c379a00000000000000000000000000000000000000000000000000000000081526004018080602001828103825260108152602001807f5061757361626c653a207061757365640000000000000000000000000000000081525060200191505060405180910390fd5b60008211610a38576040517f08c379a000000000000000000000000000000000000000000000000000000000815260040180806020018281038252601f8152602001807f416d6f756e742073686f756c642062652067726561746572207468616e20300081525060200191505060405180910390fd5b600033905060ce60008273ffffffffffffffffffffffffffffffffffffffff1673ffffffffffffffffffffffffffffffffffffffff16815260200190815260200160002054831115610ad5576040517f08c379a00000000000000000000000000000000000000000000000000000000081526004018080602001828103825260298152602001806133506029913960400191505060405180910390fd5b60008060005b878790508110156112b0576000888883818110610af457fe5b905060200201359050600060cf6000838152602001908152602001600020600201541415610b8a576040517f08c379a000000000000000000000000000000000000000000000000000000000815260040180806020018281038252600e8152602001807f4e6f7468696e67207374616b656400000000000000000000000000000000000081525060200191505060405180910390fd5b42610bca60cf60008481526020019081526020016000206002015460cf6000858152602001908152602001600020600101546121a890919063ffffffff16565b10610fae576000610c2242610c1460cf60008681526020019081526020016000206001015460cf6000878152602001908152602001600020600201546121a890919063ffffffff16565b61215e90919063ffffffff16565b9050600060cf600084815260200190815260200160002060020154905060cf6000848152602001908152602001600020600001548910610e0f576000610c7f60cf6000868152602001908152602001600020600001548484612230565b9050610c9481876121a890919063ffffffff16565b9550610cd1610cc28260cf60008881526020019081526020016000206000015461215e90919063ffffffff16565b886121a890919063ffffffff16565b9650610cfc60cf6000868152602001908152602001600020600001548b61215e90919063ffffffff16565b99507f3a30fe8c7f2005398a90f0dfe477334215d5089ebff0cbd84b4c98599446b96a848960c960009054906101000a900473ffffffffffffffffffffffffffffffffffffffff163060cf60008a81526020019081526020016000206000015460cf60008b815260200190815260200160002060020154604051808781526020018673ffffffffffffffffffffffffffffffffffffffff1681526020018573ffffffffffffffffffffffffffffffffffffffff1681526020018473ffffffffffffffffffffffffffffffffffffffff168152602001838152602001828152602001965050505050505060405180910390a1600060cf60008681526020019081526020016000206000018190555050610fa7565b60cf60008481526020019081526020016000206000015489108015610e345750600089115b15610fa657610e628960cf60008681526020019081526020016000206000015461215e90919063ffffffff16565b60cf6000858152602001908152602001600020600001819055506000610e898a8484612230565b9050610e9e81876121a890919063ffffffff16565b9550610ec5610eb6828c61215e90919063ffffffff16565b886121a890919063ffffffff16565b96507f3a30fe8c7f2005398a90f0dfe477334215d5089ebff0cbd84b4c98599446b96a848960c960009054906101000a900473ffffffffffffffffffffffffffffffffffffffff16308e60cf60008b815260200190815260200160002060020154604051808781526020018673ffffffffffffffffffffffffffffffffffffffff1681526020018573ffffffffffffffffffffffffffffffffffffffff1681526020018473ffffffffffffffffffffffffffffffffffffffff168152602001838152602001828152602001965050505050505060405180910390a160009950505b5b5050611294565b60cf600082815260200190815260200160002060000154871061113157610ff460cf6000838152602001908152602001600020600001548861215e90919063ffffffff16565b965061101f60cf600083815260200190815260200160002060000154856121a890919063ffffffff16565b93507f3a30fe8c7f2005398a90f0dfe477334215d5089ebff0cbd84b4c98599446b96a818660c960009054906101000a900473ffffffffffffffffffffffffffffffffffffffff163060cf60008781526020019081526020016000206000015460cf600088815260200190815260200160002060020154604051808781526020018673ffffffffffffffffffffffffffffffffffffffff1681526020018573ffffffffffffffffffffffffffffffffffffffff1681526020018473ffffffffffffffffffffffffffffffffffffffff168152602001838152602001828152602001965050505050505060405180910390a1600060cf600083815260200190815260200160002060000181905550611293565b60cf600082815260200190815260200160002060000154871080156111565750600087115b15611292576111848760cf60008481526020019081526020016000206000015461215e90919063ffffffff16565b60cf6000838152602001908152602001600020600001819055506111b187856121a890919063ffffffff16565b93507f3a30fe8c7f2005398a90f0dfe477334215d5089ebff0cbd84b4c98599446b96a818660c960009054906101000a900473ffffffffffffffffffffffffffffffffffffffff16308b60cf600088815260200190815260200160002060020154604051808781526020018673ffffffffffffffffffffffffffffffffffffffff1681526020018573ffffffffffffffffffffffffffffffffffffffff1681526020018473ffffffffffffffffffffffffffffffffffffffff168152602001838152602001828152602001965050505050505060405180910390a1506112b0565b5b5b506112a96001826121a890919063ffffffff16565b9050610adb565b506000821415611328576040517f08c379a000000000000000000000000000000000000000000000000000000000815260040180806020018281038252600f8152602001807f4e6f74205472616e73666572726564000000000000000000000000000000000081525060200191505060405180910390fd5b61137a8260ce60008673ffffffffffffffffffffffffffffffffffffffff1673ffffffffffffffffffffffffffffffffffffffff1681526020019081526020016000205461215e90919063ffffffff16565b60ce60008573ffffffffffffffffffffffffffffffffffffffff1673ffffffffffffffffffffffffffffffffffffffff168152602001908152602001600020819055506113e46113d382846121a890919063ffffffff16565b60cd5461215e90919063ffffffff16565b60cd8190555060008111156114c45760c960009054906101000a900473ffffffffffffffffffffffffffffffffffffffff1673ffffffffffffffffffffffffffffffffffffffff1663a9059cbb6001836040518363ffffffff1660e01b8152600401808373ffffffffffffffffffffffffffffffffffffffff16815260200182815260200192505050602060405180830381600087803b15801561148757600080fd5b505af115801561149b573d6000803e3d6000fd5b505050506040513d60208110156114b157600080fd5b8101908080519060200190929190505050505b60c960009054906101000a900473ffffffffffffffffffffffffffffffffffffffff1673ffffffffffffffffffffffffffffffffffffffff1663a9059cbb84846040518363ffffffff1660e01b8152600401808373ffffffffffffffffffffffffffffffffffffffff16815260200182815260200192505050602060405180830381600087803b15801561155757600080fd5b505af115801561156b573d6000803e3d6000fd5b505050506040513d602081101561158157600080fd5b8101908080519060200190929190505050508193505050509392505050565b6000609760009054906101000a900460ff16905090565b60006115c4838333612247565b905092915050565b6115d4612156565b73ffffffffffffffffffffffffffffffffffffffff16606560009054906101000a900473ffffffffffffffffffffffffffffffffffffffff1673ffffffffffffffffffffffffffffffffffffffff1614611679576040517f08c379a00000000000000000000000000000000000000000000000000000000081526004018080602001828103825260258152602001806132dc6025913960400191505060405180910390fd5b600073ffffffffffffffffffffffffffffffffffffffff16606560009054906101000a900473ffffffffffffffffffffffffffffffffffffffff1673ffffffffffffffffffffffffffffffffffffffff167f8be0079c531659141344cd1fd0a4f28419497f9722a3daafe3b4186f6b6457e060405160405180910390a36000606560006101000a81548173ffffffffffffffffffffffffffffffffffffffff021916908373ffffffffffffffffffffffffffffffffffffffff160217905550565b60cc5481565b611748612156565b73ffffffffffffffffffffffffffffffffffffffff16606560009054906101000a900473ffffffffffffffffffffffffffffffffffffffff1673ffffffffffffffffffffffffffffffffffffffff16146117ed576040517f08c379a00000000000000000000000000000000000000000000000000000000081526004018080602001828103825260258152602001806132dc6025913960400191505060405180910390fd5b6117f5612a1d565b565b6117ff612156565b73ffffffffffffffffffffffffffffffffffffffff16606560009054906101000a900473ffffffffffffffffffffffffffffffffffffffff1673ffffffffffffffffffffffffffffffffffffffff16146118a4576040517f08c379a00000000000000000000000000000000000000000000000000000000081526004018080602001828103825260258152602001806132dc6025913960400191505060405180910390fd5b60c960009054906101000a900473ffffffffffffffffffffffffffffffffffffffff1673ffffffffffffffffffffffffffffffffffffffff1663a9059cbb6118ea611a47565b60c960009054906101000a900473ffffffffffffffffffffffffffffffffffffffff1673ffffffffffffffffffffffffffffffffffffffff166370a08231306040518263ffffffff1660e01b8152600401808273ffffffffffffffffffffffffffffffffffffffff16815260200191505060206040518083038186803b15801561197357600080fd5b505afa158015611987573d6000803e3d6000fd5b505050506040513d602081101561199d57600080fd5b81019080805190602001909291905050506040518363ffffffff1660e01b8152600401808373ffffffffffffffffffffffffffffffffffffffff16815260200182815260200192505050602060405180830381600087803b158015611a0157600080fd5b505af1158015611a15573d6000803e3d6000fd5b505050506040513d6020811015611a2b57600080fd5b810190808051906020019092919050505050611a45611740565b565b6000606560009054906101000a900473ffffffffffffffffffffffffffffffffffffffff16905090565b60cb5481565b6301e1338081565b670de0b6b3a764000081565b6000611a98848484612247565b90509392505050565b60ca5481565b611aaf612156565b73ffffffffffffffffffffffffffffffffffffffff16606560009054906101000a900473ffffffffffffffffffffffffffffffffffffffff1673ffffffffffffffffffffffffffffffffffffffff1614611b54576040517f08c379a00000000000000000000000000000000000000000000000000000000081526004018080602001828103825260258152602001806132dc6025913960400191505060405180910390fd5b609760009054906101000a900460ff1615611bd7576040517f08c379a00000000000000000000000000000000000000000000000000000000081526004018080602001828103825260108152602001807f5061757361626c653a207061757365640000000000000000000000000000000081525060200191505060405180910390fd5b7f9ad6c57db0acd3a9bb6252909abb3ed9c280e1259701afd4730f4e5518d0ce788160cc54604051808381526020018281526020019250505060405180910390a18060cc8190555050565b60cf6020528060005260406000206000915090508060000154908060010154908060020154908060030154908060040160009054906101000a900473ffffffffffffffffffffffffffffffffffffffff16905085565b60ce6020528060005260406000206000915090505481565b611c98612156565b73ffffffffffffffffffffffffffffffffffffffff16606560009054906101000a900473ffffffffffffffffffffffffffffffffffffffff1673ffffffffffffffffffffffffffffffffffffffff1614611d3d576040517f08c379a00000000000000000000000000000000000000000000000000000000081526004018080602001828103825260258152602001806132dc6025913960400191505060405180910390fd5b600073ffffffffffffffffffffffffffffffffffffffff168173ffffffffffffffffffffffffffffffffffffffff161415611dc3576040517f08c379a00000000000000000000000000000000000000000000000000000000081526004018080602001828103825260268152602001806132b66026913960400191505060405180910390fd5b8073ffffffffffffffffffffffffffffffffffffffff16606560009054906101000a900473ffffffffffffffffffffffffffffffffffffffff1673ffffffffffffffffffffffffffffffffffffffff167f8be0079c531659141344cd1fd0a4f28419497f9722a3daafe3b4186f6b6457e060405160405180910390a380606560006101000a81548173ffffffffffffffffffffffffffffffffffffffff021916908373ffffffffffffffffffffffffffffffffffffffff16021790555050565b611e8b612156565b73ffffffffffffffffffffffffffffffffffffffff16606560009054906101000a900473ffffffffffffffffffffffffffffffffffffffff1673ffffffffffffffffffffffffffffffffffffffff1614611f30576040517f08c379a00000000000000000000000000000000000000000000000000000000081526004018080602001828103825260258152602001806132dc6025913960400191505060405180910390fd5b611f38612b11565b565b600060019054906101000a900460ff1680611f595750611f58612c04565b5b80611f6f575060008054906101000a900460ff16155b611fc4576040517f08c379a000000000000000000000000000000000000000000000000000000000815260040180806020018281038252602e815260200180613322602e913960400191505060405180910390fd5b60008060019054906101000a900460ff161590508015612014576001600060016101000a81548160ff02191690831515021790555060016000806101000a81548160ff0219169083151502179055505b61201c612c1b565b612024612d19565b80156120455760008060016101000a81548160ff0219169083151502179055505b50565b600060019054906101000a900460ff16806120675750612066612c04565b5b8061207d575060008054906101000a900460ff16155b6120d2576040517f08c379a000000000000000000000000000000000000000000000000000000000815260040180806020018281038252602e815260200180613322602e913960400191505060405180910390fd5b60008060019054906101000a900460ff161590508015612122576001600060016101000a81548160ff02191690831515021790555060016000806101000a81548160ff0219169083151502179055505b61212a612c1b565b612132612efc565b80156121535760008060016101000a81548160ff0219169083151502179055505b50565b600033905090565b60006121a083836040518060400160405280601e81526020017f536166654d6174683a207375627472616374696f6e206f766572666c6f770000815250613015565b905092915050565b600080828401905083811015612226576040517f08c379a000000000000000000000000000000000000000000000000000000000815260040180806020018281038252601b8152602001807f536166654d6174683a206164646974696f6e206f766572666c6f77000000000081525060200191505060405180910390fd5b8091505092915050565b6000818385028161223d57fe5b0490509392505050565b6000609760009054906101000a900460ff16156122cc576040517f08c379a00000000000000000000000000000000000000000000000000000000081526004018080602001828103825260108152602001807f5061757361626c653a207061757365640000000000000000000000000000000081525060200191505060405180910390fd5b600073ffffffffffffffffffffffffffffffffffffffff168273ffffffffffffffffffffffffffffffffffffffff16141561236f576040517f08c379a000000000000000000000000000000000000000000000000000000000815260040180806020018281038252600f8152602001807f496e76616c69642061646472657373000000000000000000000000000000000081525060200191505060405180910390fd5b60ca5483111580156123815750600083115b6123f3576040517f08c379a000000000000000000000000000000000000000000000000000000000815260040180806020018281038252600c8152602001807f496e76616c69642054696d65000000000000000000000000000000000000000081525060200191505060405180910390fd5b60cb5484111580156124055750600084115b612477576040517f08c379a00000000000000000000000000000000000000000000000000000000081526004018080602001828103825260158152602001807f496e76616c69642050484e58207175616e74697479000000000000000000000081525060200191505060405180910390fd5b60004290506000818487604051602001808481526020018373ffffffffffffffffffffffffffffffffffffffff1681526020018281526020019350505050604051602081830303815290604052805190602001209050600073ffffffffffffffffffffffffffffffffffffffff1660cf600083815260200190815260200160002060040160009054906101000a900473ffffffffffffffffffffffffffffffffffffffff1673ffffffffffffffffffffffffffffffffffffffff1614612588576040517f08c379a000000000000000000000000000000000000000000000000000000000815260040180806020018281038252603d815260200180613379603d913960400191505060405180910390fd5b6125958660cc54876130d5565b925061259f61075e565b8310612613576040517f08c379a000000000000000000000000000000000000000000000000000000000815260040180806020018281038252601d8152602001807f496e73756666696369656e7420526577617264204176616c6169626c6500000081525060200191505060405180910390fd5b60c960009054906101000a900473ffffffffffffffffffffffffffffffffffffffff1673ffffffffffffffffffffffffffffffffffffffff166323b872dd3330896040518463ffffffff1660e01b8152600401808473ffffffffffffffffffffffffffffffffffffffff1681526020018373ffffffffffffffffffffffffffffffffffffffff1681526020018281526020019350505050602060405180830381600087803b1580156126c457600080fd5b505af11580156126d8573d6000803e3d6000fd5b505050506040513d60208110156126ee57600080fd5b8101908080519060200190929190505050506127158660cd546121a890919063ffffffff16565b60cd819055506040518060a001604052808781526020018381526020018681526020018481526020018573ffffffffffffffffffffffffffffffffffffffff1681525060cf60008381526020019081526020016000206000820151816000015560208201518160010155604082015181600201556060820151816003015560808201518160040160006101000a81548173ffffffffffffffffffffffffffffffffffffffff021916908373ffffffffffffffffffffffffffffffffffffffff16021790555090505061282f8660ce60008773ffffffffffffffffffffffffffffffffffffffff1673ffffffffffffffffffffffffffffffffffffffff168152602001908152602001600020546121a890919063ffffffff16565b60ce60008673ffffffffffffffffffffffffffffffffffffffff1673ffffffffffffffffffffffffffffffffffffffff1681526020019081526020016000208190555060c960009054906101000a900473ffffffffffffffffffffffffffffffffffffffff1673ffffffffffffffffffffffffffffffffffffffff1663a9059cbb85856040518363ffffffff1660e01b8152600401808373ffffffffffffffffffffffffffffffffffffffff16815260200182815260200192505050602060405180830381600087803b15801561290557600080fd5b505af1158015612919573d6000803e3d6000fd5b505050506040513d602081101561292f57600080fd5b8101908080519060200190929190505050507f26627a4faafdfd9e97e772561ecb710f95351a2b6e29806dc5443d1aa273583381878488878960c960009054906101000a900473ffffffffffffffffffffffffffffffffffffffff1630604051808981526020018881526020018781526020018681526020018581526020018473ffffffffffffffffffffffffffffffffffffffff1681526020018373ffffffffffffffffffffffffffffffffffffffff1681526020018273ffffffffffffffffffffffffffffffffffffffff1681526020019850505050505050505060405180910390a150509392505050565b609760009054906101000a900460ff1615612aa0576040517f08c379a00000000000000000000000000000000000000000000000000000000081526004018080602001828103825260108152602001807f5061757361626c653a207061757365640000000000000000000000000000000081525060200191505060405180910390fd5b6001609760006101000a81548160ff0219169083151502179055507f62e78cea01bee320cd4e420270b5ea74000d11b0c9f74754ebdbfc544b05a258612ae4612156565b604051808273ffffffffffffffffffffffffffffffffffffffff16815260200191505060405180910390a1565b609760009054906101000a900460ff16612b93576040517f08c379a00000000000000000000000000000000000000000000000000000000081526004018080602001828103825260148152602001807f5061757361626c653a206e6f742070617573656400000000000000000000000081525060200191505060405180910390fd5b6000609760006101000a81548160ff0219169083151502179055507f5db9ee0a495bf2e6ff9c91a7834c1ba4fdd244a5e8aa4e537bd38aeae4b073aa612bd7612156565b604051808273ffffffffffffffffffffffffffffffffffffffff16815260200191505060405180910390a1565b6000803090506000813b9050600081149250505090565b600060019054906101000a900460ff1680612c3a5750612c39612c04565b5b80612c50575060008054906101000a900460ff16155b612ca5576040517f08c379a000000000000000000000000000000000000000000000000000000000815260040180806020018281038252602e815260200180613322602e913960400191505060405180910390fd5b60008060019054906101000a900460ff161590508015612cf5576001600060016101000a81548160ff02191690831515021790555060016000806101000a81548160ff0219169083151502179055505b8015612d165760008060016101000a81548160ff0219169083151502179055505b50565b600060019054906101000a900460ff1680612d385750612d37612c04565b5b80612d4e575060008054906101000a900460ff16155b612da3576040517f08c379a000000000000000000000000000000000000000000000000000000000815260040180806020018281038252602e815260200180613322602e913960400191505060405180910390fd5b60008060019054906101000a900460ff161590508015612df3576001600060016101000a81548160ff02191690831515021790555060016000806101000a81548160ff0219169083151502179055505b600033905080606560006101000a81548173ffffffffffffffffffffffffffffffffffffffff021916908373ffffffffffffffffffffffffffffffffffffffff1602179055508073ffffffffffffffffffffffffffffffffffffffff16600073ffffffffffffffffffffffffffffffffffffffff167f8be0079c531659141344cd1fd0a4f28419497f9722a3daafe3b4186f6b6457e060405160405180910390a38073ffffffffffffffffffffffffffffffffffffffff167f76af71f00bdefe934d8091c1c072a3cfb98d86d4c9928629512230c11ce4250c60405160405180910390a2508015612ef95760008060016101000a81548160ff0219169083151502179055505b50565b600060019054906101000a900460ff1680612f1b5750612f1a612c04565b5b80612f31575060008054906101000a900460ff16155b612f86576040517f08c379a000000000000000000000000000000000000000000000000000000000815260040180806020018281038252602e815260200180613322602e913960400191505060405180910390fd5b60008060019054906101000a900460ff161590508015612fd6576001600060016101000a81548160ff02191690831515021790555060016000806101000a81548160ff0219169083151502179055505b6000609760006101000a81548160ff02191690831515021790555080156130125760008060016101000a81548160ff0219169083151502179055505b50565b60008383111582906130c2576040517f08c379a00000000000000000000000000000000000000000000000000000000081526004018080602001828103825283818151815260200191508051906020019080838360005b8381101561308757808201518184015260208101905061306c565b50505050905090810190601f1680156130b45780820380516001836020036101000a031916815260200191505b509250505060405180910390fd5b5060008385039050809150509392505050565b60006131166127106301e1338002613108846130fa878961311f90919063ffffffff16565b61311f90919063ffffffff16565b6131a590919063ffffffff16565b90509392505050565b600080831415613132576000905061319f565b600082840290508284828161314357fe5b041461319a576040517f08c379a00000000000000000000000000000000000000000000000000000000081526004018080602001828103825260218152602001806133016021913960400191505060405180910390fd5b809150505b92915050565b60006131e783836040518060400160405280601a81526020017f536166654d6174683a206469766973696f6e206279207a65726f0000000000008152506131ef565b905092915050565b6000808311829061329b576040517f08c379a00000000000000000000000000000000000000000000000000000000081526004018080602001828103825283818151815260200191508051906020019080838360005b83811015613260578082015181840152602081019050613245565b50505050905090810190601f16801561328d5780820380516001836020036101000a031916815260200191505b509250505060405180910390fd5b5060008385816132a757fe5b04905080915050939250505056fe4f776e61626c653a206e6577206f776e657220697320746865207a65726f20616464726573734f776e61626c653a2063616c6c6572206973206e6f7420746865204d61696e206f776e6572536166654d6174683a206d756c7469706c69636174696f6e206f766572666c6f77436f6e747261637420696e7374616e63652068617320616c7265616479206265656e20696e697469616c697a6564556e7374616b6520416d6f756e742047726561746572207468656e20616d6f756e74205374616b65645374616b696e67204944206e6f7420756e697175652c207374616b696e67206461746120616c726561647920657869737473206f6e2074686973204944a2646970667358221220e858870f69752c73e6cbadd829f861a721a75e032561669102f073d4544cc00c64736f6c634300060c0033436f6e747261637420696e7374616e63652068617320616c7265616479206265656e20696e697469616c697a6564",
  "compiler": {
    "name": "solc",
    "version": "0.6.12+commit.27d51765.Emscripten.clang",
    "optimizer": {
      "enabled": false,
      "runs": 200
    },
    "evmVersion": "petersburg"
  }
}