{
  "fileName": "DaoSmartContract.sol",
  "contractName": "DaoSmartContract",
  "source": "pragma solidity ^0.6.0;\nimport \"@openzeppelin/contracts-ethereum-package/contracts/Initializable.sol\";\nimport \"@openzeppelin/contracts-ethereum-package/contracts/utils/Pausable.sol\";\nimport \"@openzeppelin/contracts-ethereum-package/contracts/math/SafeMath.sol\";\nimport \"@openzeppelin/contracts-ethereum-package/contracts/token/ERC20/IERC20.sol\";\nimport \"./utils/MultipleOwners.sol\";\nimport \"./IDaoSmartContract.sol\";\nimport \"./IDaoStakeContract.sol\";\n\ncontract DaoSmartContract is IDaoSmartContract, MulitpleOwners, PausableUpgradeSafe {\n    using SafeMath for uint256;\n\n    IDaoStakeContract public daoStakeContract;\n    IERC20 public phnxContract;\n\n    address public phnxContractAddress;\n\n    address public signer;\n\n    uint256 public collateralAmount;\n\n    mapping(string => Proposal) public proposalList;\n\n    function initialize(\n        address _phoenixContractAddress,\n        address _signer\n    ) external override initializer {\n        OwnableUpgradeSafe.__Ownable_init();\n        PausableUpgradeSafe.__Pausable_init();\n        phnxContractAddress = _phoenixContractAddress;\n        phnxContract = IERC20(_phoenixContractAddress);\n        // daoStakeContract = IDaoStakeContract(_daoStakeContract);\n        signer = _signer;\n        // approve dao stake contract to use max value of this contract\n        \n    }\n\n    function setStakeContract(address _stakeContract) external onlyOwners{\n        daoStakeContract = IDaoStakeContract(_stakeContract);\n        phnxContract.approve(_stakeContract, uint256(-1));\n    }\n\n    function vote(uint256 _altQuantity, uint256 _time) external {\n        address sender = msg.sender;\n        require(daoStakeContract!=IDaoStakeContract(address(0)),\"Staking Contract has not been set yet\");\n        require(_altQuantity != 0, \"value not valid\");\n        require(_time >= 1 days && _time <= 365 days, \"time not valid\");\n        phnxContract.transferFrom(sender, address(this), _altQuantity);\n        daoStakeContract.stakeFor(_altQuantity, _time, sender);\n    }\n\n    function updateProposal(\n        uint256 fundsRequested,\n        uint256 endTimestamp,\n        uint256 colletralAmount,\n        uint256 totalMilestones,\n        string calldata proposalId\n    ) external override whenNotPaused {\n        require(proposalList[proposalId].proposer != address(0), \"This proposal Does not exist\");\n        address sender = msg.sender;\n        require(proposalList[proposalId].proposer == sender, \"Only Owner of propsal can edit this propsal\");\n        proposalList[proposalId] = Proposal(\n            fundsRequested,\n            0,\n            endTimestamp,\n            colletralAmount,\n            totalMilestones,\n            0,\n            0,\n            0,\n            sender,\n            false\n        );\n        emit ProposalEditted(\n            proposalId,\n            proposalList[proposalId].fundsRequested,\n            proposalList[proposalId].initiationTimestamp,\n            proposalList[proposalId].completionTimestamp,\n            proposalList[proposalId].colletralAmount,\n            proposalList[proposalId].totalMilestones,\n            proposalList[proposalId].status,\n            proposalList[proposalId].totalVotes,\n            proposalList[proposalId].proposer\n        );\n    }\n\n    function submitProposal(\n        uint256 fundsRequested,\n        uint256 endTimestamp,\n        uint256 colletralAmount,\n        uint256 totalMilestones,\n        string calldata proposalId\n    ) external override whenNotPaused {\n        require(proposalList[proposalId].proposer == address(0), \"Proposal already submitted\");\n        proposalList[proposalId] = Proposal(\n            fundsRequested,\n            0,\n            endTimestamp,\n            colletralAmount,\n            totalMilestones,\n            0,\n            0,\n            0,\n            msg.sender,\n            false\n        );\n\n        emit ProposalSubmitted(\n            proposalId,\n            proposalList[proposalId].fundsRequested,\n            proposalList[proposalId].initiationTimestamp,\n            proposalList[proposalId].completionTimestamp,\n            proposalList[proposalId].colletralAmount,\n            proposalList[proposalId].totalMilestones,\n            proposalList[proposalId].status,\n            proposalList[proposalId].totalVotes,\n            proposalList[proposalId].proposer\n        );\n    }\n\n    function withdrawCollateral(\n        string calldata proposalId,\n        uint8 v,\n        bytes32 r,\n        bytes32 s\n    ) external override {\n        address sender = msg.sender;\n        require(!proposalList[proposalId].isClaimed, \"Collateral Already Claimed\");\n        require(proposalList[proposalId].proposer == sender, \"Only Owner of Proposal can withdraw\");\n        bytes32 message = keccak256(abi.encode(proposalId, sender));\n        _validate(v, r, s, message);\n        proposalList[proposalId].isClaimed = true;\n        IERC20(phnxContractAddress).transfer(sender, proposalList[proposalId].colletralAmount);\n        emit ColleteralWithdrawn(proposalId, proposalList[proposalId].colletralAmount, sender);\n    }\n\n    function updateProposalStatus(string calldata proposalId, uint256 status) external override onlyOwners {\n        require(proposalList[proposalId].proposer != address(0), \"proposal not submitted before\");\n        uint256 oldStatus = proposalList[proposalId].status;\n        if (status == uint256(Status.UPVOTE) && proposalList[proposalId].status == uint256(Status.PENDING)) {\n            proposalList[proposalId].status = uint256(Status.UPVOTE);\n            IERC20(phnxContractAddress).transferFrom(\n                proposalList[proposalId].proposer,\n                address(this),\n                proposalList[proposalId].colletralAmount\n            );\n            collateralAmount = collateralAmount.add(proposalList[proposalId].colletralAmount);\n        }\n\n        if (status == uint256(Status.VOTING) && proposalList[proposalId].status == uint256(Status.UPVOTE)) {\n            proposalList[proposalId].status = uint256(Status.VOTING);\n        }\n        if (status == uint256(Status.ACTIVE) && proposalList[proposalId].status == uint256(Status.VOTING)) {\n            proposalList[proposalId].status = uint256(Status.ACTIVE);\n            proposalList[proposalId].initiationTimestamp = block.timestamp;\n        }\n        if (status == uint256(Status.REJECTED) && proposalList[proposalId].status == uint256(Status.PENDING)) {\n            proposalList[proposalId].status = uint256(Status.REJECTED);\n        }\n\n        if (status == uint256(Status.COMPLETED) && proposalList[proposalId].status == uint256(Status.ACTIVE)) {\n            proposalList[proposalId].status = uint256(Status.COMPLETED);\n            IERC20(phnxContractAddress).transfer(\n                proposalList[proposalId].proposer,\n                proposalList[proposalId].colletralAmount\n            );\n        }\n\n        require(proposalList[proposalId].status == status, \"Status Not updated\");\n        emit ProposalStatusUpdated(proposalId, oldStatus, proposalList[proposalId].status);\n    }\n\n    function getDomainSeparator() internal view returns (bytes32) {\n        return keccak256(abi.encode(\"0x01\", address(this)));\n    }\n\n    function _validate(\n        uint8 v,\n        bytes32 r,\n        bytes32 s,\n        bytes32 encodeData\n    ) internal view {\n        bytes32 digest = keccak256(abi.encodePacked(\"\\x19\\x01\", getDomainSeparator(), encodeData));\n        address recoveredAddress = ecrecover(digest, v, r, s);\n        // Explicitly disallow authorizations for address(0) as ecrecover returns address(0) on malformed messages\n        require(recoveredAddress != address(0) && recoveredAddress == signer, \"INVALID_SIGNATURE\");\n    }\n\n    function pause() external override onlyOwners {\n        _pause();\n    }\n\n    function unPause() external override onlyOwners {\n        _unpause();\n    }\n}\n\n\n//0xDc6010328c57999df231AF58e29FF60DCa7f8A2E",
  "sourcePath": "contracts/DaoSmartContract.sol",
  "abi": [
    {
      "anonymous": false,
      "inputs": [
        {
          "indexed": true,
          "internalType": "address",
          "name": "newOwner",
          "type": "address"
        }
      ],
      "name": "AddedSubOwner",
      "type": "event"
    },
    {
      "anonymous": false,
      "inputs": [
        {
          "indexed": false,
          "internalType": "string",
          "name": "proposalId",
          "type": "string"
        },
        {
          "indexed": false,
          "internalType": "uint256",
          "name": "collateralAmount",
          "type": "uint256"
        },
        {
          "indexed": false,
          "internalType": "address",
          "name": "proposer",
          "type": "address"
        }
      ],
      "name": "ColleteralWithdrawn",
      "type": "event"
    },
    {
      "anonymous": false,
      "inputs": [
        {
          "indexed": true,
          "internalType": "address",
          "name": "previousOwner",
          "type": "address"
        },
        {
          "indexed": true,
          "internalType": "address",
          "name": "newOwner",
          "type": "address"
        }
      ],
      "name": "OwnershipTransferred",
      "type": "event"
    },
    {
      "anonymous": false,
      "inputs": [
        {
          "indexed": false,
          "internalType": "address",
          "name": "account",
          "type": "address"
        }
      ],
      "name": "Paused",
      "type": "event"
    },
    {
      "anonymous": false,
      "inputs": [
        {
          "indexed": false,
          "internalType": "string",
          "name": "proposalId",
          "type": "string"
        },
        {
          "indexed": false,
          "internalType": "uint256",
          "name": "fundsRequested",
          "type": "uint256"
        },
        {
          "indexed": false,
          "internalType": "uint256",
          "name": "initiationTimestamp",
          "type": "uint256"
        },
        {
          "indexed": false,
          "internalType": "uint256",
          "name": "completionTimestamp",
          "type": "uint256"
        },
        {
          "indexed": false,
          "internalType": "uint256",
          "name": "colletralAmount",
          "type": "uint256"
        },
        {
          "indexed": false,
          "internalType": "uint256",
          "name": "totalMilestones",
          "type": "uint256"
        },
        {
          "indexed": false,
          "internalType": "uint256",
          "name": "status",
          "type": "uint256"
        },
        {
          "indexed": false,
          "internalType": "uint256",
          "name": "totalVotes",
          "type": "uint256"
        },
        {
          "indexed": false,
          "internalType": "address",
          "name": "proposer",
          "type": "address"
        }
      ],
      "name": "ProposalEditted",
      "type": "event"
    },
    {
      "anonymous": false,
      "inputs": [
        {
          "indexed": false,
          "internalType": "string",
          "name": "proposalId",
          "type": "string"
        },
        {
          "indexed": false,
          "internalType": "uint256",
          "name": "previousStatus",
          "type": "uint256"
        },
        {
          "indexed": false,
          "internalType": "uint256",
          "name": "newStatus",
          "type": "uint256"
        }
      ],
      "name": "ProposalStatusUpdated",
      "type": "event"
    },
    {
      "anonymous": false,
      "inputs": [
        {
          "indexed": false,
          "internalType": "string",
          "name": "proposalId",
          "type": "string"
        },
        {
          "indexed": false,
          "internalType": "uint256",
          "name": "fundsRequested",
          "type": "uint256"
        },
        {
          "indexed": false,
          "internalType": "uint256",
          "name": "initiationTimestamp",
          "type": "uint256"
        },
        {
          "indexed": false,
          "internalType": "uint256",
          "name": "completionTimestamp",
          "type": "uint256"
        },
        {
          "indexed": false,
          "internalType": "uint256",
          "name": "colletralAmount",
          "type": "uint256"
        },
        {
          "indexed": false,
          "internalType": "uint256",
          "name": "totalMilestones",
          "type": "uint256"
        },
        {
          "indexed": false,
          "internalType": "uint256",
          "name": "status",
          "type": "uint256"
        },
        {
          "indexed": false,
          "internalType": "uint256",
          "name": "totalVotes",
          "type": "uint256"
        },
        {
          "indexed": false,
          "internalType": "address",
          "name": "proposer",
          "type": "address"
        }
      ],
      "name": "ProposalSubmitted",
      "type": "event"
    },
    {
      "anonymous": false,
      "inputs": [
        {
          "indexed": true,
          "internalType": "address",
          "name": "newOwner",
          "type": "address"
        }
      ],
      "name": "RemovedSubOwner",
      "type": "event"
    },
    {
      "anonymous": false,
      "inputs": [
        {
          "indexed": false,
          "internalType": "address",
          "name": "account",
          "type": "address"
        }
      ],
      "name": "Unpaused",
      "type": "event"
    },
    {
      "inputs": [
        {
          "internalType": "address",
          "name": "newOwner",
          "type": "address"
        }
      ],
      "name": "addOwner",
      "outputs": [],
      "stateMutability": "nonpayable",
      "type": "function"
    },
    {
      "inputs": [],
      "name": "collateralAmount",
      "outputs": [
        {
          "internalType": "uint256",
          "name": "",
          "type": "uint256"
        }
      ],
      "stateMutability": "view",
      "type": "function"
    },
    {
      "inputs": [],
      "name": "daoStakeContract",
      "outputs": [
        {
          "internalType": "contract IDaoStakeContract",
          "name": "",
          "type": "address"
        }
      ],
      "stateMutability": "view",
      "type": "function"
    },
    {
      "inputs": [
        {
          "internalType": "address",
          "name": "_phoenixContractAddress",
          "type": "address"
        },
        {
          "internalType": "address",
          "name": "_signer",
          "type": "address"
        }
      ],
      "name": "initialize",
      "outputs": [],
      "stateMutability": "nonpayable",
      "type": "function"
    },
    {
      "inputs": [
        {
          "internalType": "address",
          "name": "",
          "type": "address"
        }
      ],
      "name": "isOwner",
      "outputs": [
        {
          "internalType": "bool",
          "name": "",
          "type": "bool"
        }
      ],
      "stateMutability": "view",
      "type": "function"
    },
    {
      "inputs": [],
      "name": "owner",
      "outputs": [
        {
          "internalType": "address",
          "name": "",
          "type": "address"
        }
      ],
      "stateMutability": "view",
      "type": "function"
    },
    {
      "inputs": [],
      "name": "pause",
      "outputs": [],
      "stateMutability": "nonpayable",
      "type": "function"
    },
    {
      "inputs": [],
      "name": "paused",
      "outputs": [
        {
          "internalType": "bool",
          "name": "",
          "type": "bool"
        }
      ],
      "stateMutability": "view",
      "type": "function"
    },
    {
      "inputs": [],
      "name": "phnxContract",
      "outputs": [
        {
          "internalType": "contract IERC20",
          "name": "",
          "type": "address"
        }
      ],
      "stateMutability": "view",
      "type": "function"
    },
    {
      "inputs": [],
      "name": "phnxContractAddress",
      "outputs": [
        {
          "internalType": "address",
          "name": "",
          "type": "address"
        }
      ],
      "stateMutability": "view",
      "type": "function"
    },
    {
      "inputs": [
        {
          "internalType": "string",
          "name": "",
          "type": "string"
        }
      ],
      "name": "proposalList",
      "outputs": [
        {
          "internalType": "uint256",
          "name": "fundsRequested",
          "type": "uint256"
        },
        {
          "internalType": "uint256",
          "name": "initiationTimestamp",
          "type": "uint256"
        },
        {
          "internalType": "uint256",
          "name": "completionTimestamp",
          "type": "uint256"
        },
        {
          "internalType": "uint256",
          "name": "colletralAmount",
          "type": "uint256"
        },
        {
          "internalType": "uint256",
          "name": "totalMilestones",
          "type": "uint256"
        },
        {
          "internalType": "uint256",
          "name": "completedMilestones",
          "type": "uint256"
        },
        {
          "internalType": "uint256",
          "name": "status",
          "type": "uint256"
        },
        {
          "internalType": "uint256",
          "name": "totalVotes",
          "type": "uint256"
        },
        {
          "internalType": "address",
          "name": "proposer",
          "type": "address"
        },
        {
          "internalType": "bool",
          "name": "isClaimed",
          "type": "bool"
        }
      ],
      "stateMutability": "view",
      "type": "function"
    },
    {
      "inputs": [
        {
          "internalType": "address",
          "name": "_subOwner",
          "type": "address"
        }
      ],
      "name": "removeOwner",
      "outputs": [],
      "stateMutability": "nonpayable",
      "type": "function"
    },
    {
      "inputs": [],
      "name": "renounceOwnership",
      "outputs": [],
      "stateMutability": "nonpayable",
      "type": "function"
    },
    {
      "inputs": [
        {
          "internalType": "address",
          "name": "_stakeContract",
          "type": "address"
        }
      ],
      "name": "setStakeContract",
      "outputs": [],
      "stateMutability": "nonpayable",
      "type": "function"
    },
    {
      "inputs": [],
      "name": "signer",
      "outputs": [
        {
          "internalType": "address",
          "name": "",
          "type": "address"
        }
      ],
      "stateMutability": "view",
      "type": "function"
    },
    {
      "inputs": [
        {
          "internalType": "uint256",
          "name": "fundsRequested",
          "type": "uint256"
        },
        {
          "internalType": "uint256",
          "name": "endTimestamp",
          "type": "uint256"
        },
        {
          "internalType": "uint256",
          "name": "colletralAmount",
          "type": "uint256"
        },
        {
          "internalType": "uint256",
          "name": "totalMilestones",
          "type": "uint256"
        },
        {
          "internalType": "string",
          "name": "proposalId",
          "type": "string"
        }
      ],
      "name": "submitProposal",
      "outputs": [],
      "stateMutability": "nonpayable",
      "type": "function"
    },
    {
      "inputs": [
        {
          "internalType": "address",
          "name": "newOwner",
          "type": "address"
        }
      ],
      "name": "transferOwnership",
      "outputs": [],
      "stateMutability": "nonpayable",
      "type": "function"
    },
    {
      "inputs": [],
      "name": "unPause",
      "outputs": [],
      "stateMutability": "nonpayable",
      "type": "function"
    },
    {
      "inputs": [
        {
          "internalType": "uint256",
          "name": "fundsRequested",
          "type": "uint256"
        },
        {
          "internalType": "uint256",
          "name": "endTimestamp",
          "type": "uint256"
        },
        {
          "internalType": "uint256",
          "name": "colletralAmount",
          "type": "uint256"
        },
        {
          "internalType": "uint256",
          "name": "totalMilestones",
          "type": "uint256"
        },
        {
          "internalType": "string",
          "name": "proposalId",
          "type": "string"
        }
      ],
      "name": "updateProposal",
      "outputs": [],
      "stateMutability": "nonpayable",
      "type": "function"
    },
    {
      "inputs": [
        {
          "internalType": "string",
          "name": "proposalId",
          "type": "string"
        },
        {
          "internalType": "uint256",
          "name": "status",
          "type": "uint256"
        }
      ],
      "name": "updateProposalStatus",
      "outputs": [],
      "stateMutability": "nonpayable",
      "type": "function"
    },
    {
      "inputs": [
        {
          "internalType": "uint256",
          "name": "_altQuantity",
          "type": "uint256"
        },
        {
          "internalType": "uint256",
          "name": "_time",
          "type": "uint256"
        }
      ],
      "name": "vote",
      "outputs": [],
      "stateMutability": "nonpayable",
      "type": "function"
    },
    {
      "inputs": [
        {
          "internalType": "string",
          "name": "proposalId",
          "type": "string"
        },
        {
          "internalType": "uint8",
          "name": "v",
          "type": "uint8"
        },
        {
          "internalType": "bytes32",
          "name": "r",
          "type": "bytes32"
        },
        {
          "internalType": "bytes32",
          "name": "s",
          "type": "bytes32"
        }
      ],
      "name": "withdrawCollateral",
      "outputs": [],
      "stateMutability": "nonpayable",
      "type": "function"
    }
  ],
  "bytecode": "0x608060405234801561001057600080fd5b50613c0d806100206000396000f3fe608060405234801561001057600080fd5b50600436106101425760003560e01c80638456cb59116100b8578063c337b74e1161007c578063c337b74e146105d3578063c3e8d3e814610607578063efe128571461072d578063f2fde38b146107b0578063f7b188a5146107f4578063fa15a506146107fe57610142565b80638456cb591461049e5780638da5cb5b146104a857806392d09ceb146104dc57806397c4edc6146104fa578063b384abef1461059b57610142565b8063509484d51161010a578063509484d5146102b157806351403dc0146102f55780635c975abb1461038f5780637065cb48146103af578063715018a6146103f357806372d64f50146103fd57610142565b8063173825d914610147578063238ac9331461018b57806326f6e1d8146101bf5780632f54bf6e146101f3578063485cc9551461024d575b600080fd5b6101896004803603602081101561015d57600080fd5b81019080803573ffffffffffffffffffffffffffffffffffffffff169060200190929190505050610832565b005b61019361097d565b604051808273ffffffffffffffffffffffffffffffffffffffff16815260200191505060405180910390f35b6101c76109a3565b604051808273ffffffffffffffffffffffffffffffffffffffff16815260200191505060405180910390f35b6102356004803603602081101561020957600080fd5b81019080803573ffffffffffffffffffffffffffffffffffffffff1690602001909291905050506109c9565b60405180821515815260200191505060405180910390f35b6102af6004803603604081101561026357600080fd5b81019080803573ffffffffffffffffffffffffffffffffffffffff169060200190929190803573ffffffffffffffffffffffffffffffffffffffff1690602001909291905050506109e9565b005b6102f3600480360360208110156102c757600080fd5b81019080803573ffffffffffffffffffffffffffffffffffffffff169060200190929190505050610bbc565b005b61038d6004803603608081101561030b57600080fd5b810190808035906020019064010000000081111561032857600080fd5b82018360208201111561033a57600080fd5b8035906020019184600183028401116401000000008311171561035c57600080fd5b9091929391929390803560ff1690602001909291908035906020019092919080359060200190929190505050610d98565b005b61039761118f565b60405180821515815260200191505060405180910390f35b6103f1600480360360208110156103c557600080fd5b81019080803573ffffffffffffffffffffffffffffffffffffffff1690602001909291905050506111a6565b005b6103fb6112f1565b005b61049c600480360360a081101561041357600080fd5b81019080803590602001909291908035906020019092919080359060200190929190803590602001909291908035906020019064010000000081111561045857600080fd5b82018360208201111561046a57600080fd5b8035906020019184600183028401116401000000008311171561048c57600080fd5b909192939192939050505061145f565b005b6104a6611945565b005b6104b06119f8565b604051808273ffffffffffffffffffffffffffffffffffffffff16815260200191505060405180910390f35b6104e4611a22565b6040518082815260200191505060405180910390f35b610599600480360360a081101561051057600080fd5b81019080803590602001909291908035906020019092919080359060200190929190803590602001909291908035906020019064010000000081111561055557600080fd5b82018360208201111561056757600080fd5b8035906020019184600183028401116401000000008311171561058957600080fd5b9091929391929390505050611a28565b005b6105d1600480360360408110156105b157600080fd5b810190808035906020019092919080359060200190929190505050611fe3565b005b6105db612359565b604051808273ffffffffffffffffffffffffffffffffffffffff16815260200191505060405180910390f35b6106c06004803603602081101561061d57600080fd5b810190808035906020019064010000000081111561063a57600080fd5b82018360208201111561064c57600080fd5b8035906020019184600183028401116401000000008311171561066e57600080fd5b91908080601f016020809104026020016040519081016040528093929190818152602001838380828437600081840152601f19601f82011690508083019250505050505050919291929050505061237f565b604051808b81526020018a81526020018981526020018881526020018781526020018681526020018581526020018481526020018373ffffffffffffffffffffffffffffffffffffffff16815260200182151581526020019a505050505050505050505060405180910390f35b6107ae6004803603604081101561074357600080fd5b810190808035906020019064010000000081111561076057600080fd5b82018360208201111561077257600080fd5b8035906020019184600183028401116401000000008311171561079457600080fd5b909192939192939080359060200190929190505050612416565b005b6107f2600480360360208110156107c657600080fd5b81019080803573ffffffffffffffffffffffffffffffffffffffff169060200190929190505050612d08565b005b6107fc612efb565b005b610806612fae565b604051808273ffffffffffffffffffffffffffffffffffffffff16815260200191505060405180910390f35b61083a612fd4565b73ffffffffffffffffffffffffffffffffffffffff16606560009054906101000a900473ffffffffffffffffffffffffffffffffffffffff1673ffffffffffffffffffffffffffffffffffffffff16146108df576040517f08c379a0000000000000000000000000000000000000000000000000000000008152600401808060200182810382526025815260200180613aea6025913960400191505060405180910390fd5b6000609760008373ffffffffffffffffffffffffffffffffffffffff1673ffffffffffffffffffffffffffffffffffffffff16815260200190815260200160002060006101000a81548160ff0219169083151502179055508073ffffffffffffffffffffffffffffffffffffffff167fc4adbb71fb21387c352881f205be328ff9125ae4c658ed8dcbe960a47dbf515a60405160405180910390a250565b60cd60009054906101000a900473ffffffffffffffffffffffffffffffffffffffff1681565b60cc60009054906101000a900473ffffffffffffffffffffffffffffffffffffffff1681565b60976020528060005260406000206000915054906101000a900460ff1681565b600060019054906101000a900460ff1680610a085750610a07612fdc565b5b80610a1e575060008054906101000a900460ff16155b610a73576040517f08c379a000000000000000000000000000000000000000000000000000000000815260040180806020018281038252602e815260200180613b85602e913960400191505060405180910390fd5b60008060019054906101000a900460ff161590508015610ac3576001600060016101000a81548160ff02191690831515021790555060016000806101000a81548160ff0219169083151502179055505b610acb612ff3565b610ad3613101565b8260cc60006101000a81548173ffffffffffffffffffffffffffffffffffffffff021916908373ffffffffffffffffffffffffffffffffffffffff1602179055508260cb60006101000a81548173ffffffffffffffffffffffffffffffffffffffff021916908373ffffffffffffffffffffffffffffffffffffffff1602179055508160cd60006101000a81548173ffffffffffffffffffffffffffffffffffffffff021916908373ffffffffffffffffffffffffffffffffffffffff1602179055508015610bb75760008060016101000a81548160ff0219169083151502179055505b505050565b60976000610bc8612fd4565b73ffffffffffffffffffffffffffffffffffffffff1673ffffffffffffffffffffffffffffffffffffffff16815260200190815260200160002060009054906101000a900460ff16610c65576040517f08c379a0000000000000000000000000000000000000000000000000000000008152600401808060200182810382526028815260200180613b0f6028913960400191505060405180910390fd5b8060ca60006101000a81548173ffffffffffffffffffffffffffffffffffffffff021916908373ffffffffffffffffffffffffffffffffffffffff16021790555060cb60009054906101000a900473ffffffffffffffffffffffffffffffffffffffff1673ffffffffffffffffffffffffffffffffffffffff1663095ea7b3827fffffffffffffffffffffffffffffffffffffffffffffffffffffffffffffffff6040518363ffffffff1660e01b8152600401808373ffffffffffffffffffffffffffffffffffffffff16815260200182815260200192505050602060405180830381600087803b158015610d5957600080fd5b505af1158015610d6d573d6000803e3d6000fd5b505050506040513d6020811015610d8357600080fd5b81019080805190602001909291905050505050565b600033905060cf8686604051808383808284378083019250505092505050908152602001604051809103902060080160149054906101000a900460ff1615610e48576040517f08c379a000000000000000000000000000000000000000000000000000000000815260040180806020018281038252601a8152602001807f436f6c6c61746572616c20416c726561647920436c61696d656400000000000081525060200191505060405180910390fd5b8073ffffffffffffffffffffffffffffffffffffffff1660cf8787604051808383808284378083019250505092505050908152602001604051809103902060080160009054906101000a900473ffffffffffffffffffffffffffffffffffffffff1673ffffffffffffffffffffffffffffffffffffffff1614610f16576040517f08c379a0000000000000000000000000000000000000000000000000000000008152600401808060200182810382526023815260200180613b626023913960400191505060405180910390fd5b600086868360405160200180806020018373ffffffffffffffffffffffffffffffffffffffff1681526020018281038252858582818152602001925080828437600081840152601f19601f820116905080830192505050945050505050604051602081830303815290604052805190602001209050610f978585858461320f565b600160cf8888604051808383808284378083019250505092505050908152602001604051809103902060080160146101000a81548160ff02191690831515021790555060cc60009054906101000a900473ffffffffffffffffffffffffffffffffffffffff1673ffffffffffffffffffffffffffffffffffffffff1663a9059cbb8360cf8a8a6040518083838082843780830192505050925050509081526020016040518091039020600301546040518363ffffffff1660e01b8152600401808373ffffffffffffffffffffffffffffffffffffffff16815260200182815260200192505050602060405180830381600087803b15801561109757600080fd5b505af11580156110ab573d6000803e3d6000fd5b505050506040513d60208110156110c157600080fd5b8101908080519060200190929190505050507f77c5403ea341a227f7fa5aae3a28dd3a3f593549812f92a335e7abe2aba99350878760cf8a8a6040518083838082843780830192505050925050509081526020016040518091039020600301548560405180806020018481526020018373ffffffffffffffffffffffffffffffffffffffff1681526020018281038252868682818152602001925080828437600081840152601f19601f8201169050808301925050509550505050505060405180910390a150505050505050565b6000609860009054906101000a900460ff16905090565b6111ae612fd4565b73ffffffffffffffffffffffffffffffffffffffff16606560009054906101000a900473ffffffffffffffffffffffffffffffffffffffff1673ffffffffffffffffffffffffffffffffffffffff1614611253576040517f08c379a0000000000000000000000000000000000000000000000000000000008152600401808060200182810382526025815260200180613aea6025913960400191505060405180910390fd5b6001609760008373ffffffffffffffffffffffffffffffffffffffff1673ffffffffffffffffffffffffffffffffffffffff16815260200190815260200160002060006101000a81548160ff0219169083151502179055508073ffffffffffffffffffffffffffffffffffffffff167f76af71f00bdefe934d8091c1c072a3cfb98d86d4c9928629512230c11ce4250c60405160405180910390a250565b6112f9612fd4565b73ffffffffffffffffffffffffffffffffffffffff16606560009054906101000a900473ffffffffffffffffffffffffffffffffffffffff1673ffffffffffffffffffffffffffffffffffffffff161461139e576040517f08c379a0000000000000000000000000000000000000000000000000000000008152600401808060200182810382526025815260200180613aea6025913960400191505060405180910390fd5b600073ffffffffffffffffffffffffffffffffffffffff16606560009054906101000a900473ffffffffffffffffffffffffffffffffffffffff1673ffffffffffffffffffffffffffffffffffffffff167f8be0079c531659141344cd1fd0a4f28419497f9722a3daafe3b4186f6b6457e060405160405180910390a36000606560006101000a81548173ffffffffffffffffffffffffffffffffffffffff021916908373ffffffffffffffffffffffffffffffffffffffff160217905550565b609860009054906101000a900460ff16156114e2576040517f08c379a00000000000000000000000000000000000000000000000000000000081526004018080602001828103825260108152602001807f5061757361626c653a207061757365640000000000000000000000000000000081525060200191505060405180910390fd5b600073ffffffffffffffffffffffffffffffffffffffff1660cf8383604051808383808284378083019250505092505050908152602001604051809103902060080160009054906101000a900473ffffffffffffffffffffffffffffffffffffffff1673ffffffffffffffffffffffffffffffffffffffff16146115ce576040517f08c379a000000000000000000000000000000000000000000000000000000000815260040180806020018281038252601a8152602001807f50726f706f73616c20616c7265616479207375626d697474656400000000000081525060200191505060405180910390fd5b604051806101400160405280878152602001600081526020018681526020018581526020018481526020016000815260200160008152602001600081526020013373ffffffffffffffffffffffffffffffffffffffff1681526020016000151581525060cf83836040518083838082843780830192505050925050509081526020016040518091039020600082015181600001556020820151816001015560408201518160020155606082015181600301556080820151816004015560a0820151816005015560c0820151816006015560e082015181600701556101008201518160080160006101000a81548173ffffffffffffffffffffffffffffffffffffffff021916908373ffffffffffffffffffffffffffffffffffffffff1602179055506101208201518160080160146101000a81548160ff0219169083151502179055509050507ff684f987d0a05e8609d209b3b73f751707fb256ec3f5f97109d41f6542308fd7828260cf858560405180838380828437808301925050509250505090815260200160405180910390206000015460cf868660405180838380828437808301925050509250505090815260200160405180910390206001015460cf878760405180838380828437808301925050509250505090815260200160405180910390206002015460cf888860405180838380828437808301925050509250505090815260200160405180910390206003015460cf898960405180838380828437808301925050509250505090815260200160405180910390206004015460cf8a8a60405180838380828437808301925050509250505090815260200160405180910390206006015460cf8b8b60405180838380828437808301925050509250505090815260200160405180910390206007015460cf8c8c604051808383808284378083019250505092505050908152602001604051809103902060080160009054906101000a900473ffffffffffffffffffffffffffffffffffffffff1660405180806020018a81526020018981526020018881526020018781526020018681526020018581526020018481526020018373ffffffffffffffffffffffffffffffffffffffff16815260200182810382528c8c82818152602001925080828437600081840152601f19601f8201169050808301925050509b50505050505050505050505060405180910390a1505050505050565b60976000611951612fd4565b73ffffffffffffffffffffffffffffffffffffffff1673ffffffffffffffffffffffffffffffffffffffff16815260200190815260200160002060009054906101000a900460ff166119ee576040517f08c379a0000000000000000000000000000000000000000000000000000000008152600401808060200182810382526028815260200180613b0f6028913960400191505060405180910390fd5b6119f66133dd565b565b6000606560009054906101000a900473ffffffffffffffffffffffffffffffffffffffff16905090565b60ce5481565b609860009054906101000a900460ff1615611aab576040517f08c379a00000000000000000000000000000000000000000000000000000000081526004018080602001828103825260108152602001807f5061757361626c653a207061757365640000000000000000000000000000000081525060200191505060405180910390fd5b600073ffffffffffffffffffffffffffffffffffffffff1660cf8383604051808383808284378083019250505092505050908152602001604051809103902060080160009054906101000a900473ffffffffffffffffffffffffffffffffffffffff1673ffffffffffffffffffffffffffffffffffffffff161415611b98576040517f08c379a000000000000000000000000000000000000000000000000000000000815260040180806020018281038252601c8152602001807f546869732070726f706f73616c20446f6573206e6f742065786973740000000081525060200191505060405180910390fd5b60003390508073ffffffffffffffffffffffffffffffffffffffff1660cf8484604051808383808284378083019250505092505050908152602001604051809103902060080160009054906101000a900473ffffffffffffffffffffffffffffffffffffffff1673ffffffffffffffffffffffffffffffffffffffff1614611c6b576040517f08c379a000000000000000000000000000000000000000000000000000000000815260040180806020018281038252602b815260200180613b37602b913960400191505060405180910390fd5b604051806101400160405280888152602001600081526020018781526020018681526020018581526020016000815260200160008152602001600081526020018273ffffffffffffffffffffffffffffffffffffffff1681526020016000151581525060cf84846040518083838082843780830192505050925050509081526020016040518091039020600082015181600001556020820151816001015560408201518160020155606082015181600301556080820151816004015560a0820151816005015560c0820151816006015560e082015181600701556101008201518160080160006101000a81548173ffffffffffffffffffffffffffffffffffffffff021916908373ffffffffffffffffffffffffffffffffffffffff1602179055506101208201518160080160146101000a81548160ff0219169083151502179055509050507f5e65d6695c41b1aead7cc143bac6f3f4eba2b8dd79327958290330cbe6c5b612838360cf868660405180838380828437808301925050509250505090815260200160405180910390206000015460cf878760405180838380828437808301925050509250505090815260200160405180910390206001015460cf888860405180838380828437808301925050509250505090815260200160405180910390206002015460cf898960405180838380828437808301925050509250505090815260200160405180910390206003015460cf8a8a60405180838380828437808301925050509250505090815260200160405180910390206004015460cf8b8b60405180838380828437808301925050509250505090815260200160405180910390206006015460cf8c8c60405180838380828437808301925050509250505090815260200160405180910390206007015460cf8d8d604051808383808284378083019250505092505050908152602001604051809103902060080160009054906101000a900473ffffffffffffffffffffffffffffffffffffffff1660405180806020018a81526020018981526020018881526020018781526020018681526020018581526020018481526020018373ffffffffffffffffffffffffffffffffffffffff16815260200182810382528c8c82818152602001925080828437600081840152601f19601f8201169050808301925050509b50505050505050505050505060405180910390a150505050505050565b6000339050600073ffffffffffffffffffffffffffffffffffffffff1660ca60009054906101000a900473ffffffffffffffffffffffffffffffffffffffff1673ffffffffffffffffffffffffffffffffffffffff161415612090576040517f08c379a0000000000000000000000000000000000000000000000000000000008152600401808060200182810382526025815260200180613bb36025913960400191505060405180910390fd5b6000831415612107576040517f08c379a000000000000000000000000000000000000000000000000000000000815260040180806020018281038252600f8152602001807f76616c7565206e6f742076616c6964000000000000000000000000000000000081525060200191505060405180910390fd5b62015180821015801561211e57506301e133808211155b612190576040517f08c379a000000000000000000000000000000000000000000000000000000000815260040180806020018281038252600e8152602001807f74696d65206e6f742076616c696400000000000000000000000000000000000081525060200191505060405180910390fd5b60cb60009054906101000a900473ffffffffffffffffffffffffffffffffffffffff1673ffffffffffffffffffffffffffffffffffffffff166323b872dd8230866040518463ffffffff1660e01b8152600401808473ffffffffffffffffffffffffffffffffffffffff1681526020018373ffffffffffffffffffffffffffffffffffffffff1681526020018281526020019350505050602060405180830381600087803b15801561224157600080fd5b505af1158015612255573d6000803e3d6000fd5b505050506040513d602081101561226b57600080fd5b81019080805190602001909291905050505060ca60009054906101000a900473ffffffffffffffffffffffffffffffffffffffff1673ffffffffffffffffffffffffffffffffffffffff1663b1b0ebcc8484846040518463ffffffff1660e01b8152600401808481526020018381526020018273ffffffffffffffffffffffffffffffffffffffff1681526020019350505050602060405180830381600087803b15801561231857600080fd5b505af115801561232c573d6000803e3d6000fd5b505050506040513d602081101561234257600080fd5b810190808051906020019092919050505050505050565b60ca60009054906101000a900473ffffffffffffffffffffffffffffffffffffffff1681565b60cf818051602081018201805184825260208301602085012081835280955050505050506000915090508060000154908060010154908060020154908060030154908060040154908060050154908060060154908060070154908060080160009054906101000a900473ffffffffffffffffffffffffffffffffffffffff16908060080160149054906101000a900460ff1690508a565b60976000612422612fd4565b73ffffffffffffffffffffffffffffffffffffffff1673ffffffffffffffffffffffffffffffffffffffff16815260200190815260200160002060009054906101000a900460ff166124bf576040517f08c379a0000000000000000000000000000000000000000000000000000000008152600401808060200182810382526028815260200180613b0f6028913960400191505060405180910390fd5b600073ffffffffffffffffffffffffffffffffffffffff1660cf8484604051808383808284378083019250505092505050908152602001604051809103902060080160009054906101000a900473ffffffffffffffffffffffffffffffffffffffff1673ffffffffffffffffffffffffffffffffffffffff1614156125ac576040517f08c379a000000000000000000000000000000000000000000000000000000000815260040180806020018281038252601d8152602001807f70726f706f73616c206e6f74207375626d6974746564206265666f726500000081525060200191505060405180910390fd5b600060cf84846040518083838082843780830192505050925050509081526020016040518091039020600601549050600160058111156125e857fe5b8214801561262b5750600060058111156125fe57fe5b60cf8585604051808383808284378083019250505092505050908152602001604051809103902060060154145b15612812576001600581111561263d57fe5b60cf858560405180838380828437808301925050509250505090815260200160405180910390206006018190555060cc60009054906101000a900473ffffffffffffffffffffffffffffffffffffffff1673ffffffffffffffffffffffffffffffffffffffff166323b872dd60cf8686604051808383808284378083019250505092505050908152602001604051809103902060080160009054906101000a900473ffffffffffffffffffffffffffffffffffffffff163060cf88886040518083838082843780830192505050925050509081526020016040518091039020600301546040518463ffffffff1660e01b8152600401808473ffffffffffffffffffffffffffffffffffffffff1681526020018373ffffffffffffffffffffffffffffffffffffffff1681526020018281526020019350505050602060405180830381600087803b15801561279057600080fd5b505af11580156127a4573d6000803e3d6000fd5b505050506040513d60208110156127ba57600080fd5b81019080805190602001909291905050505061280b60cf858560405180838380828437808301925050509250505090815260200160405180910390206003015460ce546134d190919063ffffffff16565b60ce819055505b6002600581111561281f57fe5b8214801561286257506001600581111561283557fe5b60cf8585604051808383808284378083019250505092505050908152602001604051809103902060060154145b156128a3576002600581111561287457fe5b60cf85856040518083838082843780830192505050925050509081526020016040518091039020600601819055505b600360058111156128b057fe5b821480156128f35750600260058111156128c657fe5b60cf8585604051808383808284378083019250505092505050908152602001604051809103902060060154145b15612963576003600581111561290557fe5b60cf85856040518083838082843780830192505050925050509081526020016040518091039020600601819055504260cf85856040518083838082843780830192505050925050509081526020016040518091039020600101819055505b60058081111561296f57fe5b821480156129b257506000600581111561298557fe5b60cf8585604051808383808284378083019250505092505050908152602001604051809103902060060154145b156129f2576005808111156129c357fe5b60cf85856040518083838082843780830192505050925050509081526020016040518091039020600601819055505b600460058111156129ff57fe5b82148015612a42575060036005811115612a1557fe5b60cf8585604051808383808284378083019250505092505050908152602001604051809103902060060154145b15612bc65760046005811115612a5457fe5b60cf858560405180838380828437808301925050509250505090815260200160405180910390206006018190555060cc60009054906101000a900473ffffffffffffffffffffffffffffffffffffffff1673ffffffffffffffffffffffffffffffffffffffff1663a9059cbb60cf8686604051808383808284378083019250505092505050908152602001604051809103902060080160009054906101000a900473ffffffffffffffffffffffffffffffffffffffff1660cf87876040518083838082843780830192505050925050509081526020016040518091039020600301546040518363ffffffff1660e01b8152600401808373ffffffffffffffffffffffffffffffffffffffff16815260200182815260200192505050602060405180830381600087803b158015612b8957600080fd5b505af1158015612b9d573d6000803e3d6000fd5b505050506040513d6020811015612bb357600080fd5b8101908080519060200190929190505050505b8160cf858560405180838380828437808301925050509250505090815260200160405180910390206006015414612c65576040517f08c379a00000000000000000000000000000000000000000000000000000000081526004018080602001828103825260128152602001807f537461747573204e6f742075706461746564000000000000000000000000000081525060200191505060405180910390fd5b7ff9658dbe59b6548b3f6ee93ff4e3b4efa307aab6e3651c81100f53ff9afb28a384848360cf888860405180838380828437808301925050509250505090815260200160405180910390206006015460405180806020018481526020018381526020018281038252868682818152602001925080828437600081840152601f19601f8201169050808301925050509550505050505060405180910390a150505050565b612d10612fd4565b73ffffffffffffffffffffffffffffffffffffffff16606560009054906101000a900473ffffffffffffffffffffffffffffffffffffffff1673ffffffffffffffffffffffffffffffffffffffff1614612db5576040517f08c379a0000000000000000000000000000000000000000000000000000000008152600401808060200182810382526025815260200180613aea6025913960400191505060405180910390fd5b600073ffffffffffffffffffffffffffffffffffffffff168173ffffffffffffffffffffffffffffffffffffffff161415612e3b576040517f08c379a0000000000000000000000000000000000000000000000000000000008152600401808060200182810382526026815260200180613ac46026913960400191505060405180910390fd5b8073ffffffffffffffffffffffffffffffffffffffff16606560009054906101000a900473ffffffffffffffffffffffffffffffffffffffff1673ffffffffffffffffffffffffffffffffffffffff167f8be0079c531659141344cd1fd0a4f28419497f9722a3daafe3b4186f6b6457e060405160405180910390a380606560006101000a81548173ffffffffffffffffffffffffffffffffffffffff021916908373ffffffffffffffffffffffffffffffffffffffff16021790555050565b60976000612f07612fd4565b73ffffffffffffffffffffffffffffffffffffffff1673ffffffffffffffffffffffffffffffffffffffff16815260200190815260200160002060009054906101000a900460ff16612fa4576040517f08c379a0000000000000000000000000000000000000000000000000000000008152600401808060200182810382526028815260200180613b0f6028913960400191505060405180910390fd5b612fac613559565b565b60cb60009054906101000a900473ffffffffffffffffffffffffffffffffffffffff1681565b600033905090565b6000803090506000813b9050600081149250505090565b600060019054906101000a900460ff16806130125750613011612fdc565b5b80613028575060008054906101000a900460ff16155b61307d576040517f08c379a000000000000000000000000000000000000000000000000000000000815260040180806020018281038252602e815260200180613b85602e913960400191505060405180910390fd5b60008060019054906101000a900460ff1615905080156130cd576001600060016101000a81548160ff02191690831515021790555060016000806101000a81548160ff0219169083151502179055505b6130d561364c565b6130dd61374a565b80156130fe5760008060016101000a81548160ff0219169083151502179055505b50565b600060019054906101000a900460ff1680613120575061311f612fdc565b5b80613136575060008054906101000a900460ff16155b61318b576040517f08c379a000000000000000000000000000000000000000000000000000000000815260040180806020018281038252602e815260200180613b85602e913960400191505060405180910390fd5b60008060019054906101000a900460ff1615905080156131db576001600060016101000a81548160ff02191690831515021790555060016000806101000a81548160ff0219169083151502179055505b6131e361364c565b6131eb61392d565b801561320c5760008060016101000a81548160ff0219169083151502179055505b50565b6000613219613a46565b8260405160200180807f190100000000000000000000000000000000000000000000000000000000000081525060020183815260200182815260200192505050604051602081830303815290604052805190602001209050600060018287878760405160008152602001604052604051808581526020018460ff1681526020018381526020018281526020019450505050506020604051602081039080840390855afa1580156132cd573d6000803e3d6000fd5b505050602060405103519050600073ffffffffffffffffffffffffffffffffffffffff168173ffffffffffffffffffffffffffffffffffffffff1614158015613363575060cd60009054906101000a900473ffffffffffffffffffffffffffffffffffffffff1673ffffffffffffffffffffffffffffffffffffffff168173ffffffffffffffffffffffffffffffffffffffff16145b6133d5576040517f08c379a00000000000000000000000000000000000000000000000000000000081526004018080602001828103825260118152602001807f494e56414c49445f5349474e415455524500000000000000000000000000000081525060200191505060405180910390fd5b505050505050565b609860009054906101000a900460ff1615613460576040517f08c379a00000000000000000000000000000000000000000000000000000000081526004018080602001828103825260108152602001807f5061757361626c653a207061757365640000000000000000000000000000000081525060200191505060405180910390fd5b6001609860006101000a81548160ff0219169083151502179055507f62e78cea01bee320cd4e420270b5ea74000d11b0c9f74754ebdbfc544b05a2586134a4612fd4565b604051808273ffffffffffffffffffffffffffffffffffffffff16815260200191505060405180910390a1565b60008082840190508381101561354f576040517f08c379a000000000000000000000000000000000000000000000000000000000815260040180806020018281038252601b8152602001807f536166654d6174683a206164646974696f6e206f766572666c6f77000000000081525060200191505060405180910390fd5b8091505092915050565b609860009054906101000a900460ff166135db576040517f08c379a00000000000000000000000000000000000000000000000000000000081526004018080602001828103825260148152602001807f5061757361626c653a206e6f742070617573656400000000000000000000000081525060200191505060405180910390fd5b6000609860006101000a81548160ff0219169083151502179055507f5db9ee0a495bf2e6ff9c91a7834c1ba4fdd244a5e8aa4e537bd38aeae4b073aa61361f612fd4565b604051808273ffffffffffffffffffffffffffffffffffffffff16815260200191505060405180910390a1565b600060019054906101000a900460ff168061366b575061366a612fdc565b5b80613681575060008054906101000a900460ff16155b6136d6576040517f08c379a000000000000000000000000000000000000000000000000000000000815260040180806020018281038252602e815260200180613b85602e913960400191505060405180910390fd5b60008060019054906101000a900460ff161590508015613726576001600060016101000a81548160ff02191690831515021790555060016000806101000a81548160ff0219169083151502179055505b80156137475760008060016101000a81548160ff0219169083151502179055505b50565b600060019054906101000a900460ff16806137695750613768612fdc565b5b8061377f575060008054906101000a900460ff16155b6137d4576040517f08c379a000000000000000000000000000000000000000000000000000000000815260040180806020018281038252602e815260200180613b85602e913960400191505060405180910390fd5b60008060019054906101000a900460ff161590508015613824576001600060016101000a81548160ff02191690831515021790555060016000806101000a81548160ff0219169083151502179055505b600033905080606560006101000a81548173ffffffffffffffffffffffffffffffffffffffff021916908373ffffffffffffffffffffffffffffffffffffffff1602179055508073ffffffffffffffffffffffffffffffffffffffff16600073ffffffffffffffffffffffffffffffffffffffff167f8be0079c531659141344cd1fd0a4f28419497f9722a3daafe3b4186f6b6457e060405160405180910390a38073ffffffffffffffffffffffffffffffffffffffff167f76af71f00bdefe934d8091c1c072a3cfb98d86d4c9928629512230c11ce4250c60405160405180910390a250801561392a5760008060016101000a81548160ff0219169083151502179055505b50565b600060019054906101000a900460ff168061394c575061394b612fdc565b5b80613962575060008054906101000a900460ff16155b6139b7576040517f08c379a000000000000000000000000000000000000000000000000000000000815260040180806020018281038252602e815260200180613b85602e913960400191505060405180910390fd5b60008060019054906101000a900460ff161590508015613a07576001600060016101000a81548160ff02191690831515021790555060016000806101000a81548160ff0219169083151502179055505b6000609860006101000a81548160ff0219169083151502179055508015613a435760008060016101000a81548160ff0219169083151502179055505b50565b60003060405160200180806020018373ffffffffffffffffffffffffffffffffffffffff168152602001828103825260048152602001807f3078303100000000000000000000000000000000000000000000000000000000815250602001925050506040516020818303038152906040528051906020012090509056fe4f776e61626c653a206e6577206f776e657220697320746865207a65726f20616464726573734f776e61626c653a2063616c6c6572206973206e6f7420746865204d61696e206f776e65724f776e61626c653a2063616c6c6572206973206e6f74206f6e65206f66206d616e79206f776e65724f6e6c79204f776e6572206f662070726f7073616c2063616e206564697420746869732070726f7073616c4f6e6c79204f776e6572206f662050726f706f73616c2063616e207769746864726177436f6e747261637420696e7374616e63652068617320616c7265616479206265656e20696e697469616c697a65645374616b696e6720436f6e747261637420686173206e6f74206265656e2073657420796574a26469706673582212209e12e4d6d1b176a2d0e60e042ef081dde4ad101f4c6db440765210c75f206c2b64736f6c634300060c0033",
  "compiler": {
    "name": "solc",
    "version": "0.6.12+commit.27d51765.Emscripten.clang",
    "optimizer": {
      "enabled": false,
      "runs": 200
    },
    "evmVersion": "petersburg"
  }
}