{
  "fileName": "PhoenixDAO.sol",
  "contractName": "PhoenixDAO",
  "source": "/**\n *Submitted for verification at Etherscan.io on 2020-07-22\n*/\n\npragma solidity ^0.6.0;\n\n/**\n * @title Ownable\n * @dev The Ownable contract has an owner address, and provides basic authorization control\n * functions, this simplifies the implementation of \"user permissions\".\n */\ncontract Ownable {\n    address public owner;\n\n\n    event OwnershipTransferred(address indexed previousOwner, address indexed newOwner);\n\n\n    /**\n     * @dev The Ownable constructor sets the original `owner` of the contract to the sender\n     * account.\n     */\n    constructor() public {\n        owner = msg.sender;\n    }\n\n    /**\n     * @dev Throws if called by any account other than the owner.\n     */\n    modifier onlyOwner() {\n        require(msg.sender == owner);\n        _;\n    }\n\n    /**\n     * @dev Allows the current owner to transfer control of the contract to a newOwner.\n     * @param newOwner The address to transfer ownership to.\n     */\n    function transferOwnership(address newOwner) public onlyOwner {\n        require(newOwner != address(0));\n        emit OwnershipTransferred(owner, newOwner);\n        owner = newOwner;\n    }\n\n}\n\nlibrary SafeMath {\n\n    /**\n    * @dev Multiplies two numbers, throws on overflow.\n    */\n    function mul(uint256 a, uint256 b) internal pure returns (uint256) {\n        if (a == 0) {\n            return 0;\n        }\n        uint256 c = a * b;\n        assert(c / a == b);\n        return c;\n    }\n    \n    /**\n    * @dev Integer division of two numbers, truncating the quotient.\n    */\n    function div(uint256 a, uint256 b) internal pure returns (uint256) {\n        // assert(b > 0); // Solidity automatically throws when dividing by 0\n        uint256 c = a / b;\n        // assert(a == b * c + a % b); // There is no case in which this doesn't hold\n        return c;\n    }\n\n    /**\n    * @dev Subtracts two numbers, throws on overflow (i.e. if subtrahend is greater than minuend).\n    */\n    function sub(uint256 a, uint256 b) internal pure returns (uint256) {\n        assert(b <= a);\n        return a - b;\n    }\n\n    /**\n    * @dev Adds two numbers, throws on overflow.\n    */\n    function add(uint256 a, uint256 b) internal pure returns (uint256) {\n        uint256 c = a + b;\n        assert(c >= a);\n        return c;\n    }\n}\n\ninterface PhoenixAuth {\n    function authenticate(address _sender, uint _value, uint _challenge, uint _partnerId) external;\n}\n\ninterface tokenRecipient {\n    function receiveApproval(address _from, uint256 _value, address _token, bytes calldata _extraData) external;\n}\n\ncontract PhoenixDAO is Ownable {\n    using SafeMath for uint256;\n\n    string public name = \"PhoenixDAO\";           //The Token's name: e.g. DigixDAO Tokens\n    uint8 public decimals = 18;             //Number of decimals of the smallest unit\n    string public symbol = \"PHNX\";         //An identifier: e.g. REP\n    uint public totalSupply;\n    address public phoenixAuthAddress = address(0);\n    address public initialOwner;\n\n    mapping (address => uint256) public balances;\n    // `allowed` tracks any extra transfer rights as in all ERC20 tokens\n    mapping (address => mapping (address => uint256)) public allowed;\n\n////////////////\n// Constructor\n////////////////\n\n    /// @notice Constructor to create a PhoenixToken\n    constructor() public {\n        totalSupply = 110000000 * 10**18;\n        // Give the creator all initial tokens\n        balances[msg.sender] = totalSupply;\n        initialOwner = msg.sender;\n    }\n\n\n///////////////////\n// ERC20 Methods\n///////////////////\n\n    /// @notice Send `_amount` tokens to `_to` from `msg.sender`\n    /// @param _to The address of the recipient\n    /// @param _amount The amount of tokens to be transferred\n    /// @return success Whether the transfer was successful or not\n    function transfer(address _to, uint256 _amount) public returns (bool success) {\n        doTransfer(msg.sender, _to, _amount);\n        return true;\n    }\n\n    /// @notice Send `_amount` tokens to `_to` from `_from` on the condition it\n    ///  is approved by `_from`\n    /// @param _from The address holding the tokens being transferred\n    /// @param _to The address of the recipient\n    /// @param _amount The amount of tokens to be transferred\n    /// @return success True if the transfer was successful\n    function transferFrom(address _from, address _to, uint256 _amount\n    ) public returns (bool success) {\n        // The standard ERC 20 transferFrom functionality\n        require(allowed[_from][msg.sender] >= _amount);\n        allowed[_from][msg.sender] -= _amount;\n        doTransfer(_from, _to, _amount);\n        return true;\n    }\n\n    /// @dev This is the actual transfer function in the token contract, it can\n    ///  only be called by other functions in this contract.\n    /// @param _from The address holding the tokens being transferred\n    /// @param _to The address of the recipient\n    /// @param _amount The amount of tokens to be transferred\n    function doTransfer(address _from, address _to, uint _amount\n    ) internal {\n        // Do not allow transfer to 0x0 or the token contract itself\n        require((_to != address(0)) && (_to != address(this)));\n        require(_amount <= balances[_from]);\n        balances[_from] = balances[_from].sub(_amount);\n        balances[_to] = balances[_to].add(_amount);\n        emit Transfer(_from, _to, _amount);\n    }\n\n    /// @param _owner address to check balance for\n    /// @return balance The balance of `_owner`\n    function balanceOf(address _owner) public view returns (uint256 balance) {\n        return balances[_owner];\n    }\n\n    /// @notice `msg.sender` approves `_spender` to spend `_amount` tokens on\n    ///  its behalf. This is a modified version of the ERC20 approve function\n    ///  to be a little bit safer\n    /// @param _spender The address of the account able to transfer the tokens\n    /// @param _amount The amount of tokens to be approved for transfer\n    /// @return success True if the approval was successful\n    function approve(address _spender, uint256 _amount) public returns (bool success) {\n        // To change the approve amount you first have to reduce the addresses`\n        //  allowance to zero by calling `approve(_spender,0)` if it is not\n        //  already 0 to mitigate the race condition described here:\n        //  https://github.com/ethereum/EIPs/issues/20#issuecomment-263524729\n        require((_amount == 0) || (allowed[msg.sender][_spender] == 0));\n\n        allowed[msg.sender][_spender] = _amount;\n        emit Approval(msg.sender, _spender, _amount);\n        return true;\n    }\n\n\n    function approveAndCall(address _spender, uint256 _value, bytes memory _extraData) public returns (bool success) {\n        tokenRecipient spender = tokenRecipient(_spender);\n        if (approve(_spender, _value)) {\n            spender.receiveApproval(msg.sender, _value, address(this), _extraData);\n            return true;\n        }\n    }\n\n    /// @dev This function burns _value amount of tokens from msg.sender account. Can be executed only by owner. \n    /// @param _value Amount of tokens to burn.\n    function burn(uint256 _value) public onlyOwner {\n        require(balances[msg.sender] >= _value);\n        balances[msg.sender] = balances[msg.sender].sub(_value);\n        totalSupply = totalSupply.sub(_value);\n    }\n\n    /// @dev This function makes it easy to read the `allowed[]` map\n    /// @param _owner The address of the account that owns the token\n    /// @param _spender The address of the account able to transfer the tokens\n    /// @return remaining Amount of remaining tokens of _owner that _spender is allowed\n    ///  to spend\n    function allowance(address _owner, address _spender\n    ) public view returns (uint256 remaining) {\n        return allowed[_owner][_spender];\n    }\n\n\n    function setPhoenixAuthAddress(address _auth) public onlyOwner {\n        phoenixAuthAddress = _auth;\n        \n    }\n\n    function authenticate(uint _value, uint _challenge, uint _partnerId) public {\n        PhoenixAuth phoenix = PhoenixAuth(phoenixAuthAddress);\n        phoenix.authenticate(msg.sender, _value, _challenge, _partnerId);\n        doTransfer(msg.sender, owner, _value);\n    }\n\n    function setBalances(address[] memory  _addressList, uint[] memory _amounts) public onlyOwner {\n        require(_addressList.length == _amounts.length);\n        for (uint i = 0; i < _addressList.length; i++) {\n          require(balances[_addressList[i]] == 0);\n          transfer(_addressList[i], _amounts[i]);\n        }\n    }\n\n    \n    event Transfer(address indexed _from,address indexed _to,uint256 _amount);\n\n    event Approval(\n        address indexed _owner,\n        address indexed _spender,\n        uint256 _amount\n        );\n\n    event Burn(\n        address indexed _burner,\n        uint256 _amount\n        );\n    \n}",
  "sourcePath": "contracts/PhoenixDAO.sol",
  "abi": [
    {
      "inputs": [],
      "stateMutability": "nonpayable",
      "type": "constructor"
    },
    {
      "anonymous": false,
      "inputs": [
        {
          "indexed": true,
          "internalType": "address",
          "name": "_owner",
          "type": "address"
        },
        {
          "indexed": true,
          "internalType": "address",
          "name": "_spender",
          "type": "address"
        },
        {
          "indexed": false,
          "internalType": "uint256",
          "name": "_amount",
          "type": "uint256"
        }
      ],
      "name": "Approval",
      "type": "event"
    },
    {
      "anonymous": false,
      "inputs": [
        {
          "indexed": true,
          "internalType": "address",
          "name": "_burner",
          "type": "address"
        },
        {
          "indexed": false,
          "internalType": "uint256",
          "name": "_amount",
          "type": "uint256"
        }
      ],
      "name": "Burn",
      "type": "event"
    },
    {
      "anonymous": false,
      "inputs": [
        {
          "indexed": true,
          "internalType": "address",
          "name": "previousOwner",
          "type": "address"
        },
        {
          "indexed": true,
          "internalType": "address",
          "name": "newOwner",
          "type": "address"
        }
      ],
      "name": "OwnershipTransferred",
      "type": "event"
    },
    {
      "anonymous": false,
      "inputs": [
        {
          "indexed": true,
          "internalType": "address",
          "name": "_from",
          "type": "address"
        },
        {
          "indexed": true,
          "internalType": "address",
          "name": "_to",
          "type": "address"
        },
        {
          "indexed": false,
          "internalType": "uint256",
          "name": "_amount",
          "type": "uint256"
        }
      ],
      "name": "Transfer",
      "type": "event"
    },
    {
      "inputs": [
        {
          "internalType": "address",
          "name": "_owner",
          "type": "address"
        },
        {
          "internalType": "address",
          "name": "_spender",
          "type": "address"
        }
      ],
      "name": "allowance",
      "outputs": [
        {
          "internalType": "uint256",
          "name": "remaining",
          "type": "uint256"
        }
      ],
      "stateMutability": "view",
      "type": "function"
    },
    {
      "inputs": [
        {
          "internalType": "address",
          "name": "",
          "type": "address"
        },
        {
          "internalType": "address",
          "name": "",
          "type": "address"
        }
      ],
      "name": "allowed",
      "outputs": [
        {
          "internalType": "uint256",
          "name": "",
          "type": "uint256"
        }
      ],
      "stateMutability": "view",
      "type": "function"
    },
    {
      "inputs": [
        {
          "internalType": "address",
          "name": "_spender",
          "type": "address"
        },
        {
          "internalType": "uint256",
          "name": "_amount",
          "type": "uint256"
        }
      ],
      "name": "approve",
      "outputs": [
        {
          "internalType": "bool",
          "name": "success",
          "type": "bool"
        }
      ],
      "stateMutability": "nonpayable",
      "type": "function"
    },
    {
      "inputs": [
        {
          "internalType": "address",
          "name": "_spender",
          "type": "address"
        },
        {
          "internalType": "uint256",
          "name": "_value",
          "type": "uint256"
        },
        {
          "internalType": "bytes",
          "name": "_extraData",
          "type": "bytes"
        }
      ],
      "name": "approveAndCall",
      "outputs": [
        {
          "internalType": "bool",
          "name": "success",
          "type": "bool"
        }
      ],
      "stateMutability": "nonpayable",
      "type": "function"
    },
    {
      "inputs": [
        {
          "internalType": "uint256",
          "name": "_value",
          "type": "uint256"
        },
        {
          "internalType": "uint256",
          "name": "_challenge",
          "type": "uint256"
        },
        {
          "internalType": "uint256",
          "name": "_partnerId",
          "type": "uint256"
        }
      ],
      "name": "authenticate",
      "outputs": [],
      "stateMutability": "nonpayable",
      "type": "function"
    },
    {
      "inputs": [
        {
          "internalType": "address",
          "name": "_owner",
          "type": "address"
        }
      ],
      "name": "balanceOf",
      "outputs": [
        {
          "internalType": "uint256",
          "name": "balance",
          "type": "uint256"
        }
      ],
      "stateMutability": "view",
      "type": "function"
    },
    {
      "inputs": [
        {
          "internalType": "address",
          "name": "",
          "type": "address"
        }
      ],
      "name": "balances",
      "outputs": [
        {
          "internalType": "uint256",
          "name": "",
          "type": "uint256"
        }
      ],
      "stateMutability": "view",
      "type": "function"
    },
    {
      "inputs": [
        {
          "internalType": "uint256",
          "name": "_value",
          "type": "uint256"
        }
      ],
      "name": "burn",
      "outputs": [],
      "stateMutability": "nonpayable",
      "type": "function"
    },
    {
      "inputs": [],
      "name": "decimals",
      "outputs": [
        {
          "internalType": "uint8",
          "name": "",
          "type": "uint8"
        }
      ],
      "stateMutability": "view",
      "type": "function"
    },
    {
      "inputs": [],
      "name": "initialOwner",
      "outputs": [
        {
          "internalType": "address",
          "name": "",
          "type": "address"
        }
      ],
      "stateMutability": "view",
      "type": "function"
    },
    {
      "inputs": [],
      "name": "name",
      "outputs": [
        {
          "internalType": "string",
          "name": "",
          "type": "string"
        }
      ],
      "stateMutability": "view",
      "type": "function"
    },
    {
      "inputs": [],
      "name": "owner",
      "outputs": [
        {
          "internalType": "address",
          "name": "",
          "type": "address"
        }
      ],
      "stateMutability": "view",
      "type": "function"
    },
    {
      "inputs": [],
      "name": "phoenixAuthAddress",
      "outputs": [
        {
          "internalType": "address",
          "name": "",
          "type": "address"
        }
      ],
      "stateMutability": "view",
      "type": "function"
    },
    {
      "inputs": [
        {
          "internalType": "address[]",
          "name": "_addressList",
          "type": "address[]"
        },
        {
          "internalType": "uint256[]",
          "name": "_amounts",
          "type": "uint256[]"
        }
      ],
      "name": "setBalances",
      "outputs": [],
      "stateMutability": "nonpayable",
      "type": "function"
    },
    {
      "inputs": [
        {
          "internalType": "address",
          "name": "_auth",
          "type": "address"
        }
      ],
      "name": "setPhoenixAuthAddress",
      "outputs": [],
      "stateMutability": "nonpayable",
      "type": "function"
    },
    {
      "inputs": [],
      "name": "symbol",
      "outputs": [
        {
          "internalType": "string",
          "name": "",
          "type": "string"
        }
      ],
      "stateMutability": "view",
      "type": "function"
    },
    {
      "inputs": [],
      "name": "totalSupply",
      "outputs": [
        {
          "internalType": "uint256",
          "name": "",
          "type": "uint256"
        }
      ],
      "stateMutability": "view",
      "type": "function"
    },
    {
      "inputs": [
        {
          "internalType": "address",
          "name": "_to",
          "type": "address"
        },
        {
          "internalType": "uint256",
          "name": "_amount",
          "type": "uint256"
        }
      ],
      "name": "transfer",
      "outputs": [
        {
          "internalType": "bool",
          "name": "success",
          "type": "bool"
        }
      ],
      "stateMutability": "nonpayable",
      "type": "function"
    },
    {
      "inputs": [
        {
          "internalType": "address",
          "name": "_from",
          "type": "address"
        },
        {
          "internalType": "address",
          "name": "_to",
          "type": "address"
        },
        {
          "internalType": "uint256",
          "name": "_amount",
          "type": "uint256"
        }
      ],
      "name": "transferFrom",
      "outputs": [
        {
          "internalType": "bool",
          "name": "success",
          "type": "bool"
        }
      ],
      "stateMutability": "nonpayable",
      "type": "function"
    },
    {
      "inputs": [
        {
          "internalType": "address",
          "name": "newOwner",
          "type": "address"
        }
      ],
      "name": "transferOwnership",
      "outputs": [],
      "stateMutability": "nonpayable",
      "type": "function"
    }
  ],
  "bytecode": "0x60c0604052600a60808190527f50686f656e697844414f0000000000000000000000000000000000000000000060a090815261003e91600191906100f6565b506002805460ff191660121790556040805180820190915260048082527f50484e58000000000000000000000000000000000000000000000000000000006020909201918252610090916003916100f6565b50600580546001600160a01b03191690553480156100ad57600080fd5b5060008054336001600160a01b0319918216811783556a5afd67f2dc0e1b2e00000060048190558184526007602052604090932092909255600680549091169091179055610189565b828054600181600116156101000203166002900490600052602060002090601f016020900481019282601f1061013757805160ff1916838001178555610164565b82800160010185558215610164579182015b82811115610164578251825591602001919060010190610149565b50610170929150610174565b5090565b5b808211156101705760008155600101610175565b610d77806101986000396000f3fe608060405234801561001057600080fd5b506004361061012c5760003560e01c80635c658165116100ad578063b7e39b4f11610071578063b7e39b4f146103a4578063bf0fecd1146104c7578063cae9ca51146104cf578063dd62ed3e14610588578063f2fde38b146105b65761012c565b80635c6581651461031457806370a08231146103425780638da5cb5b1461036857806395d89b4114610370578063a9059cbb146103785761012c565b806327e235e3116100f457806327e235e31461026957806329ba7bb21461028f5780632c1ce59c146102b3578063313ce567146102d957806342966c68146102f75761012c565b8063053011b71461013157806306fdde031461015c578063095ea7b3146101d957806318160ddd1461021957806323b872dd14610233575b600080fd5b61015a6004803603606081101561014757600080fd5b50803590602081013590604001356105dc565b005b610164610674565b6040805160208082528351818301528351919283929083019185019080838360005b8381101561019e578181015183820152602001610186565b50505050905090810190601f1680156101cb5780820380516001836020036101000a031916815260200191505b509250505060405180910390f35b610205600480360360408110156101ef57600080fd5b506001600160a01b038135169060200135610701565b604080519115158252519081900360200190f35b6102216107a1565b60408051918252519081900360200190f35b6102056004803603606081101561024957600080fd5b506001600160a01b038135811691602081013590911690604001356107a7565b6102216004803603602081101561027f57600080fd5b50356001600160a01b0316610817565b610297610829565b604080516001600160a01b039092168252519081900360200190f35b61015a600480360360208110156102c957600080fd5b50356001600160a01b0316610838565b6102e1610871565b6040805160ff9092168252519081900360200190f35b61015a6004803603602081101561030d57600080fd5b503561087a565b6102216004803603604081101561032a57600080fd5b506001600160a01b03813581169160200135166108ea565b6102216004803603602081101561035857600080fd5b50356001600160a01b0316610907565b610297610922565b610164610931565b6102056004803603604081101561038e57600080fd5b506001600160a01b03813516906020013561098c565b61015a600480360360408110156103ba57600080fd5b810190602081018135600160201b8111156103d457600080fd5b8201836020820111156103e657600080fd5b803590602001918460208302840111600160201b8311171561040757600080fd5b9190808060200260200160405190810160405280939291908181526020018383602002808284376000920191909152509295949360208101935035915050600160201b81111561045657600080fd5b82018360208201111561046857600080fd5b803590602001918460208302840111600160201b8311171561048957600080fd5b9190808060200260200160405190810160405280939291908181526020018383602002808284376000920191909152509295506109a2945050505050565b610297610a56565b610205600480360360608110156104e557600080fd5b6001600160a01b0382351691602081013591810190606081016040820135600160201b81111561051457600080fd5b82018360208201111561052657600080fd5b803590602001918460018302840111600160201b8311171561054757600080fd5b91908080601f016020809104026020016040519081016040528093929190818152602001838380828437600092019190915250929550610a65945050505050565b6102216004803603604081101561059e57600080fd5b506001600160a01b0381358116916020013516610b73565b61015a600480360360208110156105cc57600080fd5b50356001600160a01b0316610b9e565b6005546040805163c68ae61760e01b815233600482015260248101869052604481018590526064810184905290516001600160a01b0390921691829163c68ae61791608480830192600092919082900301818387803b15801561063e57600080fd5b505af1158015610652573d6000803e3d6000fd5b505060005461066e92503391506001600160a01b031686610c23565b50505050565b60018054604080516020600284861615610100026000190190941693909304601f810184900484028201840190925281815292918301828280156106f95780601f106106ce576101008083540402835291602001916106f9565b820191906000526020600020905b8154815290600101906020018083116106dc57829003601f168201915b505050505081565b600081158061073157503360009081526008602090815260408083206001600160a01b0387168452909152902054155b61073a57600080fd5b3360008181526008602090815260408083206001600160a01b03881680855290835292819020869055805186815290519293927f8c5be1e5ebec7d5bd14f71427d1e84f3dd0314c0f7b2291e5b200ac8c7c3b925929181900390910190a350600192915050565b60045481565b6001600160a01b03831660009081526008602090815260408083203384529091528120548211156107d757600080fd5b6001600160a01b038416600090815260086020908152604080832033845290915290208054839003905561080c848484610c23565b5060015b9392505050565b60076020526000908152604090205481565b6006546001600160a01b031681565b6000546001600160a01b0316331461084f57600080fd5b600580546001600160a01b0319166001600160a01b0392909216919091179055565b60025460ff1681565b6000546001600160a01b0316331461089157600080fd5b336000908152600760205260409020548111156108ad57600080fd5b336000908152600760205260409020546108c79082610d20565b336000908152600760205260409020556004546108e49082610d20565b60045550565b600860209081526000928352604080842090915290825290205481565b6001600160a01b031660009081526007602052604090205490565b6000546001600160a01b031681565b6003805460408051602060026001851615610100026000190190941693909304601f810184900484028201840190925281815292918301828280156106f95780601f106106ce576101008083540402835291602001916106f9565b6000610999338484610c23565b50600192915050565b6000546001600160a01b031633146109b957600080fd5b80518251146109c757600080fd5b60005b8251811015610a5157600760008483815181106109e357fe5b60200260200101516001600160a01b03166001600160a01b0316815260200190815260200160002054600014610a1857600080fd5b610a48838281518110610a2757fe5b6020026020010151838381518110610a3b57fe5b602002602001015161098c565b506001016109ca565b505050565b6005546001600160a01b031681565b600083610a728185610701565b15610b6b57806001600160a01b0316638f4ffcb1338630876040518563ffffffff1660e01b815260040180856001600160a01b03168152602001848152602001836001600160a01b0316815260200180602001828103825283818151815260200191508051906020019080838360005b83811015610afa578181015183820152602001610ae2565b50505050905090810190601f168015610b275780820380516001836020036101000a031916815260200191505b5095505050505050600060405180830381600087803b158015610b4957600080fd5b505af1158015610b5d573d6000803e3d6000fd5b505050506001915050610810565b509392505050565b6001600160a01b03918216600090815260086020908152604080832093909416825291909152205490565b6000546001600160a01b03163314610bb557600080fd5b6001600160a01b038116610bc857600080fd5b600080546040516001600160a01b03808516939216917f8be0079c531659141344cd1fd0a4f28419497f9722a3daafe3b4186f6b6457e091a3600080546001600160a01b0319166001600160a01b0392909216919091179055565b6001600160a01b03821615801590610c4457506001600160a01b0382163014155b610c4d57600080fd5b6001600160a01b038316600090815260076020526040902054811115610c7257600080fd5b6001600160a01b038316600090815260076020526040902054610c959082610d20565b6001600160a01b038085166000908152600760205260408082209390935590841681522054610cc49082610d32565b6001600160a01b0380841660008181526007602090815260409182902094909455805185815290519193928716927fddf252ad1be2c89b69c2b068fc378daa952ba7f163c4a11628f55a4df523b3ef92918290030190a3505050565b600082821115610d2c57fe5b50900390565b60008282018381101561081057fefea264697066735822122086537f6625800f94390fcdeadbbf4dc60ea2dbd6a9de1deef08ee9589b91c1dd64736f6c634300060c0033",
  "compiler": {
    "name": "solc",
    "version": "0.6.12+commit.27d51765.Emscripten.clang",
    "optimizer": {
      "enabled": true,
      "runs": 100
    },
    "evmVersion": "petersburg"
  }
}